{
  "contractName": "coinFlip",
  "abi": [
    {
      "anonymous": false,
      "inputs": [
        {
          "indexed": false,
          "internalType": "string",
          "name": "_result",
          "type": "string"
        },
        {
          "indexed": false,
          "internalType": "uint256",
          "name": "_value",
          "type": "uint256"
        }
      ],
      "name": "betResult",
      "type": "event"
    },
    {
      "anonymous": false,
      "inputs": [
        {
          "indexed": false,
          "internalType": "uint256",
          "name": "_value",
          "type": "uint256"
        }
      ],
      "name": "contractFunded",
      "type": "event"
    },
    {
      "constant": true,
      "inputs": [],
      "name": "owner",
      "outputs": [
        {
          "internalType": "address",
          "name": "",
          "type": "address"
        }
      ],
      "payable": false,
      "stateMutability": "view",
      "type": "function"
    },
    {
      "constant": true,
      "inputs": [],
      "name": "getBalance",
      "outputs": [
        {
          "internalType": "uint256",
          "name": "",
          "type": "uint256"
        }
      ],
      "payable": false,
      "stateMutability": "view",
      "type": "function"
    },
    {
      "constant": false,
      "inputs": [],
      "name": "fundContract",
      "outputs": [],
      "payable": true,
      "stateMutability": "payable",
      "type": "function"
    },
    {
      "constant": false,
      "inputs": [],
      "name": "withdrawAll",
      "outputs": [
        {
          "internalType": "uint256",
          "name": "",
          "type": "uint256"
        }
      ],
      "payable": false,
      "stateMutability": "nonpayable",
      "type": "function"
    },
    {
      "constant": true,
      "inputs": [],
      "name": "random",
      "outputs": [
        {
          "internalType": "uint256",
          "name": "",
          "type": "uint256"
        }
      ],
      "payable": false,
      "stateMutability": "view",
      "type": "function"
    },
    {
      "constant": false,
      "inputs": [
        {
          "internalType": "uint256",
          "name": "answer",
          "type": "uint256"
        }
      ],
      "name": "bet",
      "outputs": [
        {
          "internalType": "string",
          "name": "",
          "type": "string"
        }
      ],
      "payable": true,
      "stateMutability": "payable",
      "type": "function"
    }
  ],
  "bytecode": "0x6080604052336000806101000a81548173ffffffffffffffffffffffffffffffffffffffff021916908373ffffffffffffffffffffffffffffffffffffffff1602179055506104fd806100536000396000f3fe6080604052600436106100555760003560e01c806312065fe01461005a5780635ec01e4d146100855780637365870b146100b0578063853828b6146101575780638da5cb5b14610182578063bd097e21146101d9575b600080fd5b34801561006657600080fd5b5061006f6101e3565b6040518082815260200191505060405180910390f35b34801561009157600080fd5b5061009a610202565b6040518082815260200191505060405180910390f35b6100dc600480360360208110156100c657600080fd5b8101908080359060200190929190505050610214565b6040518080602001828103825283818151815260200191508051906020019080838360005b8381101561011c578082015181840152602081019050610101565b50505050905090810190601f1680156101495780820380516001836020036101000a031916815260200191505b509250505060405180910390f35b34801561016357600080fd5b5061016c6103ae565b6040518082815260200191505060405180910390f35b34801561018e57600080fd5b50610197610463565b604051808273ffffffffffffffffffffffffffffffffffffffff1673ffffffffffffffffffffffffffffffffffffffff16815260200191505060405180910390f35b6101e1610488565b005b60003073ffffffffffffffffffffffffffffffffffffffff1631905090565b60006002428161020e57fe5b06905090565b606066038d7ea4c680008034101561022b57600080fd5b60606040518060400160405280600881526020017f596f75206c6f736500000000000000000000000000000000000000000000000081525090506000349050610272610202565b8514156102ff576040518060400160405280600781526020017f596f752077696e0000000000000000000000000000000000000000000000000081525091506002810290503373ffffffffffffffffffffffffffffffffffffffff166108fc829081150290604051600060405180830381858888f193505050501580156102fd573d6000803e3d6000fd5b505b7f2c5df7a52df69a724e8ddcb1544bcdbb56fed717e9cd93fcee1819256d5c8ab982826040518080602001838152602001828103825284818151815260200191508051906020019080838360005b8381101561036857808201518184015260208101905061034d565b50505050905090810190601f1680156103955780820380516001836020036101000a031916815260200191505b50935050505060405180910390a1819350505050919050565b60008060009054906101000a900473ffffffffffffffffffffffffffffffffffffffff1673ffffffffffffffffffffffffffffffffffffffff163373ffffffffffffffffffffffffffffffffffffffff161461040957600080fd5b60006104136101e3565b90503373ffffffffffffffffffffffffffffffffffffffff166108fc829081150290604051600060405180830381858888f1935050505015801561045b573d6000803e3d6000fd5b508091505090565b6000809054906101000a900473ffffffffffffffffffffffffffffffffffffffff1681565b7ff178429116095c7a6f2d351340cc8eb2a9ba2d5552de04cfda071fced46c67296104b16101e3565b6040518082815260200191505060405180910390a156fea265627a7a72315820a5d389b132f4c63cb306f0f8dc1cc279caf37c0a52013e318647d9ca541a91c464736f6c634300050c0032",
  "source": "import \"./Ownable.sol\";\r\npragma solidity 0.5.12;\r\n\r\ncontract coinFlip is Ownable{\r\n\r\n  // uint public balance;\r\n\r\n  modifier costs(uint cost){\r\n      require(msg.value >= cost);\r\n      _;\r\n  }\r\n\r\n  event betResult(string _result, uint _value);\r\n  event contractFunded(uint _value);\r\n  // event prize(uint amount);\r\n\r\n  // uint public balance;\r\n\r\n  function getBalance() public view returns(uint){\r\n    return address(this).balance;\r\n  }\r\n\r\n  function fundContract() public payable{\r\n    // balance += msg.value;\r\n    emit contractFunded(getBalance());\r\n  }\r\n\r\n  function withdrawAll() public onlyOwner returns(uint) {\r\n      uint toTransfer = getBalance();\r\n      msg.sender.transfer(toTransfer);\r\n      return toTransfer;\r\n  }\r\n\r\n  function random() public view returns(uint){\r\n    return now % 2;\r\n  }\r\n\r\n  function bet(uint answer) public payable costs(0.001 ether)returns(string memory){\r\n    string memory result = \"You lose\";\r\n    uint amount = msg.value;\r\n\r\n    if(answer == random()){\r\n      result = \"You win\";\r\n      amount = amount * 2;\r\n      msg.sender.transfer(amount);\r\n    }\r\n\r\n    emit betResult(result, amount);\r\n    return result;\r\n  }\r\n\r\n}\r\n",
  "sourcePath": "C:/Users/KPD-JIAN/Documents/GitHub/Blockchain/Ethereum/CoinFlip-Dapp/project/contracts/coinFlip.sol",
  "compiler": {
    "name": "solc",
    "version": "0.5.12+commit.7709ece9.Emscripten.clang"
  },
  "schemaVersion": "3.0.16",
  "updatedAt": "2020-11-15T18:51:02.445Z",
  "devdoc": {
    "methods": {}
  },
  "userdoc": {
    "methods": {}
  }
}