{
  "contractName": "coinFlip",
  "abi": [
    {
      "anonymous": false,
      "inputs": [
        {
          "indexed": false,
          "internalType": "string",
          "name": "_result",
          "type": "string"
        },
        {
          "indexed": false,
          "internalType": "uint256",
          "name": "_value",
          "type": "uint256"
        }
      ],
      "name": "betResult",
      "type": "event"
    },
    {
      "anonymous": false,
      "inputs": [
        {
          "indexed": false,
          "internalType": "uint256",
          "name": "_value",
          "type": "uint256"
        }
      ],
      "name": "contractFunded",
      "type": "event"
    },
    {
      "anonymous": false,
      "inputs": [
        {
          "indexed": false,
          "internalType": "uint256",
          "name": "randomNumber",
          "type": "uint256"
        }
      ],
      "name": "generatedRandomNumber",
      "type": "event"
    },
    {
      "anonymous": false,
      "inputs": [
        {
          "indexed": false,
          "internalType": "string",
          "name": "description",
          "type": "string"
        }
      ],
      "name": "logNewProvableQuery",
      "type": "event"
    },
    {
      "constant": false,
      "inputs": [
        {
          "internalType": "bytes32",
          "name": "_myid",
          "type": "bytes32"
        },
        {
          "internalType": "string",
          "name": "_result",
          "type": "string"
        }
      ],
      "name": "__callback",
      "outputs": [],
      "payable": false,
      "stateMutability": "nonpayable",
      "type": "function"
    },
    {
      "constant": false,
      "inputs": [
        {
          "internalType": "bytes32",
          "name": "queryId",
          "type": "bytes32"
        },
        {
          "internalType": "string",
          "name": "_result",
          "type": "string"
        },
        {
          "internalType": "bytes",
          "name": "_proof",
          "type": "bytes"
        }
      ],
      "name": "__callback",
      "outputs": [],
      "payable": false,
      "stateMutability": "nonpayable",
      "type": "function"
    },
    {
      "constant": true,
      "inputs": [],
      "name": "latestNumber",
      "outputs": [
        {
          "internalType": "uint256",
          "name": "",
          "type": "uint256"
        }
      ],
      "payable": false,
      "stateMutability": "view",
      "type": "function"
    },
    {
      "constant": true,
      "inputs": [],
      "name": "owner",
      "outputs": [
        {
          "internalType": "address",
          "name": "",
          "type": "address"
        }
      ],
      "payable": false,
      "stateMutability": "view",
      "type": "function"
    },
    {
      "constant": false,
      "inputs": [],
      "name": "update",
      "outputs": [],
      "payable": true,
      "stateMutability": "payable",
      "type": "function"
    },
    {
      "constant": true,
      "inputs": [],
      "name": "getBalance",
      "outputs": [
        {
          "internalType": "uint256",
          "name": "",
          "type": "uint256"
        }
      ],
      "payable": false,
      "stateMutability": "view",
      "type": "function"
    },
    {
      "constant": false,
      "inputs": [],
      "name": "fundContract",
      "outputs": [],
      "payable": true,
      "stateMutability": "payable",
      "type": "function"
    },
    {
      "constant": false,
      "inputs": [],
      "name": "withdrawAll",
      "outputs": [
        {
          "internalType": "uint256",
          "name": "",
          "type": "uint256"
        }
      ],
      "payable": false,
      "stateMutability": "nonpayable",
      "type": "function"
    },
    {
      "constant": true,
      "inputs": [],
      "name": "random",
      "outputs": [
        {
          "internalType": "uint256",
          "name": "",
          "type": "uint256"
        }
      ],
      "payable": false,
      "stateMutability": "view",
      "type": "function"
    },
    {
      "constant": false,
      "inputs": [
        {
          "internalType": "uint256",
          "name": "answer",
          "type": "uint256"
        }
      ],
      "name": "bet",
      "outputs": [
        {
          "internalType": "string",
          "name": "",
          "type": "string"
        }
      ],
      "payable": true,
      "stateMutability": "payable",
      "type": "function"
    },
    {
      "constant": false,
      "inputs": [
        {
          "internalType": "uint256",
          "name": "randomNumber",
          "type": "uint256"
        },
        {
          "internalType": "bytes32",
          "name": "queryId",
          "type": "bytes32"
        },
        {
          "internalType": "string",
          "name": "_result",
          "type": "string"
        },
        {
          "internalType": "bytes",
          "name": "_proof",
          "type": "bytes"
        }
      ],
      "name": "callbackFunction",
      "outputs": [],
      "payable": false,
      "stateMutability": "nonpayable",
      "type": "function"
    }
  ],
  "bytecode": "0x60806040526000600760006101000a81548160ff021916908315150217905550336000806101000a81548173ffffffffffffffffffffffffffffffffffffffff021916908373ffffffffffffffffffffffffffffffffffffffff1602179055506200006f6200007560201b60201c565b62001fa2565b6000809050600062030d40905060006200009883600184620000eb60201b60201c565b90507f94f2559b5e2b297de3db1587daf2352e872ada3dad01dab9ee3733592fa22ed360405180806020018281038252603c81526020018062004aa0603c913960400191505060405180910390a1505050565b60008083118015620000fe575060208311155b6200010857600080fd5b600a84029350606060016040519080825280601f01601f191660200182016040528015620001455781602001600182028038833980820191505090505b5090508360f81b816000815181106200015a57fe5b60200101907effffffffffffffffffffffffffffffffffffffffffffffffffffffffffffff1916908160001a905350606060206040519080825280601f01601f191660200182016040528015620001c05781602001600182028038833980820191505090505b509050606060206040519080825280601f01601f191660200182016040528015620001fa5781602001600182028038833980820191505090505b50905060006200020f620006be60201b60201c565b905060208352424118600143034018602084015260208252806020830152606060206040519080825280601f01601f191660200182016040528015620002645781602001600182028038833980820191505090505b509050886020820152606060086040519080825280601f01601f191660200182016040528015620002a45781602001600182028038833980820191505090505b509050620002bf8260186008846000620009fa60201b60201c565b50620002ca62001eb1565b60405180608001604052808781526020018881526020018681526020018481525090506000620003376040518060400160405280600681526020017f72616e646f6d0000000000000000000000000000000000000000000000000000815250838c62000a5c60201b60201c565b9050606060086040519080825280601f01601f191660200182016040528015620003705781602001600182028038833980820191505090505b50905060208401517f0100000000000000000000000000000000000000000000000000000000000000810460278301537e01000000000000000000000000000000000000000000000000000000000000810460268301537d010000000000000000000000000000000000000000000000000000000000810460258301537c0100000000000000000000000000000000000000000000000000000000810460248301537b01000000000000000000000000000000000000000000000000000000810460238301537a010000000000000000000000000000000000000000000000000000810460228301537901000000000000000000000000000000000000000000000000008104602183015378010000000000000000000000000000000000000000000000008104602083015350620006ab828285600160048110620004b157fe5b6020020151600287600060048110620004c657fe5b60200201516040518082805190602001908083835b60208310620005005780518252602082019150602081019050602083039250620004db565b6001836020036101000a038019825116818451168082178552505050505050905001915050602060405180830381855afa15801562000543573d6000803e3d6000fd5b5050506040513d60208110156200055957600080fd5b8101908080519060200190929190505050876002600481106200057857fe5b60200201516040516020018085805190602001908083835b60208310620005b5578051825260208201915060208101905060208303925062000590565b6001836020036101000a03801982511681845116808217855250505050505090500184805190602001908083835b60208310620006085780518252602082019150602081019050602083039250620005e3565b6001836020036101000a03801982511681845116808217855250505050505090500183815260200182805190602001908083835b602083106200066157805182526020820191506020810190506020830392506200063c565b6001836020036101000a0380198251168184511680821785525050505050509050019450505050506040516020818303038152906040528051906020012062000df660201b60201c565b8199505050505050505050509392505050565b60008073ffffffffffffffffffffffffffffffffffffffff16600260009054906101000a900473ffffffffffffffffffffffffffffffffffffffff1673ffffffffffffffffffffffffffffffffffffffff1614806200074f575060006200074d600260009054906101000a900473ffffffffffffffffffffffffffffffffffffffff1662000e1260201b60201c565b145b15620007695762000767600062000e1d60201b60201c565b505b600260009054906101000a900473ffffffffffffffffffffffffffffffffffffffff1673ffffffffffffffffffffffffffffffffffffffff166338cc48316040518163ffffffff1660e01b8152600401602060405180830381600087803b158015620007d457600080fd5b505af1158015620007e9573d6000803e3d6000fd5b505050506040513d60208110156200080057600080fd5b810190808051906020019092919050505073ffffffffffffffffffffffffffffffffffffffff16600160009054906101000a900473ffffffffffffffffffffffffffffffffffffffff1673ffffffffffffffffffffffffffffffffffffffff16146200094f57600260009054906101000a900473ffffffffffffffffffffffffffffffffffffffff1673ffffffffffffffffffffffffffffffffffffffff166338cc48316040518163ffffffff1660e01b8152600401602060405180830381600087803b158015620008d157600080fd5b505af1158015620008e6573d6000803e3d6000fd5b505050506040513d6020811015620008fd57600080fd5b8101908080519060200190929190505050600160006101000a81548173ffffffffffffffffffffffffffffffffffffffff021916908373ffffffffffffffffffffffffffffffffffffffff1602179055505b600160009054906101000a900473ffffffffffffffffffffffffffffffffffffffff1673ffffffffffffffffffffffffffffffffffffffff1663abaa5f3e6040518163ffffffff1660e01b815260040160206040518083038186803b158015620009b857600080fd5b505afa158015620009cd573d6000803e3d6000fd5b505050506040513d6020811015620009e457600080fd5b8101908080519060200190929190505050905090565b606060008285019050808451101562000a1257600080fd5b600086602001905060008460200190505b86886020010182101562000a4d578189015180828801525060208201915060208101905062000a23565b85935050505095945050505050565b60008073ffffffffffffffffffffffffffffffffffffffff16600260009054906101000a900473ffffffffffffffffffffffffffffffffffffffff1673ffffffffffffffffffffffffffffffffffffffff16148062000aed5750600062000aeb600260009054906101000a900473ffffffffffffffffffffffffffffffffffffffff1662000e1260201b60201c565b145b1562000b075762000b05600062000e1d60201b60201c565b505b600260009054906101000a900473ffffffffffffffffffffffffffffffffffffffff1673ffffffffffffffffffffffffffffffffffffffff166338cc48316040518163ffffffff1660e01b8152600401602060405180830381600087803b15801562000b7257600080fd5b505af115801562000b87573d6000803e3d6000fd5b505050506040513d602081101562000b9e57600080fd5b810190808051906020019092919050505073ffffffffffffffffffffffffffffffffffffffff16600160009054906101000a900473ffffffffffffffffffffffffffffffffffffffff1673ffffffffffffffffffffffffffffffffffffffff161462000ced57600260009054906101000a900473ffffffffffffffffffffffffffffffffffffffff1673ffffffffffffffffffffffffffffffffffffffff166338cc48316040518163ffffffff1660e01b8152600401602060405180830381600087803b15801562000c6f57600080fd5b505af115801562000c84573d6000803e3d6000fd5b505050506040513d602081101562000c9b57600080fd5b8101908080519060200190929190505050600160006101000a81548173ffffffffffffffffffffffffffffffffffffffff021916908373ffffffffffffffffffffffffffffffffffffffff1602179055505b6060600460405190808252806020026020018201604052801562000d2657816020015b606081526020019060019003908162000d105790505b5090508360006004811062000d3757fe5b60200201518160008151811062000d4a57fe5b60200260200101819052508360016004811062000d6357fe5b60200201518160018151811062000d7657fe5b60200260200101819052508360026004811062000d8f57fe5b60200201518160028151811062000da257fe5b60200260200101819052508360036004811062000dbb57fe5b60200201518160038151811062000dce57fe5b602002602001018190525062000dec85828562000e3660201b60201c565b9150509392505050565b8060046000848152602001908152602001600020819055505050565b6000813b9050919050565b600062000e2f620013ce60201b60201c565b9050919050565b60008073ffffffffffffffffffffffffffffffffffffffff16600260009054906101000a900473ffffffffffffffffffffffffffffffffffffffff1673ffffffffffffffffffffffffffffffffffffffff16148062000ec75750600062000ec5600260009054906101000a900473ffffffffffffffffffffffffffffffffffffffff1662000e1260201b60201c565b145b1562000ee15762000edf600062000e1d60201b60201c565b505b600260009054906101000a900473ffffffffffffffffffffffffffffffffffffffff1673ffffffffffffffffffffffffffffffffffffffff166338cc48316040518163ffffffff1660e01b8152600401602060405180830381600087803b15801562000f4c57600080fd5b505af115801562000f61573d6000803e3d6000fd5b505050506040513d602081101562000f7857600080fd5b810190808051906020019092919050505073ffffffffffffffffffffffffffffffffffffffff16600160009054906101000a900473ffffffffffffffffffffffffffffffffffffffff1673ffffffffffffffffffffffffffffffffffffffff1614620010c757600260009054906101000a900473ffffffffffffffffffffffffffffffffffffffff1673ffffffffffffffffffffffffffffffffffffffff166338cc48316040518163ffffffff1660e01b8152600401602060405180830381600087803b1580156200104957600080fd5b505af11580156200105e573d6000803e3d6000fd5b505050506040513d60208110156200107557600080fd5b8101908080519060200190929190505050600160006101000a81548173ffffffffffffffffffffffffffffffffffffffff021916908373ffffffffffffffffffffffffffffffffffffffff1602179055505b6000600160009054906101000a900473ffffffffffffffffffffffffffffffffffffffff1673ffffffffffffffffffffffffffffffffffffffff16632ef3accc86856040518363ffffffff1660e01b81526004018080602001838152602001828103825284818151815260200191508051906020019080838360005b838110156200116057808201518184015260208101905062001143565b50505050905090810190601f1680156200118e5780820380516001836020036101000a031916815260200191505b509350505050602060405180830381600087803b158015620011af57600080fd5b505af1158015620011c4573d6000803e3d6000fd5b505050506040513d6020811015620011db57600080fd5b81019080805190602001909291905050509050823a02670de0b6b3a76400000181111562001210576000801b915050620013c7565b606062001223856200199d60201b60201c565b9050600160009054906101000a900473ffffffffffffffffffffffffffffffffffffffff1673ffffffffffffffffffffffffffffffffffffffff1663c55c1cb68360008985896040518663ffffffff1660e01b8152600401808581526020018060200180602001848152602001838103835286818151815260200191508051906020019080838360005b83811015620012ca578082015181840152602081019050620012ad565b50505050905090810190601f168015620012f85780820380516001836020036101000a031916815260200191505b50838103825285818151815260200191508051906020019080838360005b838110156200133357808201518184015260208101905062001316565b50505050905090810190601f168015620013615780820380516001836020036101000a031916815260200191505b5096505050505050506020604051808303818588803b1580156200138457600080fd5b505af115801562001399573d6000803e3d6000fd5b50505050506040513d6020811015620013b157600080fd5b8101908080519060200190929190505050925050505b9392505050565b600080620013f6731d3b2638a7cc9f2cb3d298a3da7a90b67e5506ed62000e1260201b60201c565b1115620014a257731d3b2638a7cc9f2cb3d298a3da7a90b67e5506ed600260006101000a81548173ffffffffffffffffffffffffffffffffffffffff021916908373ffffffffffffffffffffffffffffffffffffffff160217905550620014986040518060400160405280600b81526020017f6574685f6d61696e6e657400000000000000000000000000000000000000000081525062001a5860201b60201c565b600190506200199a565b6000620014c973c03a2615d5efaf5f49f60b7bb6583eaec212fdf162000e1260201b60201c565b1115620015755773c03a2615d5efaf5f49f60b7bb6583eaec212fdf1600260006101000a81548173ffffffffffffffffffffffffffffffffffffffff021916908373ffffffffffffffffffffffffffffffffffffffff1602179055506200156b6040518060400160405280600c81526020017f6574685f726f707374656e33000000000000000000000000000000000000000081525062001a5860201b60201c565b600190506200199a565b60006200159c73b7a07bcf2ba2f2703b24c0691b5278999c59ac7e62000e1260201b60201c565b1115620016485773b7a07bcf2ba2f2703b24c0691b5278999c59ac7e600260006101000a81548173ffffffffffffffffffffffffffffffffffffffff021916908373ffffffffffffffffffffffffffffffffffffffff1602179055506200163e6040518060400160405280600981526020017f6574685f6b6f76616e000000000000000000000000000000000000000000000081525062001a5860201b60201c565b600190506200199a565b60006200166f73146500cfd35b22e4a392fe0adc06de1a1368ed4862000e1260201b60201c565b11156200171b5773146500cfd35b22e4a392fe0adc06de1a1368ed48600260006101000a81548173ffffffffffffffffffffffffffffffffffffffff021916908373ffffffffffffffffffffffffffffffffffffffff160217905550620017116040518060400160405280600b81526020017f6574685f72696e6b65627900000000000000000000000000000000000000000081525062001a5860201b60201c565b600190506200199a565b60006200174273a2998efd205fb9d4b4963afb70778d6354ad3a4162000e1260201b60201c565b1115620017ee5773a2998efd205fb9d4b4963afb70778d6354ad3a41600260006101000a81548173ffffffffffffffffffffffffffffffffffffffff021916908373ffffffffffffffffffffffffffffffffffffffff160217905550620017e46040518060400160405280600a81526020017f6574685f676f65726c690000000000000000000000000000000000000000000081525062001a5860201b60201c565b600190506200199a565b600062001815736f485c8bf6fc43ea212e93bbf8ce046c7f1cb47562000e1260201b60201c565b11156200187b57736f485c8bf6fc43ea212e93bbf8ce046c7f1cb475600260006101000a81548173ffffffffffffffffffffffffffffffffffffffff021916908373ffffffffffffffffffffffffffffffffffffffff160217905550600190506200199a565b6000620018a27320e12a1f859b3feae5fb2a0a32c18f5a65555bbf62000e1260201b60201c565b111562001908577320e12a1f859b3feae5fb2a0a32c18f5a65555bbf600260006101000a81548173ffffffffffffffffffffffffffffffffffffffff021916908373ffffffffffffffffffffffffffffffffffffffff160217905550600190506200199a565b60006200192f7351efaf4c8b3c9afbd5ab9f4bbc82784ab6ef8faa62000e1260201b60201c565b111562001995577351efaf4c8b3c9afbd5ab9f4bbc82784ab6ef8faa600260006101000a81548173ffffffffffffffffffffffffffffffffffffffff021916908373ffffffffffffffffffffffffffffffffffffffff160217905550600190506200199a565b600090505b90565b6060620019af62001a7460201b60201c565b620019b962001ed9565b620019d28161040062001a8060201b6200261a1760201c565b620019e88162001acd60201b620026641760201c565b60008090505b835181101562001a345762001a2684828151811062001a0957fe5b60200260200101518362001ae360201b620026721790919060201c565b8080600101915050620019ee565b5062001a4b8162001b1760201b620026971760201c565b8060000151915050919050565b806003908051906020019062001a7092919062001ef3565b5050565b60405180590338823950565b600081905060006020828162001a9257fe5b061462001aad576020818162001aa457fe5b06602003810190505b808360200181815250506040518084526000815281810160405250505050565b62001ae081600462001b2d60201b60201c565b50565b62001af8826002835162001b5560201b60201c565b62001b12818362001cdd60201b620028061790919060201c565b505050565b62001b2a81600762001b2d60201b60201c565b50565b62001b51601f60058360ff16901b178362001d9d60201b620028b11790919060201c565b5050565b6017811162001b8a5762001b848160058460ff16901b60ff16178462001d9d60201b620028b11790919060201c565b62001cd8565b60ff811162001bdb5762001bb7601860058460ff16901b178462001d9d60201b620028b11790919060201c565b62001bd48160018562001de660201b620028f1179092919060201c565b5062001cd7565b61ffff811162001c2d5762001c09601960058460ff16901b178462001d9d60201b620028b11790919060201c565b62001c268160028562001de660201b620028f1179092919060201c565b5062001cd6565b63ffffffff811162001c815762001c5d601a60058460ff16901b178462001d9d60201b620028b11790919060201c565b62001c7a8160048562001de660201b620028f1179092919060201c565b5062001cd5565b67ffffffffffffffff811162001cd45762001cb5601b60058460ff16901b178462001d9d60201b620028b11790919060201c565b62001cd28160088562001de660201b620028f1179092919060201c565b505b5b5b5b5b505050565b62001ce762001ed9565b8260200151836000015151835101111562001d285762001d2783600262001d1a8660200151865162001e6060201b60201c565b0262001e7e60201b60201c565b5b60008060008451905085518051602081830101945086518101825260208701935050505b6020811062001d71578151835260208301925060208201915060208103905062001d4c565b60006001826020036101000a039050801983511681855116818117865250508694505050505092915050565b8160200151600183600001515101111562001dcc5762001dcb82600284602001510262001e7e60201b60201c565b5b815180516020818301018381536001820183525050505050565b62001df062001ed9565b83602001518460000151518301111562001e2f5762001e2e84600262001e2187602001518662001e6060201b60201c565b0262001e7e60201b60201c565b5b60006001836101000a0390508451805184818301018684198251161781528582018352505050849150509392505050565b60008183111562001e745782905062001e78565b8190505b92915050565b60608260000151905062001e99838362001a8060201b60201c565b62001eab838262001cdd60201b60201c565b50505050565b60405180608001604052806004905b606081526020019060019003908162001ec05790505090565b604051806040016040528060608152602001600081525090565b828054600181600116156101000203166002900490600052602060002090601f016020900481019282601f1062001f3657805160ff191683800117855562001f67565b8280016001018555821562001f67579182015b8281111562001f6657825182559160200191906001019062001f49565b5b50905062001f76919062001f7a565b5090565b62001f9f91905b8082111562001f9b57600081600090555060010162001f81565b5090565b90565b612aee8062001fb26000396000f3fe60806040526004361061009c5760003560e01c80637365870b116100645780637365870b146104a5578063853828b61461054c5780638da5cb5b14610577578063a2e62045146105ce578063bd097e21146105d8578063dc34b0aa146105e25761009c565b806312065fe0146100a157806327dc297e146100cc57806338bbfa501461019e5780635ec01e4d146103075780635ef4651214610332575b600080fd5b3480156100ad57600080fd5b506100b661060d565b6040518082815260200191505060405180910390f35b3480156100d857600080fd5b5061019c600480360360408110156100ef57600080fd5b81019080803590602001909291908035906020019064010000000081111561011657600080fd5b82018360208201111561012857600080fd5b8035906020019184600183028401116401000000008311171561014a57600080fd5b91908080601f016020809104026020016040519081016040528093929190818152602001838380828437600081840152601f19601f82011690508083019250505050505050919291929050505061062c565b005b3480156101aa57600080fd5b50610305600480360360608110156101c157600080fd5b8101908080359060200190929190803590602001906401000000008111156101e857600080fd5b8201836020820111156101fa57600080fd5b8035906020019184600183028401116401000000008311171561021c57600080fd5b91908080601f016020809104026020016040519081016040528093929190818152602001838380828437600081840152601f19601f8201169050808301925050505050505091929192908035906020019064010000000081111561027f57600080fd5b82018360208201111561029157600080fd5b803590602001918460018302840111640100000000831117156102b357600080fd5b91908080601f016020809104026020016040519081016040528093929190818152602001838380828437600081840152601f19601f82011690508083019250505050505050919291929050505061066f565b005b34801561031357600080fd5b5061031c610797565b6040518082815260200191505060405180910390f35b34801561033e57600080fd5b506104a36004803603608081101561035557600080fd5b8101908080359060200190929190803590602001909291908035906020019064010000000081111561038657600080fd5b82018360208201111561039857600080fd5b803590602001918460018302840111640100000000831117156103ba57600080fd5b91908080601f016020809104026020016040519081016040528093929190818152602001838380828437600081840152601f19601f8201169050808301925050505050505091929192908035906020019064010000000081111561041d57600080fd5b82018360208201111561042f57600080fd5b8035906020019184600183028401116401000000008311171561045157600080fd5b91908080601f016020809104026020016040519081016040528093929190818152602001838380828437600081840152601f19601f8201169050808301925050505050505091929192905050506107a9565b005b6104d1600480360360208110156104bb57600080fd5b81019080803590602001909291905050506107af565b6040518080602001828103825283818151815260200191508051906020019080838360005b838110156105115780820151818401526020810190506104f6565b50505050905090810190601f16801561053e5780820380516001836020036101000a031916815260200191505b509250505060405180910390f35b34801561055857600080fd5b50610561610949565b6040518082815260200191505060405180910390f35b34801561058357600080fd5b5061058c6109fe565b604051808273ffffffffffffffffffffffffffffffffffffffff1673ffffffffffffffffffffffffffffffffffffffff16815260200191505060405180910390f35b6105d6610a23565b005b6105e0610a90565b005b3480156105ee57600080fd5b506105f7610ad0565b6040518082815260200191505060405180910390f35b60003073ffffffffffffffffffffffffffffffffffffffff1631905090565b61066b828260006040519080825280601f01601f1916602001820160405280156106655781602001600182028038833980820191505090505b5061066f565b5050565b610677610ad6565b73ffffffffffffffffffffffffffffffffffffffff163373ffffffffffffffffffffffffffffffffffffffff16146106ae57600080fd5b60006064836040516020018082805190602001908083835b602083106106e957805182526020820191506020810190506020830392506106c6565b6001836020036101000a0380198251168184511680821785525050505050509050019150506040516020818303038152906040528051906020012060001c8161072e57fe5b069050806006819055507fc13d60fe9dffdb6908d2d446cd18134373a51db0738ee04f296eeb9128121cbc816040518082815260200191505060405180910390a1600760009054906101000a900460ff161561079157610790818585856107a9565b5b50505050565b6000600242816107a357fe5b06905090565b50505050565b606066038d7ea4c68000803410156107c657600080fd5b60606040518060400160405280600881526020017f596f75206c6f73650000000000000000000000000000000000000000000000008152509050600034905061080d610797565b85141561089a576040518060400160405280600781526020017f596f752077696e0000000000000000000000000000000000000000000000000081525091506002810290503373ffffffffffffffffffffffffffffffffffffffff166108fc829081150290604051600060405180830381858888f19350505050158015610898573d6000803e3d6000fd5b505b7f2c5df7a52df69a724e8ddcb1544bcdbb56fed717e9cd93fcee1819256d5c8ab982826040518080602001838152602001828103825284818151815260200191508051906020019080838360005b838110156109035780820151818401526020810190506108e8565b50505050905090810190601f1680156109305780820380516001836020036101000a031916815260200191505b50935050505060405180910390a1819350505050919050565b60008060009054906101000a900473ffffffffffffffffffffffffffffffffffffffff1673ffffffffffffffffffffffffffffffffffffffff163373ffffffffffffffffffffffffffffffffffffffff16146109a457600080fd5b60006109ae61060d565b90503373ffffffffffffffffffffffffffffffffffffffff166108fc829081150290604051600060405180830381858888f193505050501580156109f6573d6000803e3d6000fd5b508091505090565b6000809054906101000a900473ffffffffffffffffffffffffffffffffffffffff1681565b6000809050600062030d4090506000610a3e83600184610df6565b90507f94f2559b5e2b297de3db1587daf2352e872ada3dad01dab9ee3733592fa22ed360405180806020018281038252603c815260200180612a7e603c913960400191505060405180910390a1505050565b7ff178429116095c7a6f2d351340cc8eb2a9ba2d5552de04cfda071fced46c6729610ab961060d565b6040518082815260200191505060405180910390a1565b60065481565b60008073ffffffffffffffffffffffffffffffffffffffff16600260009054906101000a900473ffffffffffffffffffffffffffffffffffffffff1673ffffffffffffffffffffffffffffffffffffffff161480610b5e57506000610b5c600260009054906101000a900473ffffffffffffffffffffffffffffffffffffffff16611391565b145b15610b6f57610b6d600061139c565b505b600260009054906101000a900473ffffffffffffffffffffffffffffffffffffffff1673ffffffffffffffffffffffffffffffffffffffff166338cc48316040518163ffffffff1660e01b8152600401602060405180830381600087803b158015610bd957600080fd5b505af1158015610bed573d6000803e3d6000fd5b505050506040513d6020811015610c0357600080fd5b810190808051906020019092919050505073ffffffffffffffffffffffffffffffffffffffff16600160009054906101000a900473ffffffffffffffffffffffffffffffffffffffff1673ffffffffffffffffffffffffffffffffffffffff1614610d4e57600260009054906101000a900473ffffffffffffffffffffffffffffffffffffffff1673ffffffffffffffffffffffffffffffffffffffff166338cc48316040518163ffffffff1660e01b8152600401602060405180830381600087803b158015610cd257600080fd5b505af1158015610ce6573d6000803e3d6000fd5b505050506040513d6020811015610cfc57600080fd5b8101908080519060200190929190505050600160006101000a81548173ffffffffffffffffffffffffffffffffffffffff021916908373ffffffffffffffffffffffffffffffffffffffff1602179055505b600160009054906101000a900473ffffffffffffffffffffffffffffffffffffffff1673ffffffffffffffffffffffffffffffffffffffff1663c281d19e6040518163ffffffff1660e01b815260040160206040518083038186803b158015610db657600080fd5b505afa158015610dca573d6000803e3d6000fd5b505050506040513d6020811015610de057600080fd5b8101908080519060200190929190505050905090565b60008083118015610e08575060208311155b610e1157600080fd5b600a84029350606060016040519080825280601f01601f191660200182016040528015610e4d5781602001600182028038833980820191505090505b5090508360f81b81600081518110610e6157fe5b60200101907effffffffffffffffffffffffffffffffffffffffffffffffffffffffffffff1916908160001a905350606060206040519080825280601f01601f191660200182016040528015610ec65781602001600182028038833980820191505090505b509050606060206040519080825280601f01601f191660200182016040528015610eff5781602001600182028038833980820191505090505b5090506000610f0c6113ad565b905060208352424118600143034018602084015260208252806020830152606060206040519080825280601f01601f191660200182016040528015610f605781602001600182028038833980820191505090505b509050886020820152606060086040519080825280601f01601f191660200182016040528015610f9f5781602001600182028038833980820191505090505b509050610fb282601860088460006116cd565b50610fbb612997565b604051806080016040528087815260200188815260200186815260200184815250905060006110206040518060400160405280600681526020017f72616e646f6d0000000000000000000000000000000000000000000000000000815250838c61172c565b9050606060086040519080825280601f01601f1916602001820160405280156110585781602001600182028038833980820191505090505b50905060208401517f0100000000000000000000000000000000000000000000000000000000000000810460278301537e01000000000000000000000000000000000000000000000000000000000000810460268301537d010000000000000000000000000000000000000000000000000000000000810460258301537c0100000000000000000000000000000000000000000000000000000000810460248301537b01000000000000000000000000000000000000000000000000000000810460238301537a01000000000000000000000000000000000000000000000000000081046022830153790100000000000000000000000000000000000000000000000000810460218301537801000000000000000000000000000000000000000000000000810460208301535061137e82828560016004811061119757fe5b60200201516002876000600481106111ab57fe5b60200201516040518082805190602001908083835b602083106111e357805182526020820191506020810190506020830392506111c0565b6001836020036101000a038019825116818451168082178552505050505050905001915050602060405180830381855afa158015611225573d6000803e3d6000fd5b5050506040513d602081101561123a57600080fd5b81019080805190602001909291905050508760026004811061125857fe5b60200201516040516020018085805190602001908083835b602083106112935780518252602082019150602081019050602083039250611270565b6001836020036101000a03801982511681845116808217855250505050505090500184805190602001908083835b602083106112e457805182526020820191506020810190506020830392506112c1565b6001836020036101000a03801982511681845116808217855250505050505090500183815260200182805190602001908083835b6020831061133b5780518252602082019150602081019050602083039250611318565b6001836020036101000a03801982511681845116808217855250505050505090500194505050505060405160208183030381529060405280519060200120611a9b565b8199505050505050505050509392505050565b6000813b9050919050565b60006113a6611ab7565b9050919050565b60008073ffffffffffffffffffffffffffffffffffffffff16600260009054906101000a900473ffffffffffffffffffffffffffffffffffffffff1673ffffffffffffffffffffffffffffffffffffffff16148061143557506000611433600260009054906101000a900473ffffffffffffffffffffffffffffffffffffffff16611391565b145b1561144657611444600061139c565b505b600260009054906101000a900473ffffffffffffffffffffffffffffffffffffffff1673ffffffffffffffffffffffffffffffffffffffff166338cc48316040518163ffffffff1660e01b8152600401602060405180830381600087803b1580156114b057600080fd5b505af11580156114c4573d6000803e3d6000fd5b505050506040513d60208110156114da57600080fd5b810190808051906020019092919050505073ffffffffffffffffffffffffffffffffffffffff16600160009054906101000a900473ffffffffffffffffffffffffffffffffffffffff1673ffffffffffffffffffffffffffffffffffffffff161461162557600260009054906101000a900473ffffffffffffffffffffffffffffffffffffffff1673ffffffffffffffffffffffffffffffffffffffff166338cc48316040518163ffffffff1660e01b8152600401602060405180830381600087803b1580156115a957600080fd5b505af11580156115bd573d6000803e3d6000fd5b505050506040513d60208110156115d357600080fd5b8101908080519060200190929190505050600160006101000a81548173ffffffffffffffffffffffffffffffffffffffff021916908373ffffffffffffffffffffffffffffffffffffffff1602179055505b600160009054906101000a900473ffffffffffffffffffffffffffffffffffffffff1673ffffffffffffffffffffffffffffffffffffffff1663abaa5f3e6040518163ffffffff1660e01b815260040160206040518083038186803b15801561168d57600080fd5b505afa1580156116a1573d6000803e3d6000fd5b505050506040513d60208110156116b757600080fd5b8101908080519060200190929190505050905090565b60606000828501905080845110156116e457600080fd5b600086602001905060008460200190505b86886020010182101561171d57818901518082880152506020820191506020810190506116f5565b85935050505095945050505050565b60008073ffffffffffffffffffffffffffffffffffffffff16600260009054906101000a900473ffffffffffffffffffffffffffffffffffffffff1673ffffffffffffffffffffffffffffffffffffffff1614806117b4575060006117b2600260009054906101000a900473ffffffffffffffffffffffffffffffffffffffff16611391565b145b156117c5576117c3600061139c565b505b600260009054906101000a900473ffffffffffffffffffffffffffffffffffffffff1673ffffffffffffffffffffffffffffffffffffffff166338cc48316040518163ffffffff1660e01b8152600401602060405180830381600087803b15801561182f57600080fd5b505af1158015611843573d6000803e3d6000fd5b505050506040513d602081101561185957600080fd5b810190808051906020019092919050505073ffffffffffffffffffffffffffffffffffffffff16600160009054906101000a900473ffffffffffffffffffffffffffffffffffffffff1673ffffffffffffffffffffffffffffffffffffffff16146119a457600260009054906101000a900473ffffffffffffffffffffffffffffffffffffffff1673ffffffffffffffffffffffffffffffffffffffff166338cc48316040518163ffffffff1660e01b8152600401602060405180830381600087803b15801561192857600080fd5b505af115801561193c573d6000803e3d6000fd5b505050506040513d602081101561195257600080fd5b8101908080519060200190929190505050600160006101000a81548173ffffffffffffffffffffffffffffffffffffffff021916908373ffffffffffffffffffffffffffffffffffffffff1602179055505b606060046040519080825280602002602001820160405280156119db57816020015b60608152602001906001900390816119c65790505b509050836000600481106119eb57fe5b6020020151816000815181106119fd57fe5b602002602001018190525083600160048110611a1557fe5b602002015181600181518110611a2757fe5b602002602001018190525083600260048110611a3f57fe5b602002015181600281518110611a5157fe5b602002602001018190525083600360048110611a6957fe5b602002015181600381518110611a7b57fe5b6020026020010181905250611a9185828561200e565b9150509392505050565b8060046000848152602001908152602001600020819055505050565b600080611ad7731d3b2638a7cc9f2cb3d298a3da7a90b67e5506ed611391565b1115611b7957731d3b2638a7cc9f2cb3d298a3da7a90b67e5506ed600260006101000a81548173ffffffffffffffffffffffffffffffffffffffff021916908373ffffffffffffffffffffffffffffffffffffffff160217905550611b706040518060400160405280600b81526020017f6574685f6d61696e6e6574000000000000000000000000000000000000000000815250612574565b6001905061200b565b6000611b9873c03a2615d5efaf5f49f60b7bb6583eaec212fdf1611391565b1115611c3a5773c03a2615d5efaf5f49f60b7bb6583eaec212fdf1600260006101000a81548173ffffffffffffffffffffffffffffffffffffffff021916908373ffffffffffffffffffffffffffffffffffffffff160217905550611c316040518060400160405280600c81526020017f6574685f726f707374656e330000000000000000000000000000000000000000815250612574565b6001905061200b565b6000611c5973b7a07bcf2ba2f2703b24c0691b5278999c59ac7e611391565b1115611cfb5773b7a07bcf2ba2f2703b24c0691b5278999c59ac7e600260006101000a81548173ffffffffffffffffffffffffffffffffffffffff021916908373ffffffffffffffffffffffffffffffffffffffff160217905550611cf26040518060400160405280600981526020017f6574685f6b6f76616e0000000000000000000000000000000000000000000000815250612574565b6001905061200b565b6000611d1a73146500cfd35b22e4a392fe0adc06de1a1368ed48611391565b1115611dbc5773146500cfd35b22e4a392fe0adc06de1a1368ed48600260006101000a81548173ffffffffffffffffffffffffffffffffffffffff021916908373ffffffffffffffffffffffffffffffffffffffff160217905550611db36040518060400160405280600b81526020017f6574685f72696e6b656279000000000000000000000000000000000000000000815250612574565b6001905061200b565b6000611ddb73a2998efd205fb9d4b4963afb70778d6354ad3a41611391565b1115611e7d5773a2998efd205fb9d4b4963afb70778d6354ad3a41600260006101000a81548173ffffffffffffffffffffffffffffffffffffffff021916908373ffffffffffffffffffffffffffffffffffffffff160217905550611e746040518060400160405280600a81526020017f6574685f676f65726c6900000000000000000000000000000000000000000000815250612574565b6001905061200b565b6000611e9c736f485c8bf6fc43ea212e93bbf8ce046c7f1cb475611391565b1115611f0057736f485c8bf6fc43ea212e93bbf8ce046c7f1cb475600260006101000a81548173ffffffffffffffffffffffffffffffffffffffff021916908373ffffffffffffffffffffffffffffffffffffffff1602179055506001905061200b565b6000611f1f7320e12a1f859b3feae5fb2a0a32c18f5a65555bbf611391565b1115611f83577320e12a1f859b3feae5fb2a0a32c18f5a65555bbf600260006101000a81548173ffffffffffffffffffffffffffffffffffffffff021916908373ffffffffffffffffffffffffffffffffffffffff1602179055506001905061200b565b6000611fa27351efaf4c8b3c9afbd5ab9f4bbc82784ab6ef8faa611391565b1115612006577351efaf4c8b3c9afbd5ab9f4bbc82784ab6ef8faa600260006101000a81548173ffffffffffffffffffffffffffffffffffffffff021916908373ffffffffffffffffffffffffffffffffffffffff1602179055506001905061200b565b600090505b90565b60008073ffffffffffffffffffffffffffffffffffffffff16600260009054906101000a900473ffffffffffffffffffffffffffffffffffffffff1673ffffffffffffffffffffffffffffffffffffffff16148061209657506000612094600260009054906101000a900473ffffffffffffffffffffffffffffffffffffffff16611391565b145b156120a7576120a5600061139c565b505b600260009054906101000a900473ffffffffffffffffffffffffffffffffffffffff1673ffffffffffffffffffffffffffffffffffffffff166338cc48316040518163ffffffff1660e01b8152600401602060405180830381600087803b15801561211157600080fd5b505af1158015612125573d6000803e3d6000fd5b505050506040513d602081101561213b57600080fd5b810190808051906020019092919050505073ffffffffffffffffffffffffffffffffffffffff16600160009054906101000a900473ffffffffffffffffffffffffffffffffffffffff1673ffffffffffffffffffffffffffffffffffffffff161461228657600260009054906101000a900473ffffffffffffffffffffffffffffffffffffffff1673ffffffffffffffffffffffffffffffffffffffff166338cc48316040518163ffffffff1660e01b8152600401602060405180830381600087803b15801561220a57600080fd5b505af115801561221e573d6000803e3d6000fd5b505050506040513d602081101561223457600080fd5b8101908080519060200190929190505050600160006101000a81548173ffffffffffffffffffffffffffffffffffffffff021916908373ffffffffffffffffffffffffffffffffffffffff1602179055505b6000600160009054906101000a900473ffffffffffffffffffffffffffffffffffffffff1673ffffffffffffffffffffffffffffffffffffffff16632ef3accc86856040518363ffffffff1660e01b81526004018080602001838152602001828103825284818151815260200191508051906020019080838360005b8381101561231d578082015181840152602081019050612302565b50505050905090810190601f16801561234a5780820380516001836020036101000a031916815260200191505b509350505050602060405180830381600087803b15801561236a57600080fd5b505af115801561237e573d6000803e3d6000fd5b505050506040513d602081101561239457600080fd5b81019080805190602001909291905050509050823a02670de0b6b3a7640000018111156123c7576000801b91505061256d565b60606123d28561258e565b9050600160009054906101000a900473ffffffffffffffffffffffffffffffffffffffff1673ffffffffffffffffffffffffffffffffffffffff1663c55c1cb68360008985896040518663ffffffff1660e01b8152600401808581526020018060200180602001848152602001838103835286818151815260200191508051906020019080838360005b8381101561247757808201518184015260208101905061245c565b50505050905090810190601f1680156124a45780820380516001836020036101000a031916815260200191505b50838103825285818151815260200191508051906020019080838360005b838110156124dd5780820151818401526020810190506124c2565b50505050905090810190601f16801561250a5780820380516001836020036101000a031916815260200191505b5096505050505050506020604051808303818588803b15801561252c57600080fd5b505af1158015612540573d6000803e3d6000fd5b50505050506040513d602081101561255757600080fd5b8101908080519060200190929190505050925050505b9392505050565b806003908051906020019061258a9291906129be565b5050565b606061259861260e565b6125a0612a3e565b6125ac8161040061261a565b6125b581612664565b60008090505b83518110156125f7576125ea8482815181106125d357fe5b60200260200101518361267290919063ffffffff16565b80806001019150506125bb565b5061260181612697565b8060000151915050919050565b60405180590338823950565b600081905060006020828161262b57fe5b0614612644576020818161263b57fe5b06602003810190505b808360200181815250506040518084526000815281810160405250505050565b61266f8160046126a5565b50565b61267f82600283516126c6565b612692818361280690919063ffffffff16565b505050565b6126a28160076126a5565b50565b6126c2601f60058360ff16901b17836128b190919063ffffffff16565b5050565b601781116126f2576126ed8160058460ff16901b60ff1617846128b190919063ffffffff16565b612801565b60ff811161273357612717601860058460ff16901b17846128b190919063ffffffff16565b61272d816001856128f19092919063ffffffff16565b50612800565b61ffff811161277557612759601960058460ff16901b17846128b190919063ffffffff16565b61276f816002856128f19092919063ffffffff16565b506127ff565b63ffffffff81116127b95761279d601a60058460ff16901b17846128b190919063ffffffff16565b6127b3816004856128f19092919063ffffffff16565b506127fe565b67ffffffffffffffff81116127fd576127e5601b60058460ff16901b17846128b190919063ffffffff16565b6127fb816008856128f19092919063ffffffff16565b505b5b5b5b5b505050565b61280e612a3e565b8260200151836000015151835101111561283e5761283d83600261283786602001518651612958565b02612974565b5b60008060008451905085518051602081830101945086518101825260208701935050505b602081106128855781518352602083019250602082019150602081039050612862565b60006001826020036101000a039050801983511681855116818117865250508694505050505092915050565b816020015160018360000151510111156128d7576128d6826002846020015102612974565b5b815180516020818301018381536001820183525050505050565b6128f9612a3e565b83602001518460000151518301111561292757612926846002612920876020015186612958565b02612974565b5b60006001836101000a0390508451805184818301018684198251161781528582018352505050849150509392505050565b60008183111561296a5782905061296e565b8190505b92915050565b606082600001519050612987838361261a565b6129918382612806565b50505050565b60405180608001604052806004905b60608152602001906001900390816129a65790505090565b828054600181600116156101000203166002900490600052602060002090601f016020900481019282601f106129ff57805160ff1916838001178555612a2d565b82800160010185558215612a2d579182015b82811115612a2c578251825591602001919060010190612a11565b5b509050612a3a9190612a58565b5090565b604051806040016040528060608152602001600081525090565b612a7a91905b80821115612a76576000816000905550600101612a5e565b5090565b9056fe517565727920666f722072616e646f6d206e756d62657220686173206265656e2073656e742e2057616974696e6720666f7220726573706f6e73652ea265627a7a72315820f5eb9ab8f91c010bb67c4bf4248757084e2f0443672deece585db7a0ca728db764736f6c634300050c0032517565727920666f722072616e646f6d206e756d62657220686173206265656e2073656e742e2057616974696e6720666f7220726573706f6e73652e",
  "source": "import \"./Ownable.sol\";\r\nimport \"./provableRN.sol\";\r\npragma solidity 0.5.12;\r\n\r\ncontract coinFlip is Ownable, provableRN{\r\n\r\n  modifier costs(uint cost){\r\n      require(msg.value >= cost);\r\n      _;\r\n  }\r\n\r\n  event betResult(string _result, uint _value);\r\n  event contractFunded(uint _value);\r\n  // event prize(uint amount);\r\n\r\n  function getBalance() public view returns(uint){\r\n    return address(this).balance;\r\n  }\r\n\r\n  function fundContract() public payable{\r\n    // balance += msg.value;\r\n    emit contractFunded(getBalance());\r\n  }\r\n\r\n  function withdrawAll() public onlyOwner returns(uint) {\r\n      uint toTransfer = getBalance();\r\n      msg.sender.transfer(toTransfer);\r\n      return toTransfer;\r\n  }\r\n\r\n  function random() public view returns(uint){\r\n    return now % 2;\r\n  }\r\n\r\n  function bet(uint answer) public payable costs(0.001 ether)returns(string memory){\r\n    string memory result = \"You lose\";\r\n    uint amount = msg.value;\r\n\r\n    if(answer == random()){\r\n      result = \"You win\";\r\n      amount = amount * 2;\r\n      msg.sender.transfer(amount);\r\n    }\r\n\r\n    emit betResult(result, amount);\r\n    return result;\r\n  }\r\n\r\n  // Function that will be executed after callback by provable oracle.\r\n  function callbackFunction(uint256 randomNumber, bytes32 queryId, string memory _result, bytes memory _proof) public {\r\n    \r\n  }\r\n\r\n}\r\n",
  "sourcePath": "C:/Users/KPD-JIAN/Documents/GitHub/Blockchain/Ethereum/CoinFlip-Dapp/project/contracts/coinFlip.sol",
  "compiler": {
    "name": "solc",
    "version": "0.5.12+commit.7709ece9.Emscripten.clang"
  },
  "schemaVersion": "3.0.16",
  "updatedAt": "2020-11-27T20:25:12.376Z",
  "devdoc": {
    "methods": {
      "__callback(bytes32,string)": {
        "details": "The following `__callback` functions are just placeholders ideally     meant to be defined in child contract when proofs are used.     The function bodies simply silence compiler warnings."
      }
    }
  },
  "userdoc": {
    "methods": {}
  }
}