{
  "contractName": "coinFlip",
  "abi": [
    {
      "anonymous": false,
      "inputs": [
        {
          "indexed": false,
          "internalType": "bytes32",
          "name": "queryId",
          "type": "bytes32"
        },
        {
          "indexed": false,
          "internalType": "string",
          "name": "_result",
          "type": "string"
        },
        {
          "indexed": false,
          "internalType": "uint256",
          "name": "_value",
          "type": "uint256"
        }
      ],
      "name": "betResult",
      "type": "event"
    },
    {
      "anonymous": false,
      "inputs": [
        {
          "indexed": false,
          "internalType": "uint256",
          "name": "_value",
          "type": "uint256"
        }
      ],
      "name": "contractFunded",
      "type": "event"
    },
    {
      "anonymous": false,
      "inputs": [
        {
          "indexed": false,
          "internalType": "uint256",
          "name": "randomNumber",
          "type": "uint256"
        }
      ],
      "name": "generatedRandomNumber",
      "type": "event"
    },
    {
      "anonymous": false,
      "inputs": [
        {
          "indexed": false,
          "internalType": "string",
          "name": "description",
          "type": "string"
        }
      ],
      "name": "logNewProvableQuery",
      "type": "event"
    },
    {
      "constant": true,
      "inputs": [
        {
          "internalType": "bytes32",
          "name": "",
          "type": "bytes32"
        }
      ],
      "name": "historyBets",
      "outputs": [
        {
          "internalType": "bytes32",
          "name": "queryId",
          "type": "bytes32"
        },
        {
          "internalType": "address",
          "name": "player",
          "type": "address"
        },
        {
          "internalType": "uint256",
          "name": "betAmount",
          "type": "uint256"
        },
        {
          "internalType": "uint256",
          "name": "guessNumber",
          "type": "uint256"
        },
        {
          "internalType": "uint256",
          "name": "randomNumber",
          "type": "uint256"
        }
      ],
      "payable": false,
      "stateMutability": "view",
      "type": "function"
    },
    {
      "constant": true,
      "inputs": [],
      "name": "lastQueryID",
      "outputs": [
        {
          "internalType": "bytes32",
          "name": "",
          "type": "bytes32"
        }
      ],
      "payable": false,
      "stateMutability": "view",
      "type": "function"
    },
    {
      "constant": true,
      "inputs": [],
      "name": "moduloRN",
      "outputs": [
        {
          "internalType": "uint256",
          "name": "",
          "type": "uint256"
        }
      ],
      "payable": false,
      "stateMutability": "view",
      "type": "function"
    },
    {
      "constant": true,
      "inputs": [],
      "name": "owner",
      "outputs": [
        {
          "internalType": "address",
          "name": "",
          "type": "address"
        }
      ],
      "payable": false,
      "stateMutability": "view",
      "type": "function"
    },
    {
      "constant": true,
      "inputs": [
        {
          "internalType": "uint256",
          "name": "",
          "type": "uint256"
        }
      ],
      "name": "players",
      "outputs": [
        {
          "internalType": "address",
          "name": "",
          "type": "address"
        }
      ],
      "payable": false,
      "stateMutability": "view",
      "type": "function"
    },
    {
      "constant": true,
      "inputs": [
        {
          "internalType": "address",
          "name": "",
          "type": "address"
        },
        {
          "internalType": "uint256",
          "name": "",
          "type": "uint256"
        }
      ],
      "name": "playersQueryIds",
      "outputs": [
        {
          "internalType": "bytes32",
          "name": "",
          "type": "bytes32"
        }
      ],
      "payable": false,
      "stateMutability": "view",
      "type": "function"
    },
    {
      "constant": true,
      "inputs": [],
      "name": "getBalance",
      "outputs": [
        {
          "internalType": "uint256",
          "name": "",
          "type": "uint256"
        }
      ],
      "payable": false,
      "stateMutability": "view",
      "type": "function"
    },
    {
      "constant": false,
      "inputs": [],
      "name": "fundContract",
      "outputs": [],
      "payable": true,
      "stateMutability": "payable",
      "type": "function"
    },
    {
      "constant": false,
      "inputs": [],
      "name": "withdrawAll",
      "outputs": [
        {
          "internalType": "uint256",
          "name": "",
          "type": "uint256"
        }
      ],
      "payable": false,
      "stateMutability": "nonpayable",
      "type": "function"
    },
    {
      "constant": false,
      "inputs": [
        {
          "internalType": "uint256",
          "name": "guessNumber",
          "type": "uint256"
        }
      ],
      "name": "bet",
      "outputs": [],
      "payable": true,
      "stateMutability": "payable",
      "type": "function"
    },
    {
      "constant": true,
      "inputs": [
        {
          "internalType": "address",
          "name": "player",
          "type": "address"
        }
      ],
      "name": "getQueryIds",
      "outputs": [
        {
          "internalType": "bytes32[]",
          "name": "",
          "type": "bytes32[]"
        }
      ],
      "payable": false,
      "stateMutability": "view",
      "type": "function"
    },
    {
      "constant": true,
      "inputs": [
        {
          "internalType": "bytes32",
          "name": "queryId",
          "type": "bytes32"
        }
      ],
      "name": "getBetInfo",
      "outputs": [
        {
          "internalType": "address",
          "name": "player",
          "type": "address"
        },
        {
          "internalType": "uint256",
          "name": "betAmount",
          "type": "uint256"
        },
        {
          "internalType": "uint256",
          "name": "guessNumber",
          "type": "uint256"
        },
        {
          "internalType": "uint256",
          "name": "randomNumber",
          "type": "uint256"
        }
      ],
      "payable": false,
      "stateMutability": "view",
      "type": "function"
    },
    {
      "constant": true,
      "inputs": [
        {
          "internalType": "uint256",
          "name": "index",
          "type": "uint256"
        }
      ],
      "name": "getPlayer",
      "outputs": [
        {
          "internalType": "address",
          "name": "",
          "type": "address"
        }
      ],
      "payable": false,
      "stateMutability": "view",
      "type": "function"
    },
    {
      "constant": false,
      "inputs": [
        {
          "internalType": "bytes32",
          "name": "_myid",
          "type": "bytes32"
        },
        {
          "internalType": "string",
          "name": "_result",
          "type": "string"
        }
      ],
      "name": "__callback",
      "outputs": [],
      "payable": false,
      "stateMutability": "nonpayable",
      "type": "function"
    },
    {
      "constant": false,
      "inputs": [
        {
          "internalType": "bytes32",
          "name": "queryId",
          "type": "bytes32"
        },
        {
          "internalType": "string",
          "name": "_result",
          "type": "string"
        },
        {
          "internalType": "bytes",
          "name": "_proof",
          "type": "bytes"
        }
      ],
      "name": "__callback",
      "outputs": [],
      "payable": false,
      "stateMutability": "nonpayable",
      "type": "function"
    },
    {
      "constant": false,
      "inputs": [],
      "name": "generateRandomNumber",
      "outputs": [
        {
          "internalType": "bytes32",
          "name": "",
          "type": "bytes32"
        }
      ],
      "payable": true,
      "stateMutability": "payable",
      "type": "function"
    }
  ],
  "bytecode": "0x6080604052600060095562030d40600a556002600b55336000806101000a81548173ffffffffffffffffffffffffffffffffffffffff021916908373ffffffffffffffffffffffffffffffffffffffff160217905550613247806100646000396000f3fe6080604052600436106100f35760003560e01c8063773a11541161008a578063b9b95ca411610059578063b9b95ca414610618578063bd097e21146106be578063e55ae4e8146106c8578063f71d96cb14610743576100f3565b8063773a11541461054d578063842a46ba1461056b578063853828b6146105965780638da5cb5b146105c1576100f3565b80632a7850f1116100c65780632a7850f1146102fb57806338bbfa501461038b578063638b8bb4146104f45780637365870b1461051f576100f3565b80630a6125ec146100f857806312065fe0146101675780631df3233d1461019257806327dc297e14610229575b600080fd5b34801561010457600080fd5b506101516004803603604081101561011b57600080fd5b81019080803573ffffffffffffffffffffffffffffffffffffffff169060200190929190803590602001909291905050506107be565b6040518082815260200191505060405180910390f35b34801561017357600080fd5b5061017c6107ec565b6040518082815260200191505060405180910390f35b34801561019e57600080fd5b506101cb600480360360208110156101b557600080fd5b810190808035906020019092919050505061080b565b604051808681526020018573ffffffffffffffffffffffffffffffffffffffff1673ffffffffffffffffffffffffffffffffffffffff1681526020018481526020018381526020018281526020019550505050505060405180910390f35b34801561023557600080fd5b506102f96004803603604081101561024c57600080fd5b81019080803590602001909291908035906020019064010000000081111561027357600080fd5b82018360208201111561028557600080fd5b803590602001918460018302840111640100000000831117156102a757600080fd5b91908080601f016020809104026020016040519081016040528093929190818152602001838380828437600081840152601f19601f820116905080830192505050505050509192919290505050610861565b005b34801561030757600080fd5b506103346004803603602081101561031e57600080fd5b81019080803590602001909291905050506108a4565b604051808573ffffffffffffffffffffffffffffffffffffffff1673ffffffffffffffffffffffffffffffffffffffff16815260200184815260200183815260200182815260200194505050505060405180910390f35b34801561039757600080fd5b506104f2600480360360608110156103ae57600080fd5b8101908080359060200190929190803590602001906401000000008111156103d557600080fd5b8201836020820111156103e757600080fd5b8035906020019184600183028401116401000000008311171561040957600080fd5b91908080601f016020809104026020016040519081016040528093929190818152602001838380828437600081840152601f19601f8201169050808301925050505050505091929192908035906020019064010000000081111561046c57600080fd5b82018360208201111561047e57600080fd5b803590602001918460018302840111640100000000831117156104a057600080fd5b91908080601f016020809104026020016040519081016040528093929190818152602001838380828437600081840152601f19601f820116905080830192505050505050509192919290505050610935565b005b34801561050057600080fd5b50610509610c39565b6040518082815260200191505060405180910390f35b61054b6004803603602081101561053557600080fd5b8101908080359060200190929190505050610c3f565b005b610555610ed3565b6040518082815260200191505060405180910390f35b34801561057757600080fd5b50610580610f41565b6040518082815260200191505060405180910390f35b3480156105a257600080fd5b506105ab610f47565b6040518082815260200191505060405180910390f35b3480156105cd57600080fd5b506105d6610ffc565b604051808273ffffffffffffffffffffffffffffffffffffffff1673ffffffffffffffffffffffffffffffffffffffff16815260200191505060405180910390f35b34801561062457600080fd5b506106676004803603602081101561063b57600080fd5b81019080803573ffffffffffffffffffffffffffffffffffffffff169060200190929190505050611021565b6040518080602001828103825283818151815260200191508051906020019060200280838360005b838110156106aa57808201518184015260208101905061068f565b505050509050019250505060405180910390f35b6106c66110b8565b005b3480156106d457600080fd5b50610701600480360360208110156106eb57600080fd5b81019080803590602001909291905050506110f8565b604051808273ffffffffffffffffffffffffffffffffffffffff1673ffffffffffffffffffffffffffffffffffffffff16815260200191505060405180910390f35b34801561074f57600080fd5b5061077c6004803603602081101561076657600080fd5b8101908080359060200190929190505050611139565b604051808273ffffffffffffffffffffffffffffffffffffffff1673ffffffffffffffffffffffffffffffffffffffff16815260200191505060405180910390f35b600760205281600052604060002081815481106107d757fe5b90600052602060002001600091509150505481565b60003073ffffffffffffffffffffffffffffffffffffffff1631905090565b60066020528060005260406000206000915090508060000154908060010160009054906101000a900473ffffffffffffffffffffffffffffffffffffffff16908060020154908060030154908060040154905085565b6108a0828260006040519080825280601f01601f19166020018201604052801561089a5781602001600182028038833980820191505090505b50610935565b5050565b6000806000806006600086815260200190815260200160002060010160009054906101000a900473ffffffffffffffffffffffffffffffffffffffff1660066000878152602001908152602001600020600201546006600088815260200190815260200160002060030154600660008981526020019081526020016000206004015493509350935093509193509193565b61093d611175565b73ffffffffffffffffffffffffffffffffffffffff163373ffffffffffffffffffffffffffffffffffffffff161461097457600080fd5b6000600b54836040516020018082805190602001908083835b602083106109b0578051825260208201915060208101905060208303925061098d565b6001836020036101000a0380198251168184511680821785525050505050509050019150506040516020818303038152906040528051906020012060001c816109f557fe5b0690507fc13d60fe9dffdb6908d2d446cd18134373a51db0738ee04f296eeb9128121cbc816040518082815260200191505060405180910390a160006006600086815260200190815260200160002060010160009054906101000a900473ffffffffffffffffffffffffffffffffffffffff16905060006006600087815260200190815260200160002060020154905060006006600088815260200190815260200160002060030154905060606040518060400160405280600881526020017f596f75206c6f7365000000000000000000000000000000000000000000000000815250905084600660008a81526020019081526020016000206004018190555084821415610b83576040518060400160405280600781526020017f596f752077696e0000000000000000000000000000000000000000000000000081525090506002830292508373ffffffffffffffffffffffffffffffffffffffff166108fc849081150290604051600060405180830381858888f19350505050158015610b81573d6000803e3d6000fd5b505b7f0274605274f0e611638bb81540fddab21c617584f5b74deb9f648b83e56dfd828882856040518084815260200180602001838152602001828103825284818151815260200191508051906020019080838360005b83811015610bf3578082015181840152602081019050610bd8565b50505050905090810190601f168015610c205780820380516001836020036101000a031916815260200191505b5094505050505060405180910390a15050505050505050565b600c5481565b66038d7ea4c6800080341015610c5457600080fd5b6000610c5e610ed3565b905060003390506000349050610c72613036565b8381600001818152505082816020019073ffffffffffffffffffffffffffffffffffffffff16908173ffffffffffffffffffffffffffffffffffffffff1681525050818160400181815250508581606001818152505080600660008681526020019081526020016000206000820151816000015560208201518160010160006101000a81548173ffffffffffffffffffffffffffffffffffffffff021916908373ffffffffffffffffffffffffffffffffffffffff1602179055506040820151816002015560608201518160030155608082015181600401559050506000600760008573ffffffffffffffffffffffffffffffffffffffff1673ffffffffffffffffffffffffffffffffffffffff168152602001908152602001600020805490501415610e6157604051806020016040528085815250600760008573ffffffffffffffffffffffffffffffffffffffff1673ffffffffffffffffffffffffffffffffffffffff168152602001908152602001600020906001610df592919061307e565b5060088390806001815401808255809150509060018203906000526020600020016000909192909190916101000a81548173ffffffffffffffffffffffffffffffffffffffff021916908373ffffffffffffffffffffffffffffffffffffffff16021790555050610ecb565b600760008473ffffffffffffffffffffffffffffffffffffffff1673ffffffffffffffffffffffffffffffffffffffff1681526020019081526020016000208490806001815401808255809150509060018203906000526020600020016000909192909190915055505b505050505050565b600080610ee66009546001600a54611495565b90507f94f2559b5e2b297de3db1587daf2352e872ada3dad01dab9ee3733592fa22ed360405180806020018281038252603c8152602001806131d7603c913960400191505060405180910390a180600c819055508091505090565b600b5481565b60008060009054906101000a900473ffffffffffffffffffffffffffffffffffffffff1673ffffffffffffffffffffffffffffffffffffffff163373ffffffffffffffffffffffffffffffffffffffff1614610fa257600080fd5b6000610fac6107ec565b90503373ffffffffffffffffffffffffffffffffffffffff166108fc829081150290604051600060405180830381858888f19350505050158015610ff4573d6000803e3d6000fd5b508091505090565b6000809054906101000a900473ffffffffffffffffffffffffffffffffffffffff1681565b6060600760008373ffffffffffffffffffffffffffffffffffffffff1673ffffffffffffffffffffffffffffffffffffffff1681526020019081526020016000208054806020026020016040519081016040528092919081815260200182805480156110ac57602002820191906000526020600020905b815481526020019060010190808311611098575b50505050509050919050565b7ff178429116095c7a6f2d351340cc8eb2a9ba2d5552de04cfda071fced46c67296110e16107ec565b6040518082815260200191505060405180910390a1565b60006008828154811061110757fe5b9060005260206000200160009054906101000a900473ffffffffffffffffffffffffffffffffffffffff169050919050565b6008818154811061114657fe5b906000526020600020016000915054906101000a900473ffffffffffffffffffffffffffffffffffffffff1681565b60008073ffffffffffffffffffffffffffffffffffffffff16600260009054906101000a900473ffffffffffffffffffffffffffffffffffffffff1673ffffffffffffffffffffffffffffffffffffffff1614806111fd575060006111fb600260009054906101000a900473ffffffffffffffffffffffffffffffffffffffff16611a30565b145b1561120e5761120c6000611a3b565b505b600260009054906101000a900473ffffffffffffffffffffffffffffffffffffffff1673ffffffffffffffffffffffffffffffffffffffff166338cc48316040518163ffffffff1660e01b8152600401602060405180830381600087803b15801561127857600080fd5b505af115801561128c573d6000803e3d6000fd5b505050506040513d60208110156112a257600080fd5b810190808051906020019092919050505073ffffffffffffffffffffffffffffffffffffffff16600160009054906101000a900473ffffffffffffffffffffffffffffffffffffffff1673ffffffffffffffffffffffffffffffffffffffff16146113ed57600260009054906101000a900473ffffffffffffffffffffffffffffffffffffffff1673ffffffffffffffffffffffffffffffffffffffff166338cc48316040518163ffffffff1660e01b8152600401602060405180830381600087803b15801561137157600080fd5b505af1158015611385573d6000803e3d6000fd5b505050506040513d602081101561139b57600080fd5b8101908080519060200190929190505050600160006101000a81548173ffffffffffffffffffffffffffffffffffffffff021916908373ffffffffffffffffffffffffffffffffffffffff1602179055505b600160009054906101000a900473ffffffffffffffffffffffffffffffffffffffff1673ffffffffffffffffffffffffffffffffffffffff1663c281d19e6040518163ffffffff1660e01b815260040160206040518083038186803b15801561145557600080fd5b505afa158015611469573d6000803e3d6000fd5b505050506040513d602081101561147f57600080fd5b8101908080519060200190929190505050905090565b600080831180156114a7575060208311155b6114b057600080fd5b600a84029350606060016040519080825280601f01601f1916602001820160405280156114ec5781602001600182028038833980820191505090505b5090508360f81b8160008151811061150057fe5b60200101907effffffffffffffffffffffffffffffffffffffffffffffffffffffffffffff1916908160001a905350606060206040519080825280601f01601f1916602001820160405280156115655781602001600182028038833980820191505090505b509050606060206040519080825280601f01601f19166020018201604052801561159e5781602001600182028038833980820191505090505b50905060006115ab611a4c565b905060208352424118600143034018602084015260208252806020830152606060206040519080825280601f01601f1916602001820160405280156115ff5781602001600182028038833980820191505090505b509050886020820152606060086040519080825280601f01601f19166020018201604052801561163e5781602001600182028038833980820191505090505b5090506116518260186008846000611d6c565b5061165a6130cb565b604051806080016040528087815260200188815260200186815260200184815250905060006116bf6040518060400160405280600681526020017f72616e646f6d0000000000000000000000000000000000000000000000000000815250838c611dcb565b9050606060086040519080825280601f01601f1916602001820160405280156116f75781602001600182028038833980820191505090505b50905060208401517f0100000000000000000000000000000000000000000000000000000000000000810460278301537e01000000000000000000000000000000000000000000000000000000000000810460268301537d010000000000000000000000000000000000000000000000000000000000810460258301537c0100000000000000000000000000000000000000000000000000000000810460248301537b01000000000000000000000000000000000000000000000000000000810460238301537a010000000000000000000000000000000000000000000000000000810460228301537901000000000000000000000000000000000000000000000000008104602183015378010000000000000000000000000000000000000000000000008104602083015350611a1d82828560016004811061183657fe5b602002015160028760006004811061184a57fe5b60200201516040518082805190602001908083835b60208310611882578051825260208201915060208101905060208303925061185f565b6001836020036101000a038019825116818451168082178552505050505050905001915050602060405180830381855afa1580156118c4573d6000803e3d6000fd5b5050506040513d60208110156118d957600080fd5b8101908080519060200190929190505050876002600481106118f757fe5b60200201516040516020018085805190602001908083835b60208310611932578051825260208201915060208101905060208303925061190f565b6001836020036101000a03801982511681845116808217855250505050505090500184805190602001908083835b602083106119835780518252602082019150602081019050602083039250611960565b6001836020036101000a03801982511681845116808217855250505050505090500183815260200182805190602001908083835b602083106119da57805182526020820191506020810190506020830392506119b7565b6001836020036101000a0380198251168184511680821785525050505050509050019450505050506040516020818303038152906040528051906020012061213a565b8199505050505050505050509392505050565b6000813b9050919050565b6000611a45612156565b9050919050565b60008073ffffffffffffffffffffffffffffffffffffffff16600260009054906101000a900473ffffffffffffffffffffffffffffffffffffffff1673ffffffffffffffffffffffffffffffffffffffff161480611ad457506000611ad2600260009054906101000a900473ffffffffffffffffffffffffffffffffffffffff16611a30565b145b15611ae557611ae36000611a3b565b505b600260009054906101000a900473ffffffffffffffffffffffffffffffffffffffff1673ffffffffffffffffffffffffffffffffffffffff166338cc48316040518163ffffffff1660e01b8152600401602060405180830381600087803b158015611b4f57600080fd5b505af1158015611b63573d6000803e3d6000fd5b505050506040513d6020811015611b7957600080fd5b810190808051906020019092919050505073ffffffffffffffffffffffffffffffffffffffff16600160009054906101000a900473ffffffffffffffffffffffffffffffffffffffff1673ffffffffffffffffffffffffffffffffffffffff1614611cc457600260009054906101000a900473ffffffffffffffffffffffffffffffffffffffff1673ffffffffffffffffffffffffffffffffffffffff166338cc48316040518163ffffffff1660e01b8152600401602060405180830381600087803b158015611c4857600080fd5b505af1158015611c5c573d6000803e3d6000fd5b505050506040513d6020811015611c7257600080fd5b8101908080519060200190929190505050600160006101000a81548173ffffffffffffffffffffffffffffffffffffffff021916908373ffffffffffffffffffffffffffffffffffffffff1602179055505b600160009054906101000a900473ffffffffffffffffffffffffffffffffffffffff1673ffffffffffffffffffffffffffffffffffffffff1663abaa5f3e6040518163ffffffff1660e01b815260040160206040518083038186803b158015611d2c57600080fd5b505afa158015611d40573d6000803e3d6000fd5b505050506040513d6020811015611d5657600080fd5b8101908080519060200190929190505050905090565b6060600082850190508084511015611d8357600080fd5b600086602001905060008460200190505b868860200101821015611dbc5781890151808288015250602082019150602081019050611d94565b85935050505095945050505050565b60008073ffffffffffffffffffffffffffffffffffffffff16600260009054906101000a900473ffffffffffffffffffffffffffffffffffffffff1673ffffffffffffffffffffffffffffffffffffffff161480611e5357506000611e51600260009054906101000a900473ffffffffffffffffffffffffffffffffffffffff16611a30565b145b15611e6457611e626000611a3b565b505b600260009054906101000a900473ffffffffffffffffffffffffffffffffffffffff1673ffffffffffffffffffffffffffffffffffffffff166338cc48316040518163ffffffff1660e01b8152600401602060405180830381600087803b158015611ece57600080fd5b505af1158015611ee2573d6000803e3d6000fd5b505050506040513d6020811015611ef857600080fd5b810190808051906020019092919050505073ffffffffffffffffffffffffffffffffffffffff16600160009054906101000a900473ffffffffffffffffffffffffffffffffffffffff1673ffffffffffffffffffffffffffffffffffffffff161461204357600260009054906101000a900473ffffffffffffffffffffffffffffffffffffffff1673ffffffffffffffffffffffffffffffffffffffff166338cc48316040518163ffffffff1660e01b8152600401602060405180830381600087803b158015611fc757600080fd5b505af1158015611fdb573d6000803e3d6000fd5b505050506040513d6020811015611ff157600080fd5b8101908080519060200190929190505050600160006101000a81548173ffffffffffffffffffffffffffffffffffffffff021916908373ffffffffffffffffffffffffffffffffffffffff1602179055505b6060600460405190808252806020026020018201604052801561207a57816020015b60608152602001906001900390816120655790505b5090508360006004811061208a57fe5b60200201518160008151811061209c57fe5b6020026020010181905250836001600481106120b457fe5b6020020151816001815181106120c657fe5b6020026020010181905250836002600481106120de57fe5b6020020151816002815181106120f057fe5b60200260200101819052508360036004811061210857fe5b60200201518160038151811061211a57fe5b60200260200101819052506121308582856126ad565b9150509392505050565b8060046000848152602001908152602001600020819055505050565b600080612176731d3b2638a7cc9f2cb3d298a3da7a90b67e5506ed611a30565b111561221857731d3b2638a7cc9f2cb3d298a3da7a90b67e5506ed600260006101000a81548173ffffffffffffffffffffffffffffffffffffffff021916908373ffffffffffffffffffffffffffffffffffffffff16021790555061220f6040518060400160405280600b81526020017f6574685f6d61696e6e6574000000000000000000000000000000000000000000815250612c13565b600190506126aa565b600061223773c03a2615d5efaf5f49f60b7bb6583eaec212fdf1611a30565b11156122d95773c03a2615d5efaf5f49f60b7bb6583eaec212fdf1600260006101000a81548173ffffffffffffffffffffffffffffffffffffffff021916908373ffffffffffffffffffffffffffffffffffffffff1602179055506122d06040518060400160405280600c81526020017f6574685f726f707374656e330000000000000000000000000000000000000000815250612c13565b600190506126aa565b60006122f873b7a07bcf2ba2f2703b24c0691b5278999c59ac7e611a30565b111561239a5773b7a07bcf2ba2f2703b24c0691b5278999c59ac7e600260006101000a81548173ffffffffffffffffffffffffffffffffffffffff021916908373ffffffffffffffffffffffffffffffffffffffff1602179055506123916040518060400160405280600981526020017f6574685f6b6f76616e0000000000000000000000000000000000000000000000815250612c13565b600190506126aa565b60006123b973146500cfd35b22e4a392fe0adc06de1a1368ed48611a30565b111561245b5773146500cfd35b22e4a392fe0adc06de1a1368ed48600260006101000a81548173ffffffffffffffffffffffffffffffffffffffff021916908373ffffffffffffffffffffffffffffffffffffffff1602179055506124526040518060400160405280600b81526020017f6574685f72696e6b656279000000000000000000000000000000000000000000815250612c13565b600190506126aa565b600061247a73a2998efd205fb9d4b4963afb70778d6354ad3a41611a30565b111561251c5773a2998efd205fb9d4b4963afb70778d6354ad3a41600260006101000a81548173ffffffffffffffffffffffffffffffffffffffff021916908373ffffffffffffffffffffffffffffffffffffffff1602179055506125136040518060400160405280600a81526020017f6574685f676f65726c6900000000000000000000000000000000000000000000815250612c13565b600190506126aa565b600061253b736f485c8bf6fc43ea212e93bbf8ce046c7f1cb475611a30565b111561259f57736f485c8bf6fc43ea212e93bbf8ce046c7f1cb475600260006101000a81548173ffffffffffffffffffffffffffffffffffffffff021916908373ffffffffffffffffffffffffffffffffffffffff160217905550600190506126aa565b60006125be7320e12a1f859b3feae5fb2a0a32c18f5a65555bbf611a30565b1115612622577320e12a1f859b3feae5fb2a0a32c18f5a65555bbf600260006101000a81548173ffffffffffffffffffffffffffffffffffffffff021916908373ffffffffffffffffffffffffffffffffffffffff160217905550600190506126aa565b60006126417351efaf4c8b3c9afbd5ab9f4bbc82784ab6ef8faa611a30565b11156126a5577351efaf4c8b3c9afbd5ab9f4bbc82784ab6ef8faa600260006101000a81548173ffffffffffffffffffffffffffffffffffffffff021916908373ffffffffffffffffffffffffffffffffffffffff160217905550600190506126aa565b600090505b90565b60008073ffffffffffffffffffffffffffffffffffffffff16600260009054906101000a900473ffffffffffffffffffffffffffffffffffffffff1673ffffffffffffffffffffffffffffffffffffffff16148061273557506000612733600260009054906101000a900473ffffffffffffffffffffffffffffffffffffffff16611a30565b145b15612746576127446000611a3b565b505b600260009054906101000a900473ffffffffffffffffffffffffffffffffffffffff1673ffffffffffffffffffffffffffffffffffffffff166338cc48316040518163ffffffff1660e01b8152600401602060405180830381600087803b1580156127b057600080fd5b505af11580156127c4573d6000803e3d6000fd5b505050506040513d60208110156127da57600080fd5b810190808051906020019092919050505073ffffffffffffffffffffffffffffffffffffffff16600160009054906101000a900473ffffffffffffffffffffffffffffffffffffffff1673ffffffffffffffffffffffffffffffffffffffff161461292557600260009054906101000a900473ffffffffffffffffffffffffffffffffffffffff1673ffffffffffffffffffffffffffffffffffffffff166338cc48316040518163ffffffff1660e01b8152600401602060405180830381600087803b1580156128a957600080fd5b505af11580156128bd573d6000803e3d6000fd5b505050506040513d60208110156128d357600080fd5b8101908080519060200190929190505050600160006101000a81548173ffffffffffffffffffffffffffffffffffffffff021916908373ffffffffffffffffffffffffffffffffffffffff1602179055505b6000600160009054906101000a900473ffffffffffffffffffffffffffffffffffffffff1673ffffffffffffffffffffffffffffffffffffffff16632ef3accc86856040518363ffffffff1660e01b81526004018080602001838152602001828103825284818151815260200191508051906020019080838360005b838110156129bc5780820151818401526020810190506129a1565b50505050905090810190601f1680156129e95780820380516001836020036101000a031916815260200191505b509350505050602060405180830381600087803b158015612a0957600080fd5b505af1158015612a1d573d6000803e3d6000fd5b505050506040513d6020811015612a3357600080fd5b81019080805190602001909291905050509050823a02670de0b6b3a764000001811115612a66576000801b915050612c0c565b6060612a7185612c2d565b9050600160009054906101000a900473ffffffffffffffffffffffffffffffffffffffff1673ffffffffffffffffffffffffffffffffffffffff1663c55c1cb68360008985896040518663ffffffff1660e01b8152600401808581526020018060200180602001848152602001838103835286818151815260200191508051906020019080838360005b83811015612b16578082015181840152602081019050612afb565b50505050905090810190601f168015612b435780820380516001836020036101000a031916815260200191505b50838103825285818151815260200191508051906020019080838360005b83811015612b7c578082015181840152602081019050612b61565b50505050905090810190601f168015612ba95780820380516001836020036101000a031916815260200191505b5096505050505050506020604051808303818588803b158015612bcb57600080fd5b505af1158015612bdf573d6000803e3d6000fd5b50505050506040513d6020811015612bf657600080fd5b8101908080519060200190929190505050925050505b9392505050565b8060039080519060200190612c299291906130f2565b5050565b6060612c37612cad565b612c3f613172565b612c4b81610400612cb9565b612c5481612d03565b60008090505b8351811015612c9657612c89848281518110612c7257fe5b602002602001015183612d1190919063ffffffff16565b8080600101915050612c5a565b50612ca081612d36565b8060000151915050919050565b60405180590338823950565b6000819050600060208281612cca57fe5b0614612ce35760208181612cda57fe5b06602003810190505b808360200181815250506040518084526000815281810160405250505050565b612d0e816004612d44565b50565b612d1e8260028351612d65565b612d318183612ea590919063ffffffff16565b505050565b612d41816007612d44565b50565b612d61601f60058360ff16901b1783612f5090919063ffffffff16565b5050565b60178111612d9157612d8c8160058460ff16901b60ff161784612f5090919063ffffffff16565b612ea0565b60ff8111612dd257612db6601860058460ff16901b1784612f5090919063ffffffff16565b612dcc81600185612f909092919063ffffffff16565b50612e9f565b61ffff8111612e1457612df8601960058460ff16901b1784612f5090919063ffffffff16565b612e0e81600285612f909092919063ffffffff16565b50612e9e565b63ffffffff8111612e5857612e3c601a60058460ff16901b1784612f5090919063ffffffff16565b612e5281600485612f909092919063ffffffff16565b50612e9d565b67ffffffffffffffff8111612e9c57612e84601b60058460ff16901b1784612f5090919063ffffffff16565b612e9a81600885612f909092919063ffffffff16565b505b5b5b5b5b505050565b612ead613172565b82602001518360000151518351011115612edd57612edc836002612ed686602001518651612ff7565b02613013565b5b60008060008451905085518051602081830101945086518101825260208701935050505b60208110612f245781518352602083019250602082019150602081039050612f01565b60006001826020036101000a039050801983511681855116818117865250508694505050505092915050565b81602001516001836000015151011115612f7657612f75826002846020015102613013565b5b815180516020818301018381536001820183525050505050565b612f98613172565b836020015184600001515183011115612fc657612fc5846002612fbf876020015186612ff7565b02613013565b5b60006001836101000a0390508451805184818301018684198251161781528582018352505050849150509392505050565b6000818311156130095782905061300d565b8190505b92915050565b6060826000015190506130268383612cb9565b6130308382612ea5565b50505050565b6040518060a0016040528060008019168152602001600073ffffffffffffffffffffffffffffffffffffffff1681526020016000815260200160008152602001600081525090565b8280548282559060005260206000209081019282156130ba579160200282015b828111156130b957825182559160200191906001019061309e565b5b5090506130c7919061318c565b5090565b60405180608001604052806004905b60608152602001906001900390816130da5790505090565b828054600181600116156101000203166002900490600052602060002090601f016020900481019282601f1061313357805160ff1916838001178555613161565b82800160010185558215613161579182015b82811115613160578251825591602001919060010190613145565b5b50905061316e91906131b1565b5090565b604051806040016040528060608152602001600081525090565b6131ae91905b808211156131aa576000816000905550600101613192565b5090565b90565b6131d391905b808211156131cf5760008160009055506001016131b7565b5090565b9056fe517565727920666f722072616e646f6d206e756d62657220686173206265656e2073656e742e2057616974696e6720666f7220726573706f6e73652ea265627a7a7231582089179d1476727eb28f787985e5ac068e7d5871c916a82592c5ff6dc0b73d057964736f6c634300050c0032",
  "source": "import \"./ownable.sol\";\r\n// import \"./provableRN.sol\";\r\nimport \"./provableAPI.sol\";\r\npragma solidity 0.5.12;\r\n\r\n// contract coinFlip is ownable, provableRN{\r\ncontract coinFlip is ownable, usingProvable{\r\n\r\n  // uint256 public moduloRN = 2;\r\n  // bool boolCallbackFunction = true;\r\n\r\n  modifier costs(uint256 cost){\r\n      require(msg.value >= cost);\r\n      _;\r\n  }\r\n\r\n  event betResult(bytes32 queryId, string _result, uint256 _value);\r\n  event contractFunded(uint256 _value);\r\n  // event prize(uint amount);\r\n\r\n  struct infoBet {\r\n    bytes32 queryId;\r\n    address player;\r\n    uint256 betAmount;\r\n    uint256 guessNumber;\r\n    uint256 randomNumber;\r\n  }\r\n\r\n  mapping (bytes32 => infoBet) public historyBets;\r\n  mapping (address => bytes32[]) public playersQueryIds;\r\n  address[] public players;\r\n\r\n  function getBalance() public view returns(uint256){\r\n    return address(this).balance;\r\n  }\r\n\r\n  function fundContract() public payable{\r\n    // balance += msg.value;\r\n    emit contractFunded(getBalance());\r\n  }\r\n\r\n  function withdrawAll() public onlyOwner returns(uint256) {\r\n      uint256 toTransfer = getBalance();\r\n      msg.sender.transfer(toTransfer);\r\n      return toTransfer;\r\n  }\r\n\r\n  function bet(uint256 guessNumber) public payable costs(0.001 ether){\r\n    bytes32 queryId = generateRandomNumber();\r\n    address player = msg.sender;\r\n    uint256 betAmount = msg.value;\r\n\r\n    // Storing information for settling the bet when random number is returned\r\n    infoBet memory newBet;\r\n    newBet.queryId = queryId;\r\n    newBet.player = player;\r\n    newBet.betAmount = betAmount;\r\n    newBet.guessNumber = guessNumber;\r\n    historyBets[queryId] = newBet;\r\n\r\n    // Storing information regarding the bets of each player.\r\n    if(playersQueryIds[player].length == 0){\r\n      // bytes32[] storage queryIds;\r\n      // queryIds.push(queryId);\r\n      // playersQueryIds[player] = queryIds;\r\n      playersQueryIds[player] = [queryId];\r\n      players.push(player);\r\n    }else{\r\n      playersQueryIds[player].push(queryId);\r\n    }\r\n  }\r\n\r\n  // // Function that will be executed after callback by provable oracle.\r\n  // function callbackFunction(uint256 randomNumber, bytes32 queryId) public {\r\n  //   address payable player = address(uint160(historyBets[queryId].player));\r\n  //   uint256 betAmount = historyBets[queryId].betAmount;\r\n  //   uint256 guessNumber = historyBets[queryId].guessNumber;\r\n  //   string memory result = \"You lose\";\r\n  //   historyBets[queryId].randomNumber = randomNumber;\r\n  //\r\n  //   if(guessNumber == randomNumber){\r\n  //     result = \"You win\";\r\n  //     betAmount = betAmount * 2;\r\n  //     player.transfer(betAmount);\r\n  //   }\r\n  //   emit betResult(queryId, result, betAmount);\r\n  // }\r\n\r\n  function getQueryIds(address player) public view returns(bytes32[] memory) {\r\n    return playersQueryIds[player];\r\n  }\r\n\r\n  function getBetInfo(bytes32 queryId) public view returns(address player,\r\n    uint256 betAmount, uint256 guessNumber, uint256 randomNumber) {\r\n    return (historyBets[queryId].player, historyBets[queryId].betAmount,\r\n      historyBets[queryId].guessNumber, historyBets[queryId].randomNumber);\r\n  }\r\n\r\n  function getPlayer(uint256 index) public view returns(address){\r\n    return players[index];\r\n  }\r\n\r\n\r\n\r\n\r\n\r\n\r\n  uint256 constant NUMBER_RANDOM_BYTES = 1;\r\n  uint256 EXECUTION_DELAY = 0;\r\n  uint256 CALLBACK_GAS_LIMIT = 200000;\r\n  // bool boolCallbackFunction = false;\r\n  uint256 public moduloRN = 2; // Modula for determining range of the random number\r\n  bytes32 public lastQueryID;\r\n\r\n  event logNewProvableQuery(string description);\r\n  event generatedRandomNumber(uint256 randomNumber);\r\n\r\n  // constructor() public{\r\n  //   generateRandomNumber();\r\n  // }\r\n\r\n  // function callbackFunction(uint256 randomNumber, bytes32 queryId, string memory _result, bytes memory _proof) public {}\r\n\r\n  function __callback(bytes32 queryId, string memory _result, bytes memory _proof) public {\r\n    require(msg.sender == provable_cbAddress());\r\n\r\n    uint256 randomNumber = uint256(keccak256(abi.encodePacked(_result))) % moduloRN;\r\n    emit generatedRandomNumber(randomNumber);\r\n\r\n    address payable player = address(uint160(historyBets[queryId].player));\r\n    uint256 betAmount = historyBets[queryId].betAmount;\r\n    uint256 guessNumber = historyBets[queryId].guessNumber;\r\n    string memory result = \"You lose\";\r\n    historyBets[queryId].randomNumber = randomNumber;\r\n\r\n    if(guessNumber == randomNumber){\r\n      result = \"You win\";\r\n      betAmount = betAmount * 2;\r\n      player.transfer(betAmount);\r\n    }\r\n    emit betResult(queryId, result, betAmount);\r\n    }\r\n\r\n  function generateRandomNumber() payable public returns(bytes32){\r\n    bytes32 queryId = provable_newRandomDSQuery(EXECUTION_DELAY,NUMBER_RANDOM_BYTES,\r\n      CALLBACK_GAS_LIMIT);\r\n    emit logNewProvableQuery(\"Query for random number has been sent. Waiting for response.\");\r\n    lastQueryID = queryId;\r\n    return queryId;\r\n  }\r\n  // function random() public view returns(uint){\r\n  //   return now % 2;\r\n  // }\r\n  //\r\n  // function bet(uint answer) public payable costs(0.001 ether)returns(string memory){\r\n  //   string memory result = \"You lose\";\r\n  //   uint amount = msg.value;\r\n  //\r\n  //   if(answer == random()){\r\n  //     result = \"You win\";\r\n  //     amount = amount * 2;\r\n  //     msg.sender.transfer(amount);\r\n  //   }\r\n  //\r\n  //   emit betResult(result, amount);\r\n  //   return result;\r\n  // }\r\n}\r\n",
  "sourcePath": "C:/Users/KPD-JIAN/Documents/GitHub/Blockchain/Ethereum/CoinFlip-Dapp/project/contracts/coinFlip.sol",
  "compiler": {
    "name": "solc",
    "version": "0.5.12+commit.7709ece9.Emscripten.clang"
  },
  "schemaVersion": "3.0.16",
  "updatedAt": "2020-11-29T21:00:53.046Z",
  "devdoc": {
    "methods": {
      "__callback(bytes32,string)": {
        "details": "The following `__callback` functions are just placeholders ideally     meant to be defined in child contract when proofs are used.     The function bodies simply silence compiler warnings."
      }
    }
  },
  "userdoc": {
    "methods": {}
  }
}