{
  "contractName": "coinFlip",
  "abi": [
    {
      "anonymous": false,
      "inputs": [
        {
          "indexed": false,
          "internalType": "string",
          "name": "result",
          "type": "string"
        }
      ],
      "name": "betResult",
      "type": "event"
    },
    {
      "anonymous": false,
      "inputs": [
        {
          "indexed": false,
          "internalType": "uint256",
          "name": "amount",
          "type": "uint256"
        }
      ],
      "name": "contractFunded",
      "type": "event"
    },
    {
      "constant": true,
      "inputs": [],
      "name": "getBalance",
      "outputs": [
        {
          "internalType": "uint256",
          "name": "",
          "type": "uint256"
        }
      ],
      "payable": false,
      "stateMutability": "view",
      "type": "function"
    },
    {
      "constant": false,
      "inputs": [],
      "name": "fundContract",
      "outputs": [],
      "payable": true,
      "stateMutability": "payable",
      "type": "function"
    },
    {
      "constant": true,
      "inputs": [],
      "name": "random",
      "outputs": [
        {
          "internalType": "uint256",
          "name": "",
          "type": "uint256"
        }
      ],
      "payable": false,
      "stateMutability": "view",
      "type": "function"
    },
    {
      "constant": false,
      "inputs": [
        {
          "internalType": "uint256",
          "name": "answer",
          "type": "uint256"
        }
      ],
      "name": "bet",
      "outputs": [
        {
          "internalType": "string",
          "name": "",
          "type": "string"
        }
      ],
      "payable": true,
      "stateMutability": "payable",
      "type": "function"
    }
  ],
  "bytecode": "0x608060405234801561001057600080fd5b5061037b806100206000396000f3fe60806040526004361061003f5760003560e01c806312065fe0146100445780635ec01e4d1461006f5780637365870b1461009a578063bd097e2114610141575b600080fd5b34801561005057600080fd5b5061005961014b565b6040518082815260200191505060405180910390f35b34801561007b57600080fd5b5061008461016a565b6040518082815260200191505060405180910390f35b6100c6600480360360208110156100b057600080fd5b810190808035906020019092919050505061017c565b6040518080602001828103825283818151815260200191508051906020019080838360005b838110156101065780820151818401526020810190506100eb565b50505050905090810190601f1680156101335780820380516001836020036101000a031916815260200191505b509250505060405180910390f35b610149610306565b005b60003073ffffffffffffffffffffffffffffffffffffffff1631905090565b60006002428161017657fe5b06905090565b606067016345785d8a00008034101561019457600080fd5b60606040518060400160405280600881526020017f596f75206c6f736500000000000000000000000000000000000000000000000081525090506101d661016a565b841415610260573373ffffffffffffffffffffffffffffffffffffffff166108fc600234029081150290604051600060405180830381858888f19350505050158015610226573d6000803e3d6000fd5b506040518060400160405280600781526020017f596f752077696e0000000000000000000000000000000000000000000000000081525090505b7f4a6ed4333e286c7525e638fd3d9dbb2b393ebed6a0de799ee6d260b2d3720188816040518080602001828103825283818151815260200191508051906020019080838360005b838110156102c25780820151818401526020810190506102a7565b50505050905090810190601f1680156102ef5780820380516001836020036101000a031916815260200191505b509250505060405180910390a18092505050919050565b7ff178429116095c7a6f2d351340cc8eb2a9ba2d5552de04cfda071fced46c672961032f61014b565b6040518082815260200191505060405180910390a156fea265627a7a72315820fae28e8f58f44a05a94e8975972cc372416e00f199dd6a2b93406cff8c265ca964736f6c634300050c0032",
  "source": "pragma solidity 0.5.12;\r\n\r\ncontract coinFlip{\r\n\r\n  // uint public balance;\r\n\r\n  modifier costs(uint cost){\r\n      require(msg.value >= cost);\r\n      _;\r\n  }\r\n\r\n  event betResult(string result);\r\n  event contractFunded(uint amount);\r\n\r\n  function getBalance() public view returns(uint){\r\n    return address(this).balance;\r\n  }\r\n\r\n  function fundContract() public payable{\r\n    emit contractFunded(getBalance());\r\n  }\r\n\r\n  function random() public view returns(uint){\r\n    return now % 2;\r\n  }\r\n\r\n  function bet(uint answer) public payable costs(0.1 ether)returns(string memory){\r\n    string memory result = \"You lose\";\r\n\r\n    if(answer == random()){\r\n      msg.sender.transfer(msg.value * 2);\r\n      result = \"You win\";\r\n    }\r\n\r\n    emit betResult(result);\r\n    return result;\r\n  }\r\n\r\n}\r\n",
  "sourcePath": "C:/Users/KPD-JIAN/Documents/GitHub/Blockchain/Ethereum/CoinFlip-Dapp/project/contracts/coinFlip.sol",
  "compiler": {
    "name": "solc",
    "version": "0.5.12+commit.7709ece9.Emscripten.clang"
  },
  "schemaVersion": "3.0.16",
  "updatedAt": "2020-08-23T09:42:09.876Z",
  "devdoc": {
    "methods": {}
  },
  "userdoc": {
    "methods": {}
  }
}