{
  "contractName": "coinFlip",
  "abi": [
    {
      "anonymous": false,
      "inputs": [
        {
          "indexed": false,
          "internalType": "bytes32",
          "name": "queryId",
          "type": "bytes32"
        },
        {
          "indexed": false,
          "internalType": "string",
          "name": "_result",
          "type": "string"
        },
        {
          "indexed": false,
          "internalType": "uint256",
          "name": "_value",
          "type": "uint256"
        }
      ],
      "name": "betResult",
      "type": "event"
    },
    {
      "anonymous": false,
      "inputs": [
        {
          "indexed": false,
          "internalType": "uint256",
          "name": "_value",
          "type": "uint256"
        }
      ],
      "name": "contractFunded",
      "type": "event"
    },
    {
      "anonymous": false,
      "inputs": [
        {
          "indexed": false,
          "internalType": "uint256",
          "name": "randomNumber",
          "type": "uint256"
        }
      ],
      "name": "generatedRandomNumber",
      "type": "event"
    },
    {
      "anonymous": false,
      "inputs": [
        {
          "indexed": false,
          "internalType": "string",
          "name": "description",
          "type": "string"
        }
      ],
      "name": "logNewProvableQuery",
      "type": "event"
    },
    {
      "constant": true,
      "inputs": [],
      "name": "lastQueryID",
      "outputs": [
        {
          "internalType": "bytes32",
          "name": "",
          "type": "bytes32"
        }
      ],
      "payable": false,
      "stateMutability": "view",
      "type": "function"
    },
    {
      "constant": true,
      "inputs": [],
      "name": "moduloRN",
      "outputs": [
        {
          "internalType": "uint256",
          "name": "",
          "type": "uint256"
        }
      ],
      "payable": false,
      "stateMutability": "view",
      "type": "function"
    },
    {
      "constant": true,
      "inputs": [],
      "name": "owner",
      "outputs": [
        {
          "internalType": "address",
          "name": "",
          "type": "address"
        }
      ],
      "payable": false,
      "stateMutability": "view",
      "type": "function"
    },
    {
      "constant": true,
      "inputs": [
        {
          "internalType": "uint256",
          "name": "",
          "type": "uint256"
        }
      ],
      "name": "players",
      "outputs": [
        {
          "internalType": "address",
          "name": "",
          "type": "address"
        }
      ],
      "payable": false,
      "stateMutability": "view",
      "type": "function"
    },
    {
      "constant": true,
      "inputs": [],
      "name": "getBalance",
      "outputs": [
        {
          "internalType": "uint256",
          "name": "",
          "type": "uint256"
        }
      ],
      "payable": false,
      "stateMutability": "view",
      "type": "function"
    },
    {
      "constant": false,
      "inputs": [],
      "name": "fundContract",
      "outputs": [],
      "payable": true,
      "stateMutability": "payable",
      "type": "function"
    },
    {
      "constant": false,
      "inputs": [],
      "name": "withdrawAll",
      "outputs": [
        {
          "internalType": "uint256",
          "name": "",
          "type": "uint256"
        }
      ],
      "payable": false,
      "stateMutability": "nonpayable",
      "type": "function"
    },
    {
      "constant": false,
      "inputs": [
        {
          "internalType": "uint256",
          "name": "guessNumber",
          "type": "uint256"
        }
      ],
      "name": "makeBet",
      "outputs": [],
      "payable": true,
      "stateMutability": "payable",
      "type": "function"
    },
    {
      "constant": true,
      "inputs": [
        {
          "internalType": "address",
          "name": "player",
          "type": "address"
        }
      ],
      "name": "getQueryIDs",
      "outputs": [
        {
          "internalType": "bytes32[]",
          "name": "",
          "type": "bytes32[]"
        }
      ],
      "payable": false,
      "stateMutability": "view",
      "type": "function"
    },
    {
      "constant": true,
      "inputs": [
        {
          "internalType": "bytes32",
          "name": "queryId",
          "type": "bytes32"
        }
      ],
      "name": "getBetInfo",
      "outputs": [
        {
          "internalType": "address",
          "name": "player",
          "type": "address"
        },
        {
          "internalType": "uint256",
          "name": "betAmount",
          "type": "uint256"
        },
        {
          "internalType": "uint256",
          "name": "guessNumber",
          "type": "uint256"
        },
        {
          "internalType": "uint256",
          "name": "randomNumber",
          "type": "uint256"
        }
      ],
      "payable": false,
      "stateMutability": "view",
      "type": "function"
    },
    {
      "constant": true,
      "inputs": [
        {
          "internalType": "uint256",
          "name": "index",
          "type": "uint256"
        }
      ],
      "name": "getPlayer",
      "outputs": [
        {
          "internalType": "address",
          "name": "",
          "type": "address"
        }
      ],
      "payable": false,
      "stateMutability": "view",
      "type": "function"
    },
    {
      "constant": false,
      "inputs": [
        {
          "internalType": "bytes32",
          "name": "queryId",
          "type": "bytes32"
        },
        {
          "internalType": "string",
          "name": "_result",
          "type": "string"
        },
        {
          "internalType": "bytes",
          "name": "_proof",
          "type": "bytes"
        }
      ],
      "name": "__callback",
      "outputs": [],
      "payable": false,
      "stateMutability": "nonpayable",
      "type": "function"
    },
    {
      "constant": false,
      "inputs": [],
      "name": "generateRandomNumber",
      "outputs": [
        {
          "internalType": "bytes32",
          "name": "",
          "type": "bytes32"
        }
      ],
      "payable": true,
      "stateMutability": "payable",
      "type": "function"
    },
    {
      "constant": false,
      "inputs": [],
      "name": "testRandomNumber",
      "outputs": [
        {
          "internalType": "bytes32",
          "name": "",
          "type": "bytes32"
        }
      ],
      "payable": false,
      "stateMutability": "nonpayable",
      "type": "function"
    }
  ],
  "bytecode": "0x6080604052600060045562030d406005556002600655336000806101000a81548173ffffffffffffffffffffffffffffffffffffffff021916908373ffffffffffffffffffffffffffffffffffffffff1602179055506110d0806100646000396000f3fe6080604052600436106100dd5760003560e01c80637d977fd61161007f5780638da5cb5b116100595780638da5cb5b146104a4578063bd097e21146104fb578063e55ae4e814610505578063f71d96cb14610580576100dd565b80637d977fd6146103a8578063842a46ba1461044e578063853828b614610479576100dd565b806338bbfa50116100bb57806338bbfa50146101c8578063638b8bb414610331578063718cc7691461035c578063773a11541461038a576100dd565b806312065fe0146100e25780631caab6a11461010d5780632a7850f114610138575b600080fd5b3480156100ee57600080fd5b506100f76105fb565b6040518082815260200191505060405180910390f35b34801561011957600080fd5b5061012261061a565b6040518082815260200191505060405180910390f35b34801561014457600080fd5b506101716004803603602081101561015b57600080fd5b81019080803590602001909291905050506106f1565b604051808573ffffffffffffffffffffffffffffffffffffffff1673ffffffffffffffffffffffffffffffffffffffff16815260200184815260200183815260200182815260200194505050505060405180910390f35b3480156101d457600080fd5b5061032f600480360360608110156101eb57600080fd5b81019080803590602001909291908035906020019064010000000081111561021257600080fd5b82018360208201111561022457600080fd5b8035906020019184600183028401116401000000008311171561024657600080fd5b91908080601f016020809104026020016040519081016040528093929190818152602001838380828437600081840152601f19601f820116905080830192505050505050509192919290803590602001906401000000008111156102a957600080fd5b8201836020820111156102bb57600080fd5b803590602001918460018302840111640100000000831117156102dd57600080fd5b91908080601f016020809104026020016040519081016040528093929190818152602001838380828437600081840152601f19601f820116905080830192505050505050509192919290505050610782565b005b34801561033d57600080fd5b5061034661085e565b6040518082815260200191505060405180910390f35b6103886004803603602081101561037257600080fd5b8101908080359060200190929190505050610864565b005b610392610b1e565b6040518082815260200191505060405180910390f35b3480156103b457600080fd5b506103f7600480360360208110156103cb57600080fd5b81019080803573ffffffffffffffffffffffffffffffffffffffff169060200190929190505050610b84565b6040518080602001828103825283818151815260200191508051906020019060200280838360005b8381101561043a57808201518184015260208101905061041f565b505050509050019250505060405180910390f35b34801561045a57600080fd5b50610463610c1b565b6040518082815260200191505060405180910390f35b34801561048557600080fd5b5061048e610c21565b6040518082815260200191505060405180910390f35b3480156104b057600080fd5b506104b9610cd6565b604051808273ffffffffffffffffffffffffffffffffffffffff1673ffffffffffffffffffffffffffffffffffffffff16815260200191505060405180910390f35b610503610cfb565b005b34801561051157600080fd5b5061053e6004803603602081101561052857600080fd5b8101908080359060200190929190505050610d3b565b604051808273ffffffffffffffffffffffffffffffffffffffff1673ffffffffffffffffffffffffffffffffffffffff16815260200191505060405180910390f35b34801561058c57600080fd5b506105b9600480360360208110156105a357600080fd5b8101908080359060200190929190505050610d7c565b604051808273ffffffffffffffffffffffffffffffffffffffff1673ffffffffffffffffffffffffffffffffffffffff16815260200191505060405180910390f35b60003073ffffffffffffffffffffffffffffffffffffffff1631905090565b60008033604051602001808273ffffffffffffffffffffffffffffffffffffffff1673ffffffffffffffffffffffffffffffffffffffff1660601b81526014019150506040516020818303038152906040528051906020012090506106ea816040518060400160405280600181526020017f31000000000000000000000000000000000000000000000000000000000000008152506040518060400160405280600481526020017f7465737400000000000000000000000000000000000000000000000000000000815250610782565b8091505090565b6000806000806001600086815260200190815260200160002060010160009054906101000a900473ffffffffffffffffffffffffffffffffffffffff1660016000878152602001908152602001600020600201546001600088815260200190815260200160002060030154600160008981526020019081526020016000206004015493509350935093509193509193565b6000600654836040516020018082805190602001908083835b602083106107be578051825260208201915060208101905060208303925061079b565b6001836020036101000a0380198251168184511680821785525050505050509050019150506040516020818303038152906040528051906020012060001c8161080357fe5b0690508060016000868152602001908152602001600020600401819055507fc13d60fe9dffdb6908d2d446cd18134373a51db0738ee04f296eeb9128121cbc816040518082815260200191505060405180910390a150505050565b60075481565b66038d7ea4c680008034101561087957600080fd5b6000610883610b1e565b905060003390506000349050610897610fa5565b8381600001818152505082816020019073ffffffffffffffffffffffffffffffffffffffff16908173ffffffffffffffffffffffffffffffffffffffff1681525050818160400181815250508581606001818152505080600160008681526020019081526020016000206000820151816000015560208201518160010160006101000a81548173ffffffffffffffffffffffffffffffffffffffff021916908373ffffffffffffffffffffffffffffffffffffffff1602179055506040820151816002015560608201518160030155608082015181600401559050506000600260008573ffffffffffffffffffffffffffffffffffffffff1673ffffffffffffffffffffffffffffffffffffffff168152602001908152602001600020805490501415610a8657604051806020016040528085815250600260008573ffffffffffffffffffffffffffffffffffffffff1673ffffffffffffffffffffffffffffffffffffffff168152602001908152602001600020906001610a1a929190610fed565b5060038390806001815401808255809150509060018203906000526020600020016000909192909190916101000a81548173ffffffffffffffffffffffffffffffffffffffff021916908373ffffffffffffffffffffffffffffffffffffffff16021790555050610af0565b600260008473ffffffffffffffffffffffffffffffffffffffff1673ffffffffffffffffffffffffffffffffffffffff1681526020019081526020016000208490806001815401808255809150509060018203906000526020600020016000909192909190915055505b600060016000868152602001908152602001600020600401549050610b158582610db8565b50505050505050565b600080610b2961061a565b90507f94f2559b5e2b297de3db1587daf2352e872ada3dad01dab9ee3733592fa22ed360405180806020018281038252603c815260200180611060603c913960400191505060405180910390a1806007819055508091505090565b6060600260008373ffffffffffffffffffffffffffffffffffffffff1673ffffffffffffffffffffffffffffffffffffffff168152602001908152602001600020805480602002602001604051908101604052809291908181526020018280548015610c0f57602002820191906000526020600020905b815481526020019060010190808311610bfb575b50505050509050919050565b60065481565b60008060009054906101000a900473ffffffffffffffffffffffffffffffffffffffff1673ffffffffffffffffffffffffffffffffffffffff163373ffffffffffffffffffffffffffffffffffffffff1614610c7c57600080fd5b6000610c866105fb565b90503373ffffffffffffffffffffffffffffffffffffffff166108fc829081150290604051600060405180830381858888f19350505050158015610cce573d6000803e3d6000fd5b508091505090565b6000809054906101000a900473ffffffffffffffffffffffffffffffffffffffff1681565b7ff178429116095c7a6f2d351340cc8eb2a9ba2d5552de04cfda071fced46c6729610d246105fb565b6040518082815260200191505060405180910390a1565b600060038281548110610d4a57fe5b9060005260206000200160009054906101000a900473ffffffffffffffffffffffffffffffffffffffff169050919050565b60038181548110610d8957fe5b906000526020600020016000915054906101000a900473ffffffffffffffffffffffffffffffffffffffff1681565b60006001600084815260200190815260200160002060010160009054906101000a900473ffffffffffffffffffffffffffffffffffffffff16905060006001600085815260200190815260200160002060020154905060006001600086815260200190815260200160002060030154905060606040518060400160405280600881526020017f596f75206c6f7365000000000000000000000000000000000000000000000000815250905084821415610ef1576040518060400160405280600781526020017f596f752077696e0000000000000000000000000000000000000000000000000081525090506002830292508373ffffffffffffffffffffffffffffffffffffffff166108fc849081150290604051600060405180830381858888f19350505050158015610eef573d6000803e3d6000fd5b505b7f0274605274f0e611638bb81540fddab21c617584f5b74deb9f648b83e56dfd828682856040518084815260200180602001838152602001828103825284818151815260200191508051906020019080838360005b83811015610f61578082015181840152602081019050610f46565b50505050905090810190601f168015610f8e5780820380516001836020036101000a031916815260200191505b5094505050505060405180910390a1505050505050565b6040518060a0016040528060008019168152602001600073ffffffffffffffffffffffffffffffffffffffff1681526020016000815260200160008152602001600081525090565b828054828255906000526020600020908101928215611029579160200282015b8281111561102857825182559160200191906001019061100d565b5b509050611036919061103a565b5090565b61105c91905b80821115611058576000816000905550600101611040565b5090565b9056fe517565727920666f722072616e646f6d206e756d62657220686173206265656e2073656e742e2057616974696e6720666f7220726573706f6e73652ea265627a7a723158202c93eadd40d25e6484e17140fd82360d7d7b211b5994a279da9a4a5003a8d7b864736f6c634300050c0032",
  "source": "import \"./ownable.sol\";\r\n// import \"./provableRN.sol\";\r\n// import \"./provableAPI.sol\";\r\npragma solidity 0.5.12;\r\n\r\n// contract coinFlip is ownable, provableRN{\r\ncontract coinFlip is ownable{\r\n// contract coinFlip is ownable, usingProvable{\r\n\r\n  // uint256 public moduloRN = 2;\r\n  // bool boolCallbackFunction = true;\r\n\r\n  modifier costs(uint256 cost){\r\n      require(msg.value >= cost);\r\n      _;\r\n  }\r\n\r\n  event betResult(bytes32 queryId, string _result, uint256 _value);\r\n  event contractFunded(uint256 _value);\r\n  // event prize(uint amount);\r\n\r\n  struct infoBet {\r\n    bytes32 queryId;\r\n    address player;\r\n    uint256 betAmount;\r\n    uint256 guessNumber;\r\n    uint256 randomNumber;\r\n  }\r\n\r\n  mapping (bytes32 => infoBet) private historyBets;\r\n  mapping (address => bytes32[]) private playersQueryIds;\r\n  address[] public players;\r\n\r\n  function getBalance() public view returns(uint256){\r\n    return address(this).balance;\r\n  }\r\n\r\n  function fundContract() public payable{\r\n    // balance += msg.value;\r\n    emit contractFunded(getBalance());\r\n  }\r\n\r\n  function withdrawAll() public onlyOwner returns(uint256) {\r\n      uint256 toTransfer = getBalance();\r\n      msg.sender.transfer(toTransfer);\r\n      return toTransfer;\r\n  }\r\n\r\n  function makeBet(uint256 guessNumber) public payable costs(0.001 ether){\r\n    bytes32 queryId = generateRandomNumber();\r\n    address player = msg.sender;\r\n    uint256 betAmount = msg.value;\r\n\r\n    // Storing information for settling the bet when random number is returned\r\n    infoBet memory newBet;\r\n    newBet.queryId = queryId;\r\n    newBet.player = player;\r\n    newBet.betAmount = betAmount;\r\n    newBet.guessNumber = guessNumber;\r\n    historyBets[queryId] = newBet;\r\n\r\n    // Storing information regarding the bets of each player.\r\n    if(playersQueryIds[player].length == 0){\r\n      // bytes32[] storage queryIds;\r\n      // queryIds.push(queryId);\r\n      // playersQueryIds[player] = queryIds;\r\n      playersQueryIds[player] = [queryId];\r\n      players.push(player);\r\n    }else{\r\n      playersQueryIds[player].push(queryId);\r\n    }\r\n\r\n\r\n    // Code for test random function without using oracle\r\n    uint256 randomNumber = historyBets[queryId].randomNumber;\r\n    settleBet(queryId, randomNumber);\r\n  }\r\n\r\n  // // Function that will be executed after callback by provable oracle.\r\n  // function callbackFunction(uint256 randomNumber, bytes32 queryId) public {\r\n  //   address payable player = address(uint160(historyBets[queryId].player));\r\n  //   uint256 betAmount = historyBets[queryId].betAmount;\r\n  //   uint256 guessNumber = historyBets[queryId].guessNumber;\r\n  //   string memory result = \"You lose\";\r\n  //   historyBets[queryId].randomNumber = randomNumber;\r\n  //\r\n  //   if(guessNumber == randomNumber){\r\n  //     result = \"You win\";\r\n  //     betAmount = betAmount * 2;\r\n  //     player.transfer(betAmount);\r\n  //   }\r\n  //   emit betResult(queryId, result, betAmount);\r\n  // }\r\n\r\n  function getQueryIDs(address player) public view returns(bytes32[] memory) {\r\n    return playersQueryIds[player];\r\n  }\r\n\r\n  function getBetInfo(bytes32 queryId) public view returns(address player,\r\n    uint256 betAmount, uint256 guessNumber, uint256 randomNumber) {\r\n    return (historyBets[queryId].player, historyBets[queryId].betAmount,\r\n      historyBets[queryId].guessNumber, historyBets[queryId].randomNumber);\r\n  }\r\n\r\n  function getPlayer(uint256 index) public view returns(address){\r\n    return players[index];\r\n  }\r\n\r\n\r\n  uint256 constant NUMBER_RANDOM_BYTES = 1;\r\n  uint256 EXECUTION_DELAY = 0;\r\n  uint256 CALLBACK_GAS_LIMIT = 200000;\r\n  // bool boolCallbackFunction = false;\r\n  uint256 public moduloRN = 2; // Modula for determining range of the random number\r\n  bytes32 public lastQueryID;\r\n\r\n  event logNewProvableQuery(string description);\r\n  event generatedRandomNumber(uint256 randomNumber);\r\n\r\n  // constructor() public{\r\n  //   generateRandomNumber();\r\n  // }\r\n\r\n  // function callbackFunction(uint256 randomNumber, bytes32 queryId, string memory _result, bytes memory _proof) public {}\r\n\r\n  function __callback(bytes32 queryId, string memory _result, bytes memory _proof) public {\r\n    // require(msg.sender == provable_cbAddress());\r\n\r\n    uint256 randomNumber = uint256(keccak256(abi.encodePacked(_result))) % moduloRN;\r\n    historyBets[queryId].randomNumber = randomNumber;\r\n    emit generatedRandomNumber(randomNumber);\r\n\r\n    // settleBet(queryId, randomNumber); //Uncomment for provable RN\r\n  }\r\n\r\n  function settleBet(bytes32 queryId, uint256 randomNumber) internal {\r\n    address payable player = address(uint160(historyBets[queryId].player));\r\n    uint256 betAmount = historyBets[queryId].betAmount;\r\n    uint256 guessNumber = historyBets[queryId].guessNumber;\r\n    string memory result = \"You lose\";\r\n\r\n    if(guessNumber == randomNumber){\r\n      result = \"You win\";\r\n      betAmount = betAmount * 2;\r\n      player.transfer(betAmount);\r\n    }\r\n    emit betResult(queryId, result, betAmount);\r\n  }\r\n\r\n  function generateRandomNumber() payable public returns(bytes32){\r\n    bytes32 queryId = testRandomNumber();\r\n    // bytes32 queryId = provable_newRandomDSQuery(EXECUTION_DELAY,NUMBER_RANDOM_BYTES,\r\n    //   CALLBACK_GAS_LIMIT);\r\n    emit logNewProvableQuery(\"Query for random number has been sent. Waiting for response.\");\r\n    lastQueryID = queryId;\r\n    return queryId;\r\n  }\r\n\r\n  function testRandomNumber() public returns(bytes32){\r\n    bytes32 queryId = bytes32(keccak256(abi.encodePacked(msg.sender)));\r\n    __callback(queryId, \"1\", bytes(\"test\"));\r\n    return queryId;\r\n  }\r\n  // function random() public view returns(uint){\r\n  //   return now % 2;\r\n  // }\r\n  //\r\n  // function bet(uint answer) public payable costs(0.001 ether)returns(string memory){\r\n  //   string memory result = \"You lose\";\r\n  //   uint amount = msg.value;\r\n  //\r\n  //   if(answer == random()){\r\n  //     result = \"You win\";\r\n  //     amount = amount * 2;\r\n  //     msg.sender.transfer(amount);\r\n  //   }\r\n  //\r\n  //   emit betResult(result, amount);\r\n  //   return result;\r\n  // }\r\n}\r\n",
  "sourcePath": "C:/Users/KPD-JIAN/Documents/GitHub/Blockchain/Ethereum/CoinFlip-Dapp/project/contracts/coinFlip.sol",
  "compiler": {
    "name": "solc",
    "version": "0.5.12+commit.7709ece9.Emscripten.clang"
  },
  "schemaVersion": "3.0.16",
  "updatedAt": "2020-12-21T16:14:21.125Z",
  "devdoc": {
    "methods": {}
  },
  "userdoc": {
    "methods": {}
  }
}