{
  "contractName": "coinFlip",
  "abi": [
    {
      "anonymous": false,
      "inputs": [
        {
          "indexed": false,
          "internalType": "string",
          "name": "result",
          "type": "string"
        }
      ],
      "name": "betResult",
      "type": "event"
    },
    {
      "anonymous": false,
      "inputs": [
        {
          "indexed": false,
          "internalType": "uint256",
          "name": "amount",
          "type": "uint256"
        }
      ],
      "name": "contractFunded",
      "type": "event"
    },
    {
      "constant": true,
      "inputs": [],
      "name": "getBalance",
      "outputs": [
        {
          "internalType": "uint256",
          "name": "",
          "type": "uint256"
        }
      ],
      "payable": false,
      "stateMutability": "view",
      "type": "function"
    },
    {
      "constant": false,
      "inputs": [],
      "name": "fundContract",
      "outputs": [],
      "payable": true,
      "stateMutability": "payable",
      "type": "function"
    },
    {
      "constant": true,
      "inputs": [],
      "name": "random",
      "outputs": [
        {
          "internalType": "uint256",
          "name": "",
          "type": "uint256"
        }
      ],
      "payable": false,
      "stateMutability": "view",
      "type": "function"
    },
    {
      "constant": false,
      "inputs": [
        {
          "internalType": "uint256",
          "name": "answer",
          "type": "uint256"
        }
      ],
      "name": "bet",
      "outputs": [
        {
          "internalType": "string",
          "name": "",
          "type": "string"
        }
      ],
      "payable": true,
      "stateMutability": "payable",
      "type": "function"
    }
  ],
  "bytecode": "0x608060405234801561001057600080fd5b506103f3806100206000396000f3fe60806040526004361061003f5760003560e01c806312065fe0146100445780635ec01e4d1461006f5780637365870b1461009a578063bd097e2114610141575b600080fd5b34801561005057600080fd5b5061005961014b565b6040518082815260200191505060405180910390f35b34801561007b57600080fd5b5061008461016a565b6040518082815260200191505060405180910390f35b6100c6600480360360208110156100b057600080fd5b810190808035906020019092919050505061017c565b6040518080602001828103825283818151815260200191508051906020019080838360005b838110156101065780820151818401526020810190506100eb565b50505050905090810190601f1680156101335780820380516001836020036101000a031916815260200191505b509250505060405180910390f35b61014961037e565b005b60003073ffffffffffffffffffffffffffffffffffffffff1631905090565b60006002428161017657fe5b06905090565b606067016345785d8a00008034101561019457600080fd5b60606040518060400160405280600b81526020017f596f75207265206c6f7374000000000000000000000000000000000000000000815250905060606040518060400160405280600e81526020017f4e6f70652c20796f75206c6f7374000000000000000000000000000000000000815250905061021061016a565b8514156102d6573373ffffffffffffffffffffffffffffffffffffffff166108fc600234029081150290604051600060405180830381858888f19350505050158015610260573d6000803e3d6000fd5b506040518060400160405280600a81526020017f596f7520726520776f6e0000000000000000000000000000000000000000000081525091506040518060400160405280601781526020017f436f6e67726174756c6174696f6e2c20796f7520776f6e00000000000000000081525090506102d7565b5b7f4a6ed4333e286c7525e638fd3d9dbb2b393ebed6a0de799ee6d260b2d3720188826040518080602001828103825283818151815260200191508051906020019080838360005b8381101561033957808201518184015260208101905061031e565b50505050905090810190601f1680156103665780820380516001836020036101000a031916815260200191505b509250505060405180910390a1809350505050919050565b7ff178429116095c7a6f2d351340cc8eb2a9ba2d5552de04cfda071fced46c67296103a761014b565b6040518082815260200191505060405180910390a156fea265627a7a72315820fb73ea0076f247fc949acbd4048595a23221b6bef45df9723298eda6cb8ac71464736f6c634300050c0032",
  "source": "pragma solidity 0.5.12;\r\n\r\ncontract coinFlip{\r\n\r\n  // uint public balance;\r\n\r\n  modifier costs(uint cost){\r\n      require(msg.value >= cost);\r\n      _;\r\n  }\r\n\r\n  event betResult(string result);\r\n  event contractFunded(uint amount);\r\n\r\n  function getBalance() public view returns(uint){\r\n    return address(this).balance;\r\n  }\r\n\r\n  function fundContract() public payable{\r\n    // balance += msg.value;\r\n    emit contractFunded(getBalance());\r\n  }\r\n\r\n  function random() public view returns(uint){\r\n    return now % 2;\r\n  }\r\n\r\n  function bet(uint answer) public payable costs(0.1 ether)returns(string memory){\r\n    string memory result = \"You re lost\";\r\n    string memory Rr = \"Nope, you lost\";\r\n\r\n    if(answer == random()){\r\n      msg.sender.transfer(msg.value * 2);\r\n      // balance -= msg.value;\r\n      result = \"You re won\";\r\n      Rr = \"Congratulation, you won\";\r\n    }else{\r\n      // balance += msg.value;\r\n    }\r\n\r\n    emit betResult(result);\r\n    return Rr;\r\n  }\r\n\r\n}\r\n",
  "sourcePath": "C:/Users/KPD-JIAN/Documents/GitHub/Blockchain/Ethereum/CoinFlip-Dapp/project/contracts/coinFlip.sol",
  "compiler": {
    "name": "solc",
    "version": "0.5.12+commit.7709ece9.Emscripten.clang"
  },
  "schemaVersion": "3.0.16",
  "updatedAt": "2020-08-22T19:58:42.219Z",
  "devdoc": {
    "methods": {}
  },
  "userdoc": {
    "methods": {}
  }
}