{
  "contractName": "provableRN",
  "abi": [
    {
      "inputs": [],
      "payable": false,
      "stateMutability": "nonpayable",
      "type": "constructor"
    },
    {
      "anonymous": false,
      "inputs": [
        {
          "indexed": false,
          "internalType": "uint256",
          "name": "randomNumber",
          "type": "uint256"
        }
      ],
      "name": "generatedRandomNumber",
      "type": "event"
    },
    {
      "anonymous": false,
      "inputs": [
        {
          "indexed": false,
          "internalType": "string",
          "name": "description",
          "type": "string"
        }
      ],
      "name": "logNewProvableQuery",
      "type": "event"
    },
    {
      "constant": true,
      "inputs": [],
      "name": "latestNumber",
      "outputs": [
        {
          "internalType": "uint256",
          "name": "",
          "type": "uint256"
        }
      ],
      "payable": false,
      "stateMutability": "view",
      "type": "function"
    },
    {
      "constant": false,
      "inputs": [
        {
          "internalType": "uint256",
          "name": "randomNumber",
          "type": "uint256"
        },
        {
          "internalType": "bytes32",
          "name": "queryId",
          "type": "bytes32"
        },
        {
          "internalType": "string",
          "name": "_result",
          "type": "string"
        },
        {
          "internalType": "bytes",
          "name": "_proof",
          "type": "bytes"
        }
      ],
      "name": "callbackFunction",
      "outputs": [],
      "payable": false,
      "stateMutability": "nonpayable",
      "type": "function"
    },
    {
      "constant": false,
      "inputs": [
        {
          "internalType": "bytes32",
          "name": "_myid",
          "type": "bytes32"
        },
        {
          "internalType": "string",
          "name": "_result",
          "type": "string"
        }
      ],
      "name": "__callback",
      "outputs": [],
      "payable": false,
      "stateMutability": "nonpayable",
      "type": "function"
    },
    {
      "constant": false,
      "inputs": [
        {
          "internalType": "bytes32",
          "name": "queryId",
          "type": "bytes32"
        },
        {
          "internalType": "string",
          "name": "_result",
          "type": "string"
        },
        {
          "internalType": "bytes",
          "name": "_proof",
          "type": "bytes"
        }
      ],
      "name": "__callback",
      "outputs": [],
      "payable": false,
      "stateMutability": "nonpayable",
      "type": "function"
    },
    {
      "constant": false,
      "inputs": [],
      "name": "update",
      "outputs": [],
      "payable": true,
      "stateMutability": "payable",
      "type": "function"
    }
  ],
  "bytecode": "0x60806040526000600660006101000a81548160ff0219169083151502179055503480156200002c57600080fd5b506200003d6200004360201b60201c565b62001f67565b6000809050600062030d40905060006200006683600184620000b960201b60201c565b90507f94f2559b5e2b297de3db1587daf2352e872ada3dad01dab9ee3733592fa22ed360405180806020018281038252603c81526020018062004599603c913960400191505060405180910390a1505050565b60008083118015620000cc575060208311155b620000d657600080fd5b600a84029350606060016040519080825280601f01601f191660200182016040528015620001135781602001600182028038833980820191505090505b5090508360f81b816000815181106200012857fe5b60200101907effffffffffffffffffffffffffffffffffffffffffffffffffffffffffffff1916908160001a905350606060206040519080825280601f01601f1916602001820160405280156200018e5781602001600182028038833980820191505090505b509050606060206040519080825280601f01601f191660200182016040528015620001c85781602001600182028038833980820191505090505b5090506000620001dd6200068c60201b60201c565b905060208352424118600143034018602084015260208252806020830152606060206040519080825280601f01601f191660200182016040528015620002325781602001600182028038833980820191505090505b509050886020820152606060086040519080825280601f01601f191660200182016040528015620002725781602001600182028038833980820191505090505b5090506200028d8260186008846000620009c560201b60201c565b506200029862001e76565b60405180608001604052808781526020018881526020018681526020018481525090506000620003056040518060400160405280600681526020017f72616e646f6d0000000000000000000000000000000000000000000000000000815250838c62000a2760201b60201c565b9050606060086040519080825280601f01601f1916602001820160405280156200033e5781602001600182028038833980820191505090505b50905060208401517f0100000000000000000000000000000000000000000000000000000000000000810460278301537e01000000000000000000000000000000000000000000000000000000000000810460268301537d010000000000000000000000000000000000000000000000000000000000810460258301537c0100000000000000000000000000000000000000000000000000000000810460248301537b01000000000000000000000000000000000000000000000000000000810460238301537a010000000000000000000000000000000000000000000000000000810460228301537901000000000000000000000000000000000000000000000000008104602183015378010000000000000000000000000000000000000000000000008104602083015350620006798282856001600481106200047f57fe5b60200201516002876000600481106200049457fe5b60200201516040518082805190602001908083835b60208310620004ce5780518252602082019150602081019050602083039250620004a9565b6001836020036101000a038019825116818451168082178552505050505050905001915050602060405180830381855afa15801562000511573d6000803e3d6000fd5b5050506040513d60208110156200052757600080fd5b8101908080519060200190929190505050876002600481106200054657fe5b60200201516040516020018085805190602001908083835b602083106200058357805182526020820191506020810190506020830392506200055e565b6001836020036101000a03801982511681845116808217855250505050505090500184805190602001908083835b60208310620005d65780518252602082019150602081019050602083039250620005b1565b6001836020036101000a03801982511681845116808217855250505050505090500183815260200182805190602001908083835b602083106200062f57805182526020820191506020810190506020830392506200060a565b6001836020036101000a0380198251168184511680821785525050505050509050019450505050506040516020818303038152906040528051906020012062000dbf60201b60201c565b8199505050505050505050509392505050565b60008073ffffffffffffffffffffffffffffffffffffffff16600160009054906101000a900473ffffffffffffffffffffffffffffffffffffffff1673ffffffffffffffffffffffffffffffffffffffff1614806200071d575060006200071b600160009054906101000a900473ffffffffffffffffffffffffffffffffffffffff1662000ddb60201b60201c565b145b15620007375762000735600062000de660201b60201c565b505b600160009054906101000a900473ffffffffffffffffffffffffffffffffffffffff1673ffffffffffffffffffffffffffffffffffffffff166338cc48316040518163ffffffff1660e01b8152600401602060405180830381600087803b158015620007a257600080fd5b505af1158015620007b7573d6000803e3d6000fd5b505050506040513d6020811015620007ce57600080fd5b810190808051906020019092919050505073ffffffffffffffffffffffffffffffffffffffff166000809054906101000a900473ffffffffffffffffffffffffffffffffffffffff1673ffffffffffffffffffffffffffffffffffffffff16146200091b57600160009054906101000a900473ffffffffffffffffffffffffffffffffffffffff1673ffffffffffffffffffffffffffffffffffffffff166338cc48316040518163ffffffff1660e01b8152600401602060405180830381600087803b1580156200089e57600080fd5b505af1158015620008b3573d6000803e3d6000fd5b505050506040513d6020811015620008ca57600080fd5b81019080805190602001909291905050506000806101000a81548173ffffffffffffffffffffffffffffffffffffffff021916908373ffffffffffffffffffffffffffffffffffffffff1602179055505b6000809054906101000a900473ffffffffffffffffffffffffffffffffffffffff1673ffffffffffffffffffffffffffffffffffffffff1663abaa5f3e6040518163ffffffff1660e01b815260040160206040518083038186803b1580156200098357600080fd5b505afa15801562000998573d6000803e3d6000fd5b505050506040513d6020811015620009af57600080fd5b8101908080519060200190929190505050905090565b6060600082850190508084511015620009dd57600080fd5b600086602001905060008460200190505b86886020010182101562000a185781890151808288015250602082019150602081019050620009ee565b85935050505095945050505050565b60008073ffffffffffffffffffffffffffffffffffffffff16600160009054906101000a900473ffffffffffffffffffffffffffffffffffffffff1673ffffffffffffffffffffffffffffffffffffffff16148062000ab85750600062000ab6600160009054906101000a900473ffffffffffffffffffffffffffffffffffffffff1662000ddb60201b60201c565b145b1562000ad25762000ad0600062000de660201b60201c565b505b600160009054906101000a900473ffffffffffffffffffffffffffffffffffffffff1673ffffffffffffffffffffffffffffffffffffffff166338cc48316040518163ffffffff1660e01b8152600401602060405180830381600087803b15801562000b3d57600080fd5b505af115801562000b52573d6000803e3d6000fd5b505050506040513d602081101562000b6957600080fd5b810190808051906020019092919050505073ffffffffffffffffffffffffffffffffffffffff166000809054906101000a900473ffffffffffffffffffffffffffffffffffffffff1673ffffffffffffffffffffffffffffffffffffffff161462000cb657600160009054906101000a900473ffffffffffffffffffffffffffffffffffffffff1673ffffffffffffffffffffffffffffffffffffffff166338cc48316040518163ffffffff1660e01b8152600401602060405180830381600087803b15801562000c3957600080fd5b505af115801562000c4e573d6000803e3d6000fd5b505050506040513d602081101562000c6557600080fd5b81019080805190602001909291905050506000806101000a81548173ffffffffffffffffffffffffffffffffffffffff021916908373ffffffffffffffffffffffffffffffffffffffff1602179055505b6060600460405190808252806020026020018201604052801562000cef57816020015b606081526020019060019003908162000cd95790505b5090508360006004811062000d0057fe5b60200201518160008151811062000d1357fe5b60200260200101819052508360016004811062000d2c57fe5b60200201518160018151811062000d3f57fe5b60200260200101819052508360026004811062000d5857fe5b60200201518160028151811062000d6b57fe5b60200260200101819052508360036004811062000d8457fe5b60200201518160038151811062000d9757fe5b602002602001018190525062000db585828562000dff60201b60201c565b9150509392505050565b8060036000848152602001908152602001600020819055505050565b6000813b9050919050565b600062000df86200139360201b60201c565b9050919050565b60008073ffffffffffffffffffffffffffffffffffffffff16600160009054906101000a900473ffffffffffffffffffffffffffffffffffffffff1673ffffffffffffffffffffffffffffffffffffffff16148062000e905750600062000e8e600160009054906101000a900473ffffffffffffffffffffffffffffffffffffffff1662000ddb60201b60201c565b145b1562000eaa5762000ea8600062000de660201b60201c565b505b600160009054906101000a900473ffffffffffffffffffffffffffffffffffffffff1673ffffffffffffffffffffffffffffffffffffffff166338cc48316040518163ffffffff1660e01b8152600401602060405180830381600087803b15801562000f1557600080fd5b505af115801562000f2a573d6000803e3d6000fd5b505050506040513d602081101562000f4157600080fd5b810190808051906020019092919050505073ffffffffffffffffffffffffffffffffffffffff166000809054906101000a900473ffffffffffffffffffffffffffffffffffffffff1673ffffffffffffffffffffffffffffffffffffffff16146200108e57600160009054906101000a900473ffffffffffffffffffffffffffffffffffffffff1673ffffffffffffffffffffffffffffffffffffffff166338cc48316040518163ffffffff1660e01b8152600401602060405180830381600087803b1580156200101157600080fd5b505af115801562001026573d6000803e3d6000fd5b505050506040513d60208110156200103d57600080fd5b81019080805190602001909291905050506000806101000a81548173ffffffffffffffffffffffffffffffffffffffff021916908373ffffffffffffffffffffffffffffffffffffffff1602179055505b60008060009054906101000a900473ffffffffffffffffffffffffffffffffffffffff1673ffffffffffffffffffffffffffffffffffffffff16632ef3accc86856040518363ffffffff1660e01b81526004018080602001838152602001828103825284818151815260200191508051906020019080838360005b838110156200112657808201518184015260208101905062001109565b50505050905090810190601f168015620011545780820380516001836020036101000a031916815260200191505b509350505050602060405180830381600087803b1580156200117557600080fd5b505af11580156200118a573d6000803e3d6000fd5b505050506040513d6020811015620011a157600080fd5b81019080805190602001909291905050509050823a02670de0b6b3a764000001811115620011d6576000801b9150506200138c565b6060620011e9856200196260201b60201c565b90506000809054906101000a900473ffffffffffffffffffffffffffffffffffffffff1673ffffffffffffffffffffffffffffffffffffffff1663c55c1cb68360008985896040518663ffffffff1660e01b8152600401808581526020018060200180602001848152602001838103835286818151815260200191508051906020019080838360005b838110156200128f57808201518184015260208101905062001272565b50505050905090810190601f168015620012bd5780820380516001836020036101000a031916815260200191505b50838103825285818151815260200191508051906020019080838360005b83811015620012f8578082015181840152602081019050620012db565b50505050905090810190601f168015620013265780820380516001836020036101000a031916815260200191505b5096505050505050506020604051808303818588803b1580156200134957600080fd5b505af11580156200135e573d6000803e3d6000fd5b50505050506040513d60208110156200137657600080fd5b8101908080519060200190929190505050925050505b9392505050565b600080620013bb731d3b2638a7cc9f2cb3d298a3da7a90b67e5506ed62000ddb60201b60201c565b11156200146757731d3b2638a7cc9f2cb3d298a3da7a90b67e5506ed600160006101000a81548173ffffffffffffffffffffffffffffffffffffffff021916908373ffffffffffffffffffffffffffffffffffffffff1602179055506200145d6040518060400160405280600b81526020017f6574685f6d61696e6e657400000000000000000000000000000000000000000081525062001a1d60201b60201c565b600190506200195f565b60006200148e73c03a2615d5efaf5f49f60b7bb6583eaec212fdf162000ddb60201b60201c565b11156200153a5773c03a2615d5efaf5f49f60b7bb6583eaec212fdf1600160006101000a81548173ffffffffffffffffffffffffffffffffffffffff021916908373ffffffffffffffffffffffffffffffffffffffff160217905550620015306040518060400160405280600c81526020017f6574685f726f707374656e33000000000000000000000000000000000000000081525062001a1d60201b60201c565b600190506200195f565b60006200156173b7a07bcf2ba2f2703b24c0691b5278999c59ac7e62000ddb60201b60201c565b11156200160d5773b7a07bcf2ba2f2703b24c0691b5278999c59ac7e600160006101000a81548173ffffffffffffffffffffffffffffffffffffffff021916908373ffffffffffffffffffffffffffffffffffffffff160217905550620016036040518060400160405280600981526020017f6574685f6b6f76616e000000000000000000000000000000000000000000000081525062001a1d60201b60201c565b600190506200195f565b60006200163473146500cfd35b22e4a392fe0adc06de1a1368ed4862000ddb60201b60201c565b1115620016e05773146500cfd35b22e4a392fe0adc06de1a1368ed48600160006101000a81548173ffffffffffffffffffffffffffffffffffffffff021916908373ffffffffffffffffffffffffffffffffffffffff160217905550620016d66040518060400160405280600b81526020017f6574685f72696e6b65627900000000000000000000000000000000000000000081525062001a1d60201b60201c565b600190506200195f565b60006200170773a2998efd205fb9d4b4963afb70778d6354ad3a4162000ddb60201b60201c565b1115620017b35773a2998efd205fb9d4b4963afb70778d6354ad3a41600160006101000a81548173ffffffffffffffffffffffffffffffffffffffff021916908373ffffffffffffffffffffffffffffffffffffffff160217905550620017a96040518060400160405280600a81526020017f6574685f676f65726c690000000000000000000000000000000000000000000081525062001a1d60201b60201c565b600190506200195f565b6000620017da736f485c8bf6fc43ea212e93bbf8ce046c7f1cb47562000ddb60201b60201c565b11156200184057736f485c8bf6fc43ea212e93bbf8ce046c7f1cb475600160006101000a81548173ffffffffffffffffffffffffffffffffffffffff021916908373ffffffffffffffffffffffffffffffffffffffff160217905550600190506200195f565b6000620018677320e12a1f859b3feae5fb2a0a32c18f5a65555bbf62000ddb60201b60201c565b1115620018cd577320e12a1f859b3feae5fb2a0a32c18f5a65555bbf600160006101000a81548173ffffffffffffffffffffffffffffffffffffffff021916908373ffffffffffffffffffffffffffffffffffffffff160217905550600190506200195f565b6000620018f47351efaf4c8b3c9afbd5ab9f4bbc82784ab6ef8faa62000ddb60201b60201c565b11156200195a577351efaf4c8b3c9afbd5ab9f4bbc82784ab6ef8faa600160006101000a81548173ffffffffffffffffffffffffffffffffffffffff021916908373ffffffffffffffffffffffffffffffffffffffff160217905550600190506200195f565b600090505b90565b60606200197462001a3960201b60201c565b6200197e62001e9e565b620019978161040062001a4560201b6200214e1760201c565b620019ad8162001a9260201b620021981760201c565b60008090505b8351811015620019f957620019eb848281518110620019ce57fe5b60200260200101518362001aa860201b620021a61790919060201c565b8080600101915050620019b3565b5062001a108162001adc60201b620021cb1760201c565b8060000151915050919050565b806002908051906020019062001a3592919062001eb8565b5050565b60405180590338823950565b600081905060006020828162001a5757fe5b061462001a72576020818162001a6957fe5b06602003810190505b808360200181815250506040518084526000815281810160405250505050565b62001aa581600462001af260201b60201c565b50565b62001abd826002835162001b1a60201b60201c565b62001ad7818362001ca260201b6200233a1790919060201c565b505050565b62001aef81600762001af260201b60201c565b50565b62001b16601f60058360ff16901b178362001d6260201b620023e51790919060201c565b5050565b6017811162001b4f5762001b498160058460ff16901b60ff16178462001d6260201b620023e51790919060201c565b62001c9d565b60ff811162001ba05762001b7c601860058460ff16901b178462001d6260201b620023e51790919060201c565b62001b998160018562001dab60201b62002425179092919060201c565b5062001c9c565b61ffff811162001bf25762001bce601960058460ff16901b178462001d6260201b620023e51790919060201c565b62001beb8160028562001dab60201b62002425179092919060201c565b5062001c9b565b63ffffffff811162001c465762001c22601a60058460ff16901b178462001d6260201b620023e51790919060201c565b62001c3f8160048562001dab60201b62002425179092919060201c565b5062001c9a565b67ffffffffffffffff811162001c995762001c7a601b60058460ff16901b178462001d6260201b620023e51790919060201c565b62001c978160088562001dab60201b62002425179092919060201c565b505b5b5b5b5b505050565b62001cac62001e9e565b8260200151836000015151835101111562001ced5762001cec83600262001cdf8660200151865162001e2560201b60201c565b0262001e4360201b60201c565b5b60008060008451905085518051602081830101945086518101825260208701935050505b6020811062001d36578151835260208301925060208201915060208103905062001d11565b60006001826020036101000a039050801983511681855116818117865250508694505050505092915050565b8160200151600183600001515101111562001d915762001d9082600284602001510262001e4360201b60201c565b5b815180516020818301018381536001820183525050505050565b62001db562001e9e565b83602001518460000151518301111562001df45762001df384600262001de687602001518662001e2560201b60201c565b0262001e4360201b60201c565b5b60006001836101000a0390508451805184818301018684198251161781528582018352505050849150509392505050565b60008183111562001e395782905062001e3d565b8190505b92915050565b60608260000151905062001e5e838362001a4560201b60201c565b62001e70838262001ca260201b60201c565b50505050565b60405180608001604052806004905b606081526020019060019003908162001e855790505090565b604051806040016040528060608152602001600081525090565b828054600181600116156101000203166002900490600052602060002090601f016020900481019282601f1062001efb57805160ff191683800117855562001f2c565b8280016001018555821562001f2c579182015b8281111562001f2b57825182559160200191906001019062001f0e565b5b50905062001f3b919062001f3f565b5090565b62001f6491905b8082111562001f6057600081600090555060010162001f46565b5090565b90565b6126228062001f776000396000f3fe60806040526004361061004a5760003560e01c806327dc297e1461004f57806338bbfa50146101215780635ef465121461028a578063a2e62045146103fd578063dc34b0aa14610407575b600080fd5b34801561005b57600080fd5b5061011f6004803603604081101561007257600080fd5b81019080803590602001909291908035906020019064010000000081111561009957600080fd5b8201836020820111156100ab57600080fd5b803590602001918460018302840111640100000000831117156100cd57600080fd5b91908080601f016020809104026020016040519081016040528093929190818152602001838380828437600081840152601f19601f820116905080830192505050505050509192919290505050610432565b005b34801561012d57600080fd5b506102886004803603606081101561014457600080fd5b81019080803590602001909291908035906020019064010000000081111561016b57600080fd5b82018360208201111561017d57600080fd5b8035906020019184600183028401116401000000008311171561019f57600080fd5b91908080601f016020809104026020016040519081016040528093929190818152602001838380828437600081840152601f19601f8201169050808301925050505050505091929192908035906020019064010000000081111561020257600080fd5b82018360208201111561021457600080fd5b8035906020019184600183028401116401000000008311171561023657600080fd5b91908080601f016020809104026020016040519081016040528093929190818152602001838380828437600081840152601f19601f820116905080830192505050505050509192919290505050610475565b005b34801561029657600080fd5b506103fb600480360360808110156102ad57600080fd5b810190808035906020019092919080359060200190929190803590602001906401000000008111156102de57600080fd5b8201836020820111156102f057600080fd5b8035906020019184600183028401116401000000008311171561031257600080fd5b91908080601f016020809104026020016040519081016040528093929190818152602001838380828437600081840152601f19601f8201169050808301925050505050505091929192908035906020019064010000000081111561037557600080fd5b82018360208201111561038757600080fd5b803590602001918460018302840111640100000000831117156103a957600080fd5b91908080601f016020809104026020016040519081016040528093929190818152602001838380828437600081840152601f19601f82011690508083019250505050505050919291929050505061059d565b005b6104056105a3565b005b34801561041357600080fd5b5061041c610610565b6040518082815260200191505060405180910390f35b610471828260006040519080825280601f01601f19166020018201604052801561046b5781602001600182028038833980820191505090505b50610475565b5050565b61047d610616565b73ffffffffffffffffffffffffffffffffffffffff163373ffffffffffffffffffffffffffffffffffffffff16146104b457600080fd5b60006064836040516020018082805190602001908083835b602083106104ef57805182526020820191506020810190506020830392506104cc565b6001836020036101000a0380198251168184511680821785525050505050509050019150506040516020818303038152906040528051906020012060001c8161053457fe5b069050806005819055507fc13d60fe9dffdb6908d2d446cd18134373a51db0738ee04f296eeb9128121cbc816040518082815260200191505060405180910390a1600660009054906101000a900460ff1615610597576105968185858561059d565b5b50505050565b50505050565b6000809050600062030d40905060006105be83600184610933565b90507f94f2559b5e2b297de3db1587daf2352e872ada3dad01dab9ee3733592fa22ed360405180806020018281038252603c8152602001806125b2603c913960400191505060405180910390a1505050565b60055481565b60008073ffffffffffffffffffffffffffffffffffffffff16600160009054906101000a900473ffffffffffffffffffffffffffffffffffffffff1673ffffffffffffffffffffffffffffffffffffffff16148061069e5750600061069c600160009054906101000a900473ffffffffffffffffffffffffffffffffffffffff16610ece565b145b156106af576106ad6000610ed9565b505b600160009054906101000a900473ffffffffffffffffffffffffffffffffffffffff1673ffffffffffffffffffffffffffffffffffffffff166338cc48316040518163ffffffff1660e01b8152600401602060405180830381600087803b15801561071957600080fd5b505af115801561072d573d6000803e3d6000fd5b505050506040513d602081101561074357600080fd5b810190808051906020019092919050505073ffffffffffffffffffffffffffffffffffffffff166000809054906101000a900473ffffffffffffffffffffffffffffffffffffffff1673ffffffffffffffffffffffffffffffffffffffff161461088c57600160009054906101000a900473ffffffffffffffffffffffffffffffffffffffff1673ffffffffffffffffffffffffffffffffffffffff166338cc48316040518163ffffffff1660e01b8152600401602060405180830381600087803b15801561081157600080fd5b505af1158015610825573d6000803e3d6000fd5b505050506040513d602081101561083b57600080fd5b81019080805190602001909291905050506000806101000a81548173ffffffffffffffffffffffffffffffffffffffff021916908373ffffffffffffffffffffffffffffffffffffffff1602179055505b6000809054906101000a900473ffffffffffffffffffffffffffffffffffffffff1673ffffffffffffffffffffffffffffffffffffffff1663c281d19e6040518163ffffffff1660e01b815260040160206040518083038186803b1580156108f357600080fd5b505afa158015610907573d6000803e3d6000fd5b505050506040513d602081101561091d57600080fd5b8101908080519060200190929190505050905090565b60008083118015610945575060208311155b61094e57600080fd5b600a84029350606060016040519080825280601f01601f19166020018201604052801561098a5781602001600182028038833980820191505090505b5090508360f81b8160008151811061099e57fe5b60200101907effffffffffffffffffffffffffffffffffffffffffffffffffffffffffffff1916908160001a905350606060206040519080825280601f01601f191660200182016040528015610a035781602001600182028038833980820191505090505b509050606060206040519080825280601f01601f191660200182016040528015610a3c5781602001600182028038833980820191505090505b5090506000610a49610eea565b905060208352424118600143034018602084015260208252806020830152606060206040519080825280601f01601f191660200182016040528015610a9d5781602001600182028038833980820191505090505b509050886020820152606060086040519080825280601f01601f191660200182016040528015610adc5781602001600182028038833980820191505090505b509050610aef8260186008846000611207565b50610af86124cb565b60405180608001604052808781526020018881526020018681526020018481525090506000610b5d6040518060400160405280600681526020017f72616e646f6d0000000000000000000000000000000000000000000000000000815250838c611266565b9050606060086040519080825280601f01601f191660200182016040528015610b955781602001600182028038833980820191505090505b50905060208401517f0100000000000000000000000000000000000000000000000000000000000000810460278301537e01000000000000000000000000000000000000000000000000000000000000810460268301537d010000000000000000000000000000000000000000000000000000000000810460258301537c0100000000000000000000000000000000000000000000000000000000810460248301537b01000000000000000000000000000000000000000000000000000000810460238301537a010000000000000000000000000000000000000000000000000000810460228301537901000000000000000000000000000000000000000000000000008104602183015378010000000000000000000000000000000000000000000000008104602083015350610ebb828285600160048110610cd457fe5b6020020151600287600060048110610ce857fe5b60200201516040518082805190602001908083835b60208310610d205780518252602082019150602081019050602083039250610cfd565b6001836020036101000a038019825116818451168082178552505050505050905001915050602060405180830381855afa158015610d62573d6000803e3d6000fd5b5050506040513d6020811015610d7757600080fd5b810190808051906020019092919050505087600260048110610d9557fe5b60200201516040516020018085805190602001908083835b60208310610dd05780518252602082019150602081019050602083039250610dad565b6001836020036101000a03801982511681845116808217855250505050505090500184805190602001908083835b60208310610e215780518252602082019150602081019050602083039250610dfe565b6001836020036101000a03801982511681845116808217855250505050505090500183815260200182805190602001908083835b60208310610e785780518252602082019150602081019050602083039250610e55565b6001836020036101000a038019825116818451168082178552505050505050905001945050505050604051602081830303815290604052805190602001206115d3565b8199505050505050505050509392505050565b6000813b9050919050565b6000610ee36115ef565b9050919050565b60008073ffffffffffffffffffffffffffffffffffffffff16600160009054906101000a900473ffffffffffffffffffffffffffffffffffffffff1673ffffffffffffffffffffffffffffffffffffffff161480610f7257506000610f70600160009054906101000a900473ffffffffffffffffffffffffffffffffffffffff16610ece565b145b15610f8357610f816000610ed9565b505b600160009054906101000a900473ffffffffffffffffffffffffffffffffffffffff1673ffffffffffffffffffffffffffffffffffffffff166338cc48316040518163ffffffff1660e01b8152600401602060405180830381600087803b158015610fed57600080fd5b505af1158015611001573d6000803e3d6000fd5b505050506040513d602081101561101757600080fd5b810190808051906020019092919050505073ffffffffffffffffffffffffffffffffffffffff166000809054906101000a900473ffffffffffffffffffffffffffffffffffffffff1673ffffffffffffffffffffffffffffffffffffffff161461116057600160009054906101000a900473ffffffffffffffffffffffffffffffffffffffff1673ffffffffffffffffffffffffffffffffffffffff166338cc48316040518163ffffffff1660e01b8152600401602060405180830381600087803b1580156110e557600080fd5b505af11580156110f9573d6000803e3d6000fd5b505050506040513d602081101561110f57600080fd5b81019080805190602001909291905050506000806101000a81548173ffffffffffffffffffffffffffffffffffffffff021916908373ffffffffffffffffffffffffffffffffffffffff1602179055505b6000809054906101000a900473ffffffffffffffffffffffffffffffffffffffff1673ffffffffffffffffffffffffffffffffffffffff1663abaa5f3e6040518163ffffffff1660e01b815260040160206040518083038186803b1580156111c757600080fd5b505afa1580156111db573d6000803e3d6000fd5b505050506040513d60208110156111f157600080fd5b8101908080519060200190929190505050905090565b606060008285019050808451101561121e57600080fd5b600086602001905060008460200190505b868860200101821015611257578189015180828801525060208201915060208101905061122f565b85935050505095945050505050565b60008073ffffffffffffffffffffffffffffffffffffffff16600160009054906101000a900473ffffffffffffffffffffffffffffffffffffffff1673ffffffffffffffffffffffffffffffffffffffff1614806112ee575060006112ec600160009054906101000a900473ffffffffffffffffffffffffffffffffffffffff16610ece565b145b156112ff576112fd6000610ed9565b505b600160009054906101000a900473ffffffffffffffffffffffffffffffffffffffff1673ffffffffffffffffffffffffffffffffffffffff166338cc48316040518163ffffffff1660e01b8152600401602060405180830381600087803b15801561136957600080fd5b505af115801561137d573d6000803e3d6000fd5b505050506040513d602081101561139357600080fd5b810190808051906020019092919050505073ffffffffffffffffffffffffffffffffffffffff166000809054906101000a900473ffffffffffffffffffffffffffffffffffffffff1673ffffffffffffffffffffffffffffffffffffffff16146114dc57600160009054906101000a900473ffffffffffffffffffffffffffffffffffffffff1673ffffffffffffffffffffffffffffffffffffffff166338cc48316040518163ffffffff1660e01b8152600401602060405180830381600087803b15801561146157600080fd5b505af1158015611475573d6000803e3d6000fd5b505050506040513d602081101561148b57600080fd5b81019080805190602001909291905050506000806101000a81548173ffffffffffffffffffffffffffffffffffffffff021916908373ffffffffffffffffffffffffffffffffffffffff1602179055505b6060600460405190808252806020026020018201604052801561151357816020015b60608152602001906001900390816114fe5790505b5090508360006004811061152357fe5b60200201518160008151811061153557fe5b60200260200101819052508360016004811061154d57fe5b60200201518160018151811061155f57fe5b60200260200101819052508360026004811061157757fe5b60200201518160028151811061158957fe5b6020026020010181905250836003600481106115a157fe5b6020020151816003815181106115b357fe5b60200260200101819052506115c9858285611b46565b9150509392505050565b8060036000848152602001908152602001600020819055505050565b60008061160f731d3b2638a7cc9f2cb3d298a3da7a90b67e5506ed610ece565b11156116b157731d3b2638a7cc9f2cb3d298a3da7a90b67e5506ed600160006101000a81548173ffffffffffffffffffffffffffffffffffffffff021916908373ffffffffffffffffffffffffffffffffffffffff1602179055506116a86040518060400160405280600b81526020017f6574685f6d61696e6e65740000000000000000000000000000000000000000008152506120a8565b60019050611b43565b60006116d073c03a2615d5efaf5f49f60b7bb6583eaec212fdf1610ece565b11156117725773c03a2615d5efaf5f49f60b7bb6583eaec212fdf1600160006101000a81548173ffffffffffffffffffffffffffffffffffffffff021916908373ffffffffffffffffffffffffffffffffffffffff1602179055506117696040518060400160405280600c81526020017f6574685f726f707374656e3300000000000000000000000000000000000000008152506120a8565b60019050611b43565b600061179173b7a07bcf2ba2f2703b24c0691b5278999c59ac7e610ece565b11156118335773b7a07bcf2ba2f2703b24c0691b5278999c59ac7e600160006101000a81548173ffffffffffffffffffffffffffffffffffffffff021916908373ffffffffffffffffffffffffffffffffffffffff16021790555061182a6040518060400160405280600981526020017f6574685f6b6f76616e00000000000000000000000000000000000000000000008152506120a8565b60019050611b43565b600061185273146500cfd35b22e4a392fe0adc06de1a1368ed48610ece565b11156118f45773146500cfd35b22e4a392fe0adc06de1a1368ed48600160006101000a81548173ffffffffffffffffffffffffffffffffffffffff021916908373ffffffffffffffffffffffffffffffffffffffff1602179055506118eb6040518060400160405280600b81526020017f6574685f72696e6b6562790000000000000000000000000000000000000000008152506120a8565b60019050611b43565b600061191373a2998efd205fb9d4b4963afb70778d6354ad3a41610ece565b11156119b55773a2998efd205fb9d4b4963afb70778d6354ad3a41600160006101000a81548173ffffffffffffffffffffffffffffffffffffffff021916908373ffffffffffffffffffffffffffffffffffffffff1602179055506119ac6040518060400160405280600a81526020017f6574685f676f65726c69000000000000000000000000000000000000000000008152506120a8565b60019050611b43565b60006119d4736f485c8bf6fc43ea212e93bbf8ce046c7f1cb475610ece565b1115611a3857736f485c8bf6fc43ea212e93bbf8ce046c7f1cb475600160006101000a81548173ffffffffffffffffffffffffffffffffffffffff021916908373ffffffffffffffffffffffffffffffffffffffff16021790555060019050611b43565b6000611a577320e12a1f859b3feae5fb2a0a32c18f5a65555bbf610ece565b1115611abb577320e12a1f859b3feae5fb2a0a32c18f5a65555bbf600160006101000a81548173ffffffffffffffffffffffffffffffffffffffff021916908373ffffffffffffffffffffffffffffffffffffffff16021790555060019050611b43565b6000611ada7351efaf4c8b3c9afbd5ab9f4bbc82784ab6ef8faa610ece565b1115611b3e577351efaf4c8b3c9afbd5ab9f4bbc82784ab6ef8faa600160006101000a81548173ffffffffffffffffffffffffffffffffffffffff021916908373ffffffffffffffffffffffffffffffffffffffff16021790555060019050611b43565b600090505b90565b60008073ffffffffffffffffffffffffffffffffffffffff16600160009054906101000a900473ffffffffffffffffffffffffffffffffffffffff1673ffffffffffffffffffffffffffffffffffffffff161480611bce57506000611bcc600160009054906101000a900473ffffffffffffffffffffffffffffffffffffffff16610ece565b145b15611bdf57611bdd6000610ed9565b505b600160009054906101000a900473ffffffffffffffffffffffffffffffffffffffff1673ffffffffffffffffffffffffffffffffffffffff166338cc48316040518163ffffffff1660e01b8152600401602060405180830381600087803b158015611c4957600080fd5b505af1158015611c5d573d6000803e3d6000fd5b505050506040513d6020811015611c7357600080fd5b810190808051906020019092919050505073ffffffffffffffffffffffffffffffffffffffff166000809054906101000a900473ffffffffffffffffffffffffffffffffffffffff1673ffffffffffffffffffffffffffffffffffffffff1614611dbc57600160009054906101000a900473ffffffffffffffffffffffffffffffffffffffff1673ffffffffffffffffffffffffffffffffffffffff166338cc48316040518163ffffffff1660e01b8152600401602060405180830381600087803b158015611d4157600080fd5b505af1158015611d55573d6000803e3d6000fd5b505050506040513d6020811015611d6b57600080fd5b81019080805190602001909291905050506000806101000a81548173ffffffffffffffffffffffffffffffffffffffff021916908373ffffffffffffffffffffffffffffffffffffffff1602179055505b60008060009054906101000a900473ffffffffffffffffffffffffffffffffffffffff1673ffffffffffffffffffffffffffffffffffffffff16632ef3accc86856040518363ffffffff1660e01b81526004018080602001838152602001828103825284818151815260200191508051906020019080838360005b83811015611e52578082015181840152602081019050611e37565b50505050905090810190601f168015611e7f5780820380516001836020036101000a031916815260200191505b509350505050602060405180830381600087803b158015611e9f57600080fd5b505af1158015611eb3573d6000803e3d6000fd5b505050506040513d6020811015611ec957600080fd5b81019080805190602001909291905050509050823a02670de0b6b3a764000001811115611efc576000801b9150506120a1565b6060611f07856120c2565b90506000809054906101000a900473ffffffffffffffffffffffffffffffffffffffff1673ffffffffffffffffffffffffffffffffffffffff1663c55c1cb68360008985896040518663ffffffff1660e01b8152600401808581526020018060200180602001848152602001838103835286818151815260200191508051906020019080838360005b83811015611fab578082015181840152602081019050611f90565b50505050905090810190601f168015611fd85780820380516001836020036101000a031916815260200191505b50838103825285818151815260200191508051906020019080838360005b83811015612011578082015181840152602081019050611ff6565b50505050905090810190601f16801561203e5780820380516001836020036101000a031916815260200191505b5096505050505050506020604051808303818588803b15801561206057600080fd5b505af1158015612074573d6000803e3d6000fd5b50505050506040513d602081101561208b57600080fd5b8101908080519060200190929190505050925050505b9392505050565b80600290805190602001906120be9291906124f2565b5050565b60606120cc612142565b6120d4612572565b6120e08161040061214e565b6120e981612198565b60008090505b835181101561212b5761211e84828151811061210757fe5b6020026020010151836121a690919063ffffffff16565b80806001019150506120ef565b50612135816121cb565b8060000151915050919050565b60405180590338823950565b600081905060006020828161215f57fe5b0614612178576020818161216f57fe5b06602003810190505b808360200181815250506040518084526000815281810160405250505050565b6121a38160046121d9565b50565b6121b382600283516121fa565b6121c6818361233a90919063ffffffff16565b505050565b6121d68160076121d9565b50565b6121f6601f60058360ff16901b17836123e590919063ffffffff16565b5050565b60178111612226576122218160058460ff16901b60ff1617846123e590919063ffffffff16565b612335565b60ff81116122675761224b601860058460ff16901b17846123e590919063ffffffff16565b612261816001856124259092919063ffffffff16565b50612334565b61ffff81116122a95761228d601960058460ff16901b17846123e590919063ffffffff16565b6122a3816002856124259092919063ffffffff16565b50612333565b63ffffffff81116122ed576122d1601a60058460ff16901b17846123e590919063ffffffff16565b6122e7816004856124259092919063ffffffff16565b50612332565b67ffffffffffffffff811161233157612319601b60058460ff16901b17846123e590919063ffffffff16565b61232f816008856124259092919063ffffffff16565b505b5b5b5b5b505050565b612342612572565b826020015183600001515183510111156123725761237183600261236b8660200151865161248c565b026124a8565b5b60008060008451905085518051602081830101945086518101825260208701935050505b602081106123b95781518352602083019250602082019150602081039050612396565b60006001826020036101000a039050801983511681855116818117865250508694505050505092915050565b8160200151600183600001515101111561240b5761240a8260028460200151026124a8565b5b815180516020818301018381536001820183525050505050565b61242d612572565b83602001518460000151518301111561245b5761245a84600261245487602001518661248c565b026124a8565b5b60006001836101000a0390508451805184818301018684198251161781528582018352505050849150509392505050565b60008183111561249e578290506124a2565b8190505b92915050565b6060826000015190506124bb838361214e565b6124c5838261233a565b50505050565b60405180608001604052806004905b60608152602001906001900390816124da5790505090565b828054600181600116156101000203166002900490600052602060002090601f016020900481019282601f1061253357805160ff1916838001178555612561565b82800160010185558215612561579182015b82811115612560578251825591602001919060010190612545565b5b50905061256e919061258c565b5090565b604051806040016040528060608152602001600081525090565b6125ae91905b808211156125aa576000816000905550600101612592565b5090565b9056fe517565727920666f722072616e646f6d206e756d62657220686173206265656e2073656e742e2057616974696e6720666f7220726573706f6e73652ea265627a7a723158206bdda3ccfb22985773d11ccfe680a1bcf626604a4f26108802357998abae23f764736f6c634300050c0032517565727920666f722072616e646f6d206e756d62657220686173206265656e2073656e742e2057616974696e6720666f7220726573706f6e73652e",
  "source": "import \"./provableAPI.sol\";\r\npragma solidity 0.5.12;\r\n\r\ncontract provableRN is usingProvable{\r\n\r\n  uint256 constant NUMBER_RANDOM_BYTES = 1;\r\n  uint256 public latestNumber;\r\n  bool internal boolCallbackFunction = false;\r\n\r\n  event logNewProvableQuery(string description);\r\n  event generatedRandomNumber(uint256 randomNumber);\r\n\r\n  constructor() public{\r\n    update();\r\n  }\r\n\r\n  function callbackFunction(uint256 randomNumber, bytes32 queryId, string memory _result, bytes memory _proof) public {}\r\n\r\n  function __callback(bytes32 queryId, string memory _result, bytes memory _proof) public {\r\n    require(msg.sender == provable_cbAddress());\r\n\r\n    uint256 randomNumber = uint256(keccak256(abi.encodePacked(_result))) % 100;\r\n    latestNumber = randomNumber;\r\n    emit generatedRandomNumber(randomNumber);\r\n\r\n    if(boolCallbackFunction){\r\n      callbackFunction(randomNumber, queryId, _result, _proof);\r\n    }\r\n  }\r\n\r\n  function update() payable public{\r\n    uint256 EXECUTION_DELAY = 0;\r\n    uint256 CALLBACK_GAS_LIMIT = 200000;\r\n    bytes32 queryId = provable_newRandomDSQuery(EXECUTION_DELAY,NUMBER_RANDOM_BYTES,\r\n      CALLBACK_GAS_LIMIT);\r\n    emit logNewProvableQuery(\"Query for random number has been sent. Waiting for response.\");\r\n  }\r\n}\r\n",
  "sourcePath": "C:\\Users\\KPD-JIAN\\Documents\\GitHub\\Blockchain\\Ethereum\\CoinFlip-Dapp\\project\\contracts\\provableRN.sol",
  "compiler": {
    "name": "solc",
    "version": "0.5.12+commit.7709ece9.Emscripten.clang"
  },
  "schemaVersion": "3.0.16",
  "updatedAt": "2020-11-27T20:25:21.960Z",
  "devdoc": {
    "methods": {
      "__callback(bytes32,string)": {
        "details": "The following `__callback` functions are just placeholders ideally     meant to be defined in child contract when proofs are used.     The function bodies simply silence compiler warnings."
      }
    }
  },
  "userdoc": {
    "methods": {}
  }
}