{
  "contractName": "provableRN",
  "abi": [
    {
      "anonymous": false,
      "inputs": [
        {
          "indexed": false,
          "internalType": "uint256",
          "name": "randomNumber",
          "type": "uint256"
        }
      ],
      "name": "generatedRandomNumber",
      "type": "event"
    },
    {
      "anonymous": false,
      "inputs": [
        {
          "indexed": false,
          "internalType": "string",
          "name": "description",
          "type": "string"
        },
        {
          "indexed": false,
          "internalType": "bytes32",
          "name": "queryId",
          "type": "bytes32"
        }
      ],
      "name": "logNewProvableQuery",
      "type": "event"
    },
    {
      "constant": true,
      "inputs": [],
      "name": "moduloRN",
      "outputs": [
        {
          "internalType": "uint256",
          "name": "",
          "type": "uint256"
        }
      ],
      "payable": false,
      "stateMutability": "view",
      "type": "function"
    },
    {
      "constant": false,
      "inputs": [
        {
          "internalType": "uint256",
          "name": "randomNumber",
          "type": "uint256"
        },
        {
          "internalType": "bytes32",
          "name": "queryId",
          "type": "bytes32"
        },
        {
          "internalType": "string",
          "name": "_result",
          "type": "string"
        },
        {
          "internalType": "bytes",
          "name": "_proof",
          "type": "bytes"
        }
      ],
      "name": "callbackFunction",
      "outputs": [],
      "payable": false,
      "stateMutability": "nonpayable",
      "type": "function"
    },
    {
      "constant": false,
      "inputs": [
        {
          "internalType": "bytes32",
          "name": "_myid",
          "type": "bytes32"
        },
        {
          "internalType": "string",
          "name": "_result",
          "type": "string"
        }
      ],
      "name": "__callback",
      "outputs": [],
      "payable": false,
      "stateMutability": "nonpayable",
      "type": "function"
    },
    {
      "constant": false,
      "inputs": [
        {
          "internalType": "bytes32",
          "name": "queryId",
          "type": "bytes32"
        },
        {
          "internalType": "string",
          "name": "_result",
          "type": "string"
        },
        {
          "internalType": "bytes",
          "name": "_proof",
          "type": "bytes"
        }
      ],
      "name": "__callback",
      "outputs": [],
      "payable": false,
      "stateMutability": "nonpayable",
      "type": "function"
    },
    {
      "constant": false,
      "inputs": [],
      "name": "generateRandomNumber",
      "outputs": [
        {
          "internalType": "bytes32",
          "name": "",
          "type": "bytes32"
        }
      ],
      "payable": true,
      "stateMutability": "payable",
      "type": "function"
    }
  ],
  "bytecode": "0x6080604052600060055562030d406006556000600760006101000a81548160ff021916908315150217905550606460085534801561003c57600080fd5b506126328061004c6000396000f3fe60806040526004361061004a5760003560e01c806327dc297e1461004f57806338bbfa50146101215780635ef465121461028a578063773a1154146103fd578063842a46ba1461041b575b600080fd5b34801561005b57600080fd5b5061011f6004803603604081101561007257600080fd5b81019080803590602001909291908035906020019064010000000081111561009957600080fd5b8201836020820111156100ab57600080fd5b803590602001918460018302840111640100000000831117156100cd57600080fd5b91908080601f016020809104026020016040519081016040528093929190818152602001838380828437600081840152601f19601f820116905080830192505050505050509192919290505050610446565b005b34801561012d57600080fd5b506102886004803603606081101561014457600080fd5b81019080803590602001909291908035906020019064010000000081111561016b57600080fd5b82018360208201111561017d57600080fd5b8035906020019184600183028401116401000000008311171561019f57600080fd5b91908080601f016020809104026020016040519081016040528093929190818152602001838380828437600081840152601f19601f8201169050808301925050505050505091929192908035906020019064010000000081111561020257600080fd5b82018360208201111561021457600080fd5b8035906020019184600183028401116401000000008311171561023657600080fd5b91908080601f016020809104026020016040519081016040528093929190818152602001838380828437600081840152601f19601f820116905080830192505050505050509192919290505050610489565b005b34801561029657600080fd5b506103fb600480360360808110156102ad57600080fd5b810190808035906020019092919080359060200190929190803590602001906401000000008111156102de57600080fd5b8201836020820111156102f057600080fd5b8035906020019184600183028401116401000000008311171561031257600080fd5b91908080601f016020809104026020016040519081016040528093929190818152602001838380828437600081840152601f19601f8201169050808301925050505050505091929192908035906020019064010000000081111561037557600080fd5b82018360208201111561038757600080fd5b803590602001918460018302840111640100000000831117156103a957600080fd5b91908080601f016020809104026020016040519081016040528093929190818152602001838380828437600081840152601f19601f8201169050808301925050505050505091929192905050506105ab565b005b6104056105b1565b6040518082815260200191505060405180910390f35b34801561042757600080fd5b50610430610620565b6040518082815260200191505060405180910390f35b610485828260006040519080825280601f01601f19166020018201604052801561047f5781602001600182028038833980820191505090505b50610489565b5050565b610491610626565b73ffffffffffffffffffffffffffffffffffffffff163373ffffffffffffffffffffffffffffffffffffffff16146104c857600080fd5b6000600854836040516020018082805190602001908083835b6020831061050457805182526020820191506020810190506020830392506104e1565b6001836020036101000a0380198251168184511680821785525050505050509050019150506040516020818303038152906040528051906020012060001c8161054957fe5b0690507fc13d60fe9dffdb6908d2d446cd18134373a51db0738ee04f296eeb9128121cbc816040518082815260200191505060405180910390a1600760009054906101000a900460ff16156105a5576105a4818585856105ab565b5b50505050565b50505050565b6000806105c46005546001600654610943565b90507f65f839c495f2f1f1cef295a34f7a542c84344c69db353d0e66db7bfd86303a6f8160405180806020018381526020018281038252603c8152602001806125c2603c91396040019250505060405180910390a18091505090565b60085481565b60008073ffffffffffffffffffffffffffffffffffffffff16600160009054906101000a900473ffffffffffffffffffffffffffffffffffffffff1673ffffffffffffffffffffffffffffffffffffffff1614806106ae575060006106ac600160009054906101000a900473ffffffffffffffffffffffffffffffffffffffff16610ede565b145b156106bf576106bd6000610ee9565b505b600160009054906101000a900473ffffffffffffffffffffffffffffffffffffffff1673ffffffffffffffffffffffffffffffffffffffff166338cc48316040518163ffffffff1660e01b8152600401602060405180830381600087803b15801561072957600080fd5b505af115801561073d573d6000803e3d6000fd5b505050506040513d602081101561075357600080fd5b810190808051906020019092919050505073ffffffffffffffffffffffffffffffffffffffff166000809054906101000a900473ffffffffffffffffffffffffffffffffffffffff1673ffffffffffffffffffffffffffffffffffffffff161461089c57600160009054906101000a900473ffffffffffffffffffffffffffffffffffffffff1673ffffffffffffffffffffffffffffffffffffffff166338cc48316040518163ffffffff1660e01b8152600401602060405180830381600087803b15801561082157600080fd5b505af1158015610835573d6000803e3d6000fd5b505050506040513d602081101561084b57600080fd5b81019080805190602001909291905050506000806101000a81548173ffffffffffffffffffffffffffffffffffffffff021916908373ffffffffffffffffffffffffffffffffffffffff1602179055505b6000809054906101000a900473ffffffffffffffffffffffffffffffffffffffff1673ffffffffffffffffffffffffffffffffffffffff1663c281d19e6040518163ffffffff1660e01b815260040160206040518083038186803b15801561090357600080fd5b505afa158015610917573d6000803e3d6000fd5b505050506040513d602081101561092d57600080fd5b8101908080519060200190929190505050905090565b60008083118015610955575060208311155b61095e57600080fd5b600a84029350606060016040519080825280601f01601f19166020018201604052801561099a5781602001600182028038833980820191505090505b5090508360f81b816000815181106109ae57fe5b60200101907effffffffffffffffffffffffffffffffffffffffffffffffffffffffffffff1916908160001a905350606060206040519080825280601f01601f191660200182016040528015610a135781602001600182028038833980820191505090505b509050606060206040519080825280601f01601f191660200182016040528015610a4c5781602001600182028038833980820191505090505b5090506000610a59610efa565b905060208352424118600143034018602084015260208252806020830152606060206040519080825280601f01601f191660200182016040528015610aad5781602001600182028038833980820191505090505b509050886020820152606060086040519080825280601f01601f191660200182016040528015610aec5781602001600182028038833980820191505090505b509050610aff8260186008846000611217565b50610b086124db565b60405180608001604052808781526020018881526020018681526020018481525090506000610b6d6040518060400160405280600681526020017f72616e646f6d0000000000000000000000000000000000000000000000000000815250838c611276565b9050606060086040519080825280601f01601f191660200182016040528015610ba55781602001600182028038833980820191505090505b50905060208401517f0100000000000000000000000000000000000000000000000000000000000000810460278301537e01000000000000000000000000000000000000000000000000000000000000810460268301537d010000000000000000000000000000000000000000000000000000000000810460258301537c0100000000000000000000000000000000000000000000000000000000810460248301537b01000000000000000000000000000000000000000000000000000000810460238301537a010000000000000000000000000000000000000000000000000000810460228301537901000000000000000000000000000000000000000000000000008104602183015378010000000000000000000000000000000000000000000000008104602083015350610ecb828285600160048110610ce457fe5b6020020151600287600060048110610cf857fe5b60200201516040518082805190602001908083835b60208310610d305780518252602082019150602081019050602083039250610d0d565b6001836020036101000a038019825116818451168082178552505050505050905001915050602060405180830381855afa158015610d72573d6000803e3d6000fd5b5050506040513d6020811015610d8757600080fd5b810190808051906020019092919050505087600260048110610da557fe5b60200201516040516020018085805190602001908083835b60208310610de05780518252602082019150602081019050602083039250610dbd565b6001836020036101000a03801982511681845116808217855250505050505090500184805190602001908083835b60208310610e315780518252602082019150602081019050602083039250610e0e565b6001836020036101000a03801982511681845116808217855250505050505090500183815260200182805190602001908083835b60208310610e885780518252602082019150602081019050602083039250610e65565b6001836020036101000a038019825116818451168082178552505050505050905001945050505050604051602081830303815290604052805190602001206115e3565b8199505050505050505050509392505050565b6000813b9050919050565b6000610ef36115ff565b9050919050565b60008073ffffffffffffffffffffffffffffffffffffffff16600160009054906101000a900473ffffffffffffffffffffffffffffffffffffffff1673ffffffffffffffffffffffffffffffffffffffff161480610f8257506000610f80600160009054906101000a900473ffffffffffffffffffffffffffffffffffffffff16610ede565b145b15610f9357610f916000610ee9565b505b600160009054906101000a900473ffffffffffffffffffffffffffffffffffffffff1673ffffffffffffffffffffffffffffffffffffffff166338cc48316040518163ffffffff1660e01b8152600401602060405180830381600087803b158015610ffd57600080fd5b505af1158015611011573d6000803e3d6000fd5b505050506040513d602081101561102757600080fd5b810190808051906020019092919050505073ffffffffffffffffffffffffffffffffffffffff166000809054906101000a900473ffffffffffffffffffffffffffffffffffffffff1673ffffffffffffffffffffffffffffffffffffffff161461117057600160009054906101000a900473ffffffffffffffffffffffffffffffffffffffff1673ffffffffffffffffffffffffffffffffffffffff166338cc48316040518163ffffffff1660e01b8152600401602060405180830381600087803b1580156110f557600080fd5b505af1158015611109573d6000803e3d6000fd5b505050506040513d602081101561111f57600080fd5b81019080805190602001909291905050506000806101000a81548173ffffffffffffffffffffffffffffffffffffffff021916908373ffffffffffffffffffffffffffffffffffffffff1602179055505b6000809054906101000a900473ffffffffffffffffffffffffffffffffffffffff1673ffffffffffffffffffffffffffffffffffffffff1663abaa5f3e6040518163ffffffff1660e01b815260040160206040518083038186803b1580156111d757600080fd5b505afa1580156111eb573d6000803e3d6000fd5b505050506040513d602081101561120157600080fd5b8101908080519060200190929190505050905090565b606060008285019050808451101561122e57600080fd5b600086602001905060008460200190505b868860200101821015611267578189015180828801525060208201915060208101905061123f565b85935050505095945050505050565b60008073ffffffffffffffffffffffffffffffffffffffff16600160009054906101000a900473ffffffffffffffffffffffffffffffffffffffff1673ffffffffffffffffffffffffffffffffffffffff1614806112fe575060006112fc600160009054906101000a900473ffffffffffffffffffffffffffffffffffffffff16610ede565b145b1561130f5761130d6000610ee9565b505b600160009054906101000a900473ffffffffffffffffffffffffffffffffffffffff1673ffffffffffffffffffffffffffffffffffffffff166338cc48316040518163ffffffff1660e01b8152600401602060405180830381600087803b15801561137957600080fd5b505af115801561138d573d6000803e3d6000fd5b505050506040513d60208110156113a357600080fd5b810190808051906020019092919050505073ffffffffffffffffffffffffffffffffffffffff166000809054906101000a900473ffffffffffffffffffffffffffffffffffffffff1673ffffffffffffffffffffffffffffffffffffffff16146114ec57600160009054906101000a900473ffffffffffffffffffffffffffffffffffffffff1673ffffffffffffffffffffffffffffffffffffffff166338cc48316040518163ffffffff1660e01b8152600401602060405180830381600087803b15801561147157600080fd5b505af1158015611485573d6000803e3d6000fd5b505050506040513d602081101561149b57600080fd5b81019080805190602001909291905050506000806101000a81548173ffffffffffffffffffffffffffffffffffffffff021916908373ffffffffffffffffffffffffffffffffffffffff1602179055505b6060600460405190808252806020026020018201604052801561152357816020015b606081526020019060019003908161150e5790505b5090508360006004811061153357fe5b60200201518160008151811061154557fe5b60200260200101819052508360016004811061155d57fe5b60200201518160018151811061156f57fe5b60200260200101819052508360026004811061158757fe5b60200201518160028151811061159957fe5b6020026020010181905250836003600481106115b157fe5b6020020151816003815181106115c357fe5b60200260200101819052506115d9858285611b56565b9150509392505050565b8060036000848152602001908152602001600020819055505050565b60008061161f731d3b2638a7cc9f2cb3d298a3da7a90b67e5506ed610ede565b11156116c157731d3b2638a7cc9f2cb3d298a3da7a90b67e5506ed600160006101000a81548173ffffffffffffffffffffffffffffffffffffffff021916908373ffffffffffffffffffffffffffffffffffffffff1602179055506116b86040518060400160405280600b81526020017f6574685f6d61696e6e65740000000000000000000000000000000000000000008152506120b8565b60019050611b53565b60006116e073c03a2615d5efaf5f49f60b7bb6583eaec212fdf1610ede565b11156117825773c03a2615d5efaf5f49f60b7bb6583eaec212fdf1600160006101000a81548173ffffffffffffffffffffffffffffffffffffffff021916908373ffffffffffffffffffffffffffffffffffffffff1602179055506117796040518060400160405280600c81526020017f6574685f726f707374656e3300000000000000000000000000000000000000008152506120b8565b60019050611b53565b60006117a173b7a07bcf2ba2f2703b24c0691b5278999c59ac7e610ede565b11156118435773b7a07bcf2ba2f2703b24c0691b5278999c59ac7e600160006101000a81548173ffffffffffffffffffffffffffffffffffffffff021916908373ffffffffffffffffffffffffffffffffffffffff16021790555061183a6040518060400160405280600981526020017f6574685f6b6f76616e00000000000000000000000000000000000000000000008152506120b8565b60019050611b53565b600061186273146500cfd35b22e4a392fe0adc06de1a1368ed48610ede565b11156119045773146500cfd35b22e4a392fe0adc06de1a1368ed48600160006101000a81548173ffffffffffffffffffffffffffffffffffffffff021916908373ffffffffffffffffffffffffffffffffffffffff1602179055506118fb6040518060400160405280600b81526020017f6574685f72696e6b6562790000000000000000000000000000000000000000008152506120b8565b60019050611b53565b600061192373a2998efd205fb9d4b4963afb70778d6354ad3a41610ede565b11156119c55773a2998efd205fb9d4b4963afb70778d6354ad3a41600160006101000a81548173ffffffffffffffffffffffffffffffffffffffff021916908373ffffffffffffffffffffffffffffffffffffffff1602179055506119bc6040518060400160405280600a81526020017f6574685f676f65726c69000000000000000000000000000000000000000000008152506120b8565b60019050611b53565b60006119e4736f485c8bf6fc43ea212e93bbf8ce046c7f1cb475610ede565b1115611a4857736f485c8bf6fc43ea212e93bbf8ce046c7f1cb475600160006101000a81548173ffffffffffffffffffffffffffffffffffffffff021916908373ffffffffffffffffffffffffffffffffffffffff16021790555060019050611b53565b6000611a677320e12a1f859b3feae5fb2a0a32c18f5a65555bbf610ede565b1115611acb577320e12a1f859b3feae5fb2a0a32c18f5a65555bbf600160006101000a81548173ffffffffffffffffffffffffffffffffffffffff021916908373ffffffffffffffffffffffffffffffffffffffff16021790555060019050611b53565b6000611aea7351efaf4c8b3c9afbd5ab9f4bbc82784ab6ef8faa610ede565b1115611b4e577351efaf4c8b3c9afbd5ab9f4bbc82784ab6ef8faa600160006101000a81548173ffffffffffffffffffffffffffffffffffffffff021916908373ffffffffffffffffffffffffffffffffffffffff16021790555060019050611b53565b600090505b90565b60008073ffffffffffffffffffffffffffffffffffffffff16600160009054906101000a900473ffffffffffffffffffffffffffffffffffffffff1673ffffffffffffffffffffffffffffffffffffffff161480611bde57506000611bdc600160009054906101000a900473ffffffffffffffffffffffffffffffffffffffff16610ede565b145b15611bef57611bed6000610ee9565b505b600160009054906101000a900473ffffffffffffffffffffffffffffffffffffffff1673ffffffffffffffffffffffffffffffffffffffff166338cc48316040518163ffffffff1660e01b8152600401602060405180830381600087803b158015611c5957600080fd5b505af1158015611c6d573d6000803e3d6000fd5b505050506040513d6020811015611c8357600080fd5b810190808051906020019092919050505073ffffffffffffffffffffffffffffffffffffffff166000809054906101000a900473ffffffffffffffffffffffffffffffffffffffff1673ffffffffffffffffffffffffffffffffffffffff1614611dcc57600160009054906101000a900473ffffffffffffffffffffffffffffffffffffffff1673ffffffffffffffffffffffffffffffffffffffff166338cc48316040518163ffffffff1660e01b8152600401602060405180830381600087803b158015611d5157600080fd5b505af1158015611d65573d6000803e3d6000fd5b505050506040513d6020811015611d7b57600080fd5b81019080805190602001909291905050506000806101000a81548173ffffffffffffffffffffffffffffffffffffffff021916908373ffffffffffffffffffffffffffffffffffffffff1602179055505b60008060009054906101000a900473ffffffffffffffffffffffffffffffffffffffff1673ffffffffffffffffffffffffffffffffffffffff16632ef3accc86856040518363ffffffff1660e01b81526004018080602001838152602001828103825284818151815260200191508051906020019080838360005b83811015611e62578082015181840152602081019050611e47565b50505050905090810190601f168015611e8f5780820380516001836020036101000a031916815260200191505b509350505050602060405180830381600087803b158015611eaf57600080fd5b505af1158015611ec3573d6000803e3d6000fd5b505050506040513d6020811015611ed957600080fd5b81019080805190602001909291905050509050823a02670de0b6b3a764000001811115611f0c576000801b9150506120b1565b6060611f17856120d2565b90506000809054906101000a900473ffffffffffffffffffffffffffffffffffffffff1673ffffffffffffffffffffffffffffffffffffffff1663c55c1cb68360008985896040518663ffffffff1660e01b8152600401808581526020018060200180602001848152602001838103835286818151815260200191508051906020019080838360005b83811015611fbb578082015181840152602081019050611fa0565b50505050905090810190601f168015611fe85780820380516001836020036101000a031916815260200191505b50838103825285818151815260200191508051906020019080838360005b83811015612021578082015181840152602081019050612006565b50505050905090810190601f16801561204e5780820380516001836020036101000a031916815260200191505b5096505050505050506020604051808303818588803b15801561207057600080fd5b505af1158015612084573d6000803e3d6000fd5b50505050506040513d602081101561209b57600080fd5b8101908080519060200190929190505050925050505b9392505050565b80600290805190602001906120ce929190612502565b5050565b60606120dc612152565b6120e4612582565b6120f08161040061215e565b6120f9816121a8565b60008090505b835181101561213b5761212e84828151811061211757fe5b6020026020010151836121b690919063ffffffff16565b80806001019150506120ff565b50612145816121db565b8060000151915050919050565b60405180590338823950565b600081905060006020828161216f57fe5b0614612188576020818161217f57fe5b06602003810190505b808360200181815250506040518084526000815281810160405250505050565b6121b38160046121e9565b50565b6121c3826002835161220a565b6121d6818361234a90919063ffffffff16565b505050565b6121e68160076121e9565b50565b612206601f60058360ff16901b17836123f590919063ffffffff16565b5050565b60178111612236576122318160058460ff16901b60ff1617846123f590919063ffffffff16565b612345565b60ff81116122775761225b601860058460ff16901b17846123f590919063ffffffff16565b612271816001856124359092919063ffffffff16565b50612344565b61ffff81116122b95761229d601960058460ff16901b17846123f590919063ffffffff16565b6122b3816002856124359092919063ffffffff16565b50612343565b63ffffffff81116122fd576122e1601a60058460ff16901b17846123f590919063ffffffff16565b6122f7816004856124359092919063ffffffff16565b50612342565b67ffffffffffffffff811161234157612329601b60058460ff16901b17846123f590919063ffffffff16565b61233f816008856124359092919063ffffffff16565b505b5b5b5b5b505050565b612352612582565b826020015183600001515183510111156123825761238183600261237b8660200151865161249c565b026124b8565b5b60008060008451905085518051602081830101945086518101825260208701935050505b602081106123c957815183526020830192506020820191506020810390506123a6565b60006001826020036101000a039050801983511681855116818117865250508694505050505092915050565b8160200151600183600001515101111561241b5761241a8260028460200151026124b8565b5b815180516020818301018381536001820183525050505050565b61243d612582565b83602001518460000151518301111561246b5761246a84600261246487602001518661249c565b026124b8565b5b60006001836101000a0390508451805184818301018684198251161781528582018352505050849150509392505050565b6000818311156124ae578290506124b2565b8190505b92915050565b6060826000015190506124cb838361215e565b6124d5838261234a565b50505050565b60405180608001604052806004905b60608152602001906001900390816124ea5790505090565b828054600181600116156101000203166002900490600052602060002090601f016020900481019282601f1061254357805160ff1916838001178555612571565b82800160010185558215612571579182015b82811115612570578251825591602001919060010190612555565b5b50905061257e919061259c565b5090565b604051806040016040528060608152602001600081525090565b6125be91905b808211156125ba5760008160009055506001016125a2565b5090565b9056fe517565727920666f722072616e646f6d206e756d62657220686173206265656e2073656e742e2057616974696e6720666f7220726573706f6e73652ea265627a7a72315820c785bb846c19365b4b87271bd836330a19216e9dd2b357911dfaedae5603d94c64736f6c634300050c0032",
  "source": "import \"./provableAPI.sol\";\r\npragma solidity 0.5.12;\r\n\r\ncontract provableRN is usingProvable{\r\n\r\n  uint256 constant NUMBER_RANDOM_BYTES = 1;\r\n  uint256 EXECUTION_DELAY = 0;\r\n  uint256 CALLBACK_GAS_LIMIT = 200000;\r\n  bool boolCallbackFunction = false;\r\n  uint256 public moduloRN = 100; // Modula for determining range of the random number\r\n\r\n  event logNewProvableQuery(string description, bytes32 queryId);\r\n  event generatedRandomNumber(uint256 randomNumber);\r\n\r\n  // constructor() public{\r\n  //   generateRandomNumber();\r\n  // }\r\n\r\n  function callbackFunction(uint256 randomNumber, bytes32 queryId, string memory _result, bytes memory _proof) public {}\r\n\r\n  function __callback(bytes32 queryId, string memory _result, bytes memory _proof) public {\r\n    require(msg.sender == provable_cbAddress());\r\n\r\n    uint256 randomNumber = uint256(keccak256(abi.encodePacked(_result))) % moduloRN;\r\n    emit generatedRandomNumber(randomNumber);\r\n\r\n    if(boolCallbackFunction){\r\n      callbackFunction(randomNumber, queryId, _result, _proof);\r\n    }\r\n  }\r\n\r\n  function generateRandomNumber() payable public returns(bytes32){\r\n    bytes32 queryId = provable_newRandomDSQuery(EXECUTION_DELAY,NUMBER_RANDOM_BYTES,\r\n      CALLBACK_GAS_LIMIT);\r\n    emit logNewProvableQuery(\"Query for random number has been sent. Waiting for response.\", queryId);\r\n    return queryId;\r\n  }\r\n}\r\n",
  "sourcePath": "C:/Users/KPD-JIAN/Documents/GitHub/Blockchain/Ethereum/CoinFlip-Dapp/project/contracts/provableRN.sol",
  "compiler": {
    "name": "solc",
    "version": "0.5.12+commit.7709ece9.Emscripten.clang"
  },
  "schemaVersion": "3.0.16",
  "updatedAt": "2020-11-29T21:01:07.174Z",
  "devdoc": {
    "methods": {
      "__callback(bytes32,string)": {
        "details": "The following `__callback` functions are just placeholders ideally     meant to be defined in child contract when proofs are used.     The function bodies simply silence compiler warnings."
      }
    }
  },
  "userdoc": {
    "methods": {}
  }
}