{
  "contractName": "randomExample",
  "abi": [
    {
      "inputs": [],
      "payable": false,
      "stateMutability": "nonpayable",
      "type": "constructor"
    },
    {
      "anonymous": false,
      "inputs": [
        {
          "indexed": false,
          "internalType": "uint256",
          "name": "randomNumber",
          "type": "uint256"
        }
      ],
      "name": "generatedRandomNumber",
      "type": "event"
    },
    {
      "anonymous": false,
      "inputs": [
        {
          "indexed": false,
          "internalType": "string",
          "name": "description",
          "type": "string"
        }
      ],
      "name": "logNewProvableQuery",
      "type": "event"
    },
    {
      "constant": true,
      "inputs": [],
      "name": "latestNumber",
      "outputs": [
        {
          "internalType": "uint256",
          "name": "",
          "type": "uint256"
        }
      ],
      "payable": false,
      "stateMutability": "view",
      "type": "function"
    },
    {
      "constant": false,
      "inputs": [
        {
          "internalType": "bytes32",
          "name": "_myid",
          "type": "bytes32"
        },
        {
          "internalType": "string",
          "name": "_result",
          "type": "string"
        }
      ],
      "name": "__callback",
      "outputs": [],
      "payable": false,
      "stateMutability": "nonpayable",
      "type": "function"
    },
    {
      "constant": false,
      "inputs": [
        {
          "internalType": "bytes32",
          "name": "queryId",
          "type": "bytes32"
        },
        {
          "internalType": "string",
          "name": "_result",
          "type": "string"
        },
        {
          "internalType": "bytes",
          "name": "_proof",
          "type": "bytes"
        }
      ],
      "name": "__callback",
      "outputs": [],
      "payable": false,
      "stateMutability": "nonpayable",
      "type": "function"
    },
    {
      "constant": false,
      "inputs": [],
      "name": "update",
      "outputs": [],
      "payable": true,
      "stateMutability": "payable",
      "type": "function"
    }
  ],
  "bytecode": "0x60806040523480156200001157600080fd5b50620000226200002860201b60201c565b62001f4c565b6000809050600062030d40905060006200004b836001846200009e60201b60201c565b90507f94f2559b5e2b297de3db1587daf2352e872ada3dad01dab9ee3733592fa22ed360405180806020018281038252603c815260200180620043d8603c913960400191505060405180910390a1505050565b60008083118015620000b1575060208311155b620000bb57600080fd5b600a84029350606060016040519080825280601f01601f191660200182016040528015620000f85781602001600182028038833980820191505090505b5090508360f81b816000815181106200010d57fe5b60200101907effffffffffffffffffffffffffffffffffffffffffffffffffffffffffffff1916908160001a905350606060206040519080825280601f01601f191660200182016040528015620001735781602001600182028038833980820191505090505b509050606060206040519080825280601f01601f191660200182016040528015620001ad5781602001600182028038833980820191505090505b5090506000620001c26200067160201b60201c565b905060208352424118600143034018602084015260208252806020830152606060206040519080825280601f01601f191660200182016040528015620002175781602001600182028038833980820191505090505b509050886020820152606060086040519080825280601f01601f191660200182016040528015620002575781602001600182028038833980820191505090505b509050620002728260186008846000620009aa60201b60201c565b506200027d62001e5b565b60405180608001604052808781526020018881526020018681526020018481525090506000620002ea6040518060400160405280600681526020017f72616e646f6d0000000000000000000000000000000000000000000000000000815250838c62000a0c60201b60201c565b9050606060086040519080825280601f01601f191660200182016040528015620003235781602001600182028038833980820191505090505b50905060208401517f0100000000000000000000000000000000000000000000000000000000000000810460278301537e01000000000000000000000000000000000000000000000000000000000000810460268301537d010000000000000000000000000000000000000000000000000000000000810460258301537c0100000000000000000000000000000000000000000000000000000000810460248301537b01000000000000000000000000000000000000000000000000000000810460238301537a0100000000000000000000000000000000000000000000000000008104602283015379010000000000000000000000000000000000000000000000000081046021830153780100000000000000000000000000000000000000000000000081046020830153506200065e8282856001600481106200046457fe5b60200201516002876000600481106200047957fe5b60200201516040518082805190602001908083835b60208310620004b357805182526020820191506020810190506020830392506200048e565b6001836020036101000a038019825116818451168082178552505050505050905001915050602060405180830381855afa158015620004f6573d6000803e3d6000fd5b5050506040513d60208110156200050c57600080fd5b8101908080519060200190929190505050876002600481106200052b57fe5b60200201516040516020018085805190602001908083835b6020831062000568578051825260208201915060208101905060208303925062000543565b6001836020036101000a03801982511681845116808217855250505050505090500184805190602001908083835b60208310620005bb578051825260208201915060208101905060208303925062000596565b6001836020036101000a03801982511681845116808217855250505050505090500183815260200182805190602001908083835b60208310620006145780518252602082019150602081019050602083039250620005ef565b6001836020036101000a0380198251168184511680821785525050505050509050019450505050506040516020818303038152906040528051906020012062000da460201b60201c565b8199505050505050505050509392505050565b60008073ffffffffffffffffffffffffffffffffffffffff16600160009054906101000a900473ffffffffffffffffffffffffffffffffffffffff1673ffffffffffffffffffffffffffffffffffffffff161480620007025750600062000700600160009054906101000a900473ffffffffffffffffffffffffffffffffffffffff1662000dc060201b60201c565b145b156200071c576200071a600062000dcb60201b60201c565b505b600160009054906101000a900473ffffffffffffffffffffffffffffffffffffffff1673ffffffffffffffffffffffffffffffffffffffff166338cc48316040518163ffffffff1660e01b8152600401602060405180830381600087803b1580156200078757600080fd5b505af11580156200079c573d6000803e3d6000fd5b505050506040513d6020811015620007b357600080fd5b810190808051906020019092919050505073ffffffffffffffffffffffffffffffffffffffff166000809054906101000a900473ffffffffffffffffffffffffffffffffffffffff1673ffffffffffffffffffffffffffffffffffffffff16146200090057600160009054906101000a900473ffffffffffffffffffffffffffffffffffffffff1673ffffffffffffffffffffffffffffffffffffffff166338cc48316040518163ffffffff1660e01b8152600401602060405180830381600087803b1580156200088357600080fd5b505af115801562000898573d6000803e3d6000fd5b505050506040513d6020811015620008af57600080fd5b81019080805190602001909291905050506000806101000a81548173ffffffffffffffffffffffffffffffffffffffff021916908373ffffffffffffffffffffffffffffffffffffffff1602179055505b6000809054906101000a900473ffffffffffffffffffffffffffffffffffffffff1673ffffffffffffffffffffffffffffffffffffffff1663abaa5f3e6040518163ffffffff1660e01b815260040160206040518083038186803b1580156200096857600080fd5b505afa1580156200097d573d6000803e3d6000fd5b505050506040513d60208110156200099457600080fd5b8101908080519060200190929190505050905090565b6060600082850190508084511015620009c257600080fd5b600086602001905060008460200190505b868860200101821015620009fd5781890151808288015250602082019150602081019050620009d3565b85935050505095945050505050565b60008073ffffffffffffffffffffffffffffffffffffffff16600160009054906101000a900473ffffffffffffffffffffffffffffffffffffffff1673ffffffffffffffffffffffffffffffffffffffff16148062000a9d5750600062000a9b600160009054906101000a900473ffffffffffffffffffffffffffffffffffffffff1662000dc060201b60201c565b145b1562000ab75762000ab5600062000dcb60201b60201c565b505b600160009054906101000a900473ffffffffffffffffffffffffffffffffffffffff1673ffffffffffffffffffffffffffffffffffffffff166338cc48316040518163ffffffff1660e01b8152600401602060405180830381600087803b15801562000b2257600080fd5b505af115801562000b37573d6000803e3d6000fd5b505050506040513d602081101562000b4e57600080fd5b810190808051906020019092919050505073ffffffffffffffffffffffffffffffffffffffff166000809054906101000a900473ffffffffffffffffffffffffffffffffffffffff1673ffffffffffffffffffffffffffffffffffffffff161462000c9b57600160009054906101000a900473ffffffffffffffffffffffffffffffffffffffff1673ffffffffffffffffffffffffffffffffffffffff166338cc48316040518163ffffffff1660e01b8152600401602060405180830381600087803b15801562000c1e57600080fd5b505af115801562000c33573d6000803e3d6000fd5b505050506040513d602081101562000c4a57600080fd5b81019080805190602001909291905050506000806101000a81548173ffffffffffffffffffffffffffffffffffffffff021916908373ffffffffffffffffffffffffffffffffffffffff1602179055505b6060600460405190808252806020026020018201604052801562000cd457816020015b606081526020019060019003908162000cbe5790505b5090508360006004811062000ce557fe5b60200201518160008151811062000cf857fe5b60200260200101819052508360016004811062000d1157fe5b60200201518160018151811062000d2457fe5b60200260200101819052508360026004811062000d3d57fe5b60200201518160028151811062000d5057fe5b60200260200101819052508360036004811062000d6957fe5b60200201518160038151811062000d7c57fe5b602002602001018190525062000d9a85828562000de460201b60201c565b9150509392505050565b8060036000848152602001908152602001600020819055505050565b6000813b9050919050565b600062000ddd6200137860201b60201c565b9050919050565b60008073ffffffffffffffffffffffffffffffffffffffff16600160009054906101000a900473ffffffffffffffffffffffffffffffffffffffff1673ffffffffffffffffffffffffffffffffffffffff16148062000e755750600062000e73600160009054906101000a900473ffffffffffffffffffffffffffffffffffffffff1662000dc060201b60201c565b145b1562000e8f5762000e8d600062000dcb60201b60201c565b505b600160009054906101000a900473ffffffffffffffffffffffffffffffffffffffff1673ffffffffffffffffffffffffffffffffffffffff166338cc48316040518163ffffffff1660e01b8152600401602060405180830381600087803b15801562000efa57600080fd5b505af115801562000f0f573d6000803e3d6000fd5b505050506040513d602081101562000f2657600080fd5b810190808051906020019092919050505073ffffffffffffffffffffffffffffffffffffffff166000809054906101000a900473ffffffffffffffffffffffffffffffffffffffff1673ffffffffffffffffffffffffffffffffffffffff16146200107357600160009054906101000a900473ffffffffffffffffffffffffffffffffffffffff1673ffffffffffffffffffffffffffffffffffffffff166338cc48316040518163ffffffff1660e01b8152600401602060405180830381600087803b15801562000ff657600080fd5b505af11580156200100b573d6000803e3d6000fd5b505050506040513d60208110156200102257600080fd5b81019080805190602001909291905050506000806101000a81548173ffffffffffffffffffffffffffffffffffffffff021916908373ffffffffffffffffffffffffffffffffffffffff1602179055505b60008060009054906101000a900473ffffffffffffffffffffffffffffffffffffffff1673ffffffffffffffffffffffffffffffffffffffff16632ef3accc86856040518363ffffffff1660e01b81526004018080602001838152602001828103825284818151815260200191508051906020019080838360005b838110156200110b578082015181840152602081019050620010ee565b50505050905090810190601f168015620011395780820380516001836020036101000a031916815260200191505b509350505050602060405180830381600087803b1580156200115a57600080fd5b505af11580156200116f573d6000803e3d6000fd5b505050506040513d60208110156200118657600080fd5b81019080805190602001909291905050509050823a02670de0b6b3a764000001811115620011bb576000801b91505062001371565b6060620011ce856200194760201b60201c565b90506000809054906101000a900473ffffffffffffffffffffffffffffffffffffffff1673ffffffffffffffffffffffffffffffffffffffff1663c55c1cb68360008985896040518663ffffffff1660e01b8152600401808581526020018060200180602001848152602001838103835286818151815260200191508051906020019080838360005b838110156200127457808201518184015260208101905062001257565b50505050905090810190601f168015620012a25780820380516001836020036101000a031916815260200191505b50838103825285818151815260200191508051906020019080838360005b83811015620012dd578082015181840152602081019050620012c0565b50505050905090810190601f1680156200130b5780820380516001836020036101000a031916815260200191505b5096505050505050506020604051808303818588803b1580156200132e57600080fd5b505af115801562001343573d6000803e3d6000fd5b50505050506040513d60208110156200135b57600080fd5b8101908080519060200190929190505050925050505b9392505050565b600080620013a0731d3b2638a7cc9f2cb3d298a3da7a90b67e5506ed62000dc060201b60201c565b11156200144c57731d3b2638a7cc9f2cb3d298a3da7a90b67e5506ed600160006101000a81548173ffffffffffffffffffffffffffffffffffffffff021916908373ffffffffffffffffffffffffffffffffffffffff160217905550620014426040518060400160405280600b81526020017f6574685f6d61696e6e657400000000000000000000000000000000000000000081525062001a0260201b60201c565b6001905062001944565b60006200147373c03a2615d5efaf5f49f60b7bb6583eaec212fdf162000dc060201b60201c565b11156200151f5773c03a2615d5efaf5f49f60b7bb6583eaec212fdf1600160006101000a81548173ffffffffffffffffffffffffffffffffffffffff021916908373ffffffffffffffffffffffffffffffffffffffff160217905550620015156040518060400160405280600c81526020017f6574685f726f707374656e33000000000000000000000000000000000000000081525062001a0260201b60201c565b6001905062001944565b60006200154673b7a07bcf2ba2f2703b24c0691b5278999c59ac7e62000dc060201b60201c565b1115620015f25773b7a07bcf2ba2f2703b24c0691b5278999c59ac7e600160006101000a81548173ffffffffffffffffffffffffffffffffffffffff021916908373ffffffffffffffffffffffffffffffffffffffff160217905550620015e86040518060400160405280600981526020017f6574685f6b6f76616e000000000000000000000000000000000000000000000081525062001a0260201b60201c565b6001905062001944565b60006200161973146500cfd35b22e4a392fe0adc06de1a1368ed4862000dc060201b60201c565b1115620016c55773146500cfd35b22e4a392fe0adc06de1a1368ed48600160006101000a81548173ffffffffffffffffffffffffffffffffffffffff021916908373ffffffffffffffffffffffffffffffffffffffff160217905550620016bb6040518060400160405280600b81526020017f6574685f72696e6b65627900000000000000000000000000000000000000000081525062001a0260201b60201c565b6001905062001944565b6000620016ec73a2998efd205fb9d4b4963afb70778d6354ad3a4162000dc060201b60201c565b1115620017985773a2998efd205fb9d4b4963afb70778d6354ad3a41600160006101000a81548173ffffffffffffffffffffffffffffffffffffffff021916908373ffffffffffffffffffffffffffffffffffffffff1602179055506200178e6040518060400160405280600a81526020017f6574685f676f65726c690000000000000000000000000000000000000000000081525062001a0260201b60201c565b6001905062001944565b6000620017bf736f485c8bf6fc43ea212e93bbf8ce046c7f1cb47562000dc060201b60201c565b11156200182557736f485c8bf6fc43ea212e93bbf8ce046c7f1cb475600160006101000a81548173ffffffffffffffffffffffffffffffffffffffff021916908373ffffffffffffffffffffffffffffffffffffffff1602179055506001905062001944565b60006200184c7320e12a1f859b3feae5fb2a0a32c18f5a65555bbf62000dc060201b60201c565b1115620018b2577320e12a1f859b3feae5fb2a0a32c18f5a65555bbf600160006101000a81548173ffffffffffffffffffffffffffffffffffffffff021916908373ffffffffffffffffffffffffffffffffffffffff1602179055506001905062001944565b6000620018d97351efaf4c8b3c9afbd5ab9f4bbc82784ab6ef8faa62000dc060201b60201c565b11156200193f577351efaf4c8b3c9afbd5ab9f4bbc82784ab6ef8faa600160006101000a81548173ffffffffffffffffffffffffffffffffffffffff021916908373ffffffffffffffffffffffffffffffffffffffff1602179055506001905062001944565b600090505b90565b60606200195962001a1e60201b60201c565b6200196362001e83565b6200197c8161040062001a2a60201b62001fa81760201c565b620019928162001a7760201b62001ff21760201c565b60008090505b8351811015620019de57620019d0848281518110620019b357fe5b60200260200101518362001a8d60201b620020001790919060201c565b808060010191505062001998565b50620019f58162001ac160201b620020251760201c565b8060000151915050919050565b806002908051906020019062001a1a92919062001e9d565b5050565b60405180590338823950565b600081905060006020828162001a3c57fe5b061462001a57576020818162001a4e57fe5b06602003810190505b808360200181815250506040518084526000815281810160405250505050565b62001a8a81600462001ad760201b60201c565b50565b62001aa2826002835162001aff60201b60201c565b62001abc818362001c8760201b620021941790919060201c565b505050565b62001ad481600762001ad760201b60201c565b50565b62001afb601f60058360ff16901b178362001d4760201b6200223f1790919060201c565b5050565b6017811162001b345762001b2e8160058460ff16901b60ff16178462001d4760201b6200223f1790919060201c565b62001c82565b60ff811162001b855762001b61601860058460ff16901b178462001d4760201b6200223f1790919060201c565b62001b7e8160018562001d9060201b6200227f179092919060201c565b5062001c81565b61ffff811162001bd75762001bb3601960058460ff16901b178462001d4760201b6200223f1790919060201c565b62001bd08160028562001d9060201b6200227f179092919060201c565b5062001c80565b63ffffffff811162001c2b5762001c07601a60058460ff16901b178462001d4760201b6200223f1790919060201c565b62001c248160048562001d9060201b6200227f179092919060201c565b5062001c7f565b67ffffffffffffffff811162001c7e5762001c5f601b60058460ff16901b178462001d4760201b6200223f1790919060201c565b62001c7c8160088562001d9060201b6200227f179092919060201c565b505b5b5b5b5b505050565b62001c9162001e83565b8260200151836000015151835101111562001cd25762001cd183600262001cc48660200151865162001e0a60201b60201c565b0262001e2860201b60201c565b5b60008060008451905085518051602081830101945086518101825260208701935050505b6020811062001d1b578151835260208301925060208201915060208103905062001cf6565b60006001826020036101000a039050801983511681855116818117865250508694505050505092915050565b8160200151600183600001515101111562001d765762001d7582600284602001510262001e2860201b60201c565b5b815180516020818301018381536001820183525050505050565b62001d9a62001e83565b83602001518460000151518301111562001dd95762001dd884600262001dcb87602001518662001e0a60201b60201c565b0262001e2860201b60201c565b5b60006001836101000a0390508451805184818301018684198251161781528582018352505050849150509392505050565b60008183111562001e1e5782905062001e22565b8190505b92915050565b60608260000151905062001e43838362001a2a60201b60201c565b62001e55838262001c8760201b60201c565b50505050565b60405180608001604052806004905b606081526020019060019003908162001e6a5790505090565b604051806040016040528060608152602001600081525090565b828054600181600116156101000203166002900490600052602060002090601f016020900481019282601f1062001ee057805160ff191683800117855562001f11565b8280016001018555821562001f11579182015b8281111562001f1057825182559160200191906001019062001ef3565b5b50905062001f20919062001f24565b5090565b62001f4991905b8082111562001f4557600081600090555060010162001f2b565b5090565b90565b61247c8062001f5c6000396000f3fe60806040526004361061003f5760003560e01c806327dc297e1461004457806338bbfa5014610116578063a2e620451461027f578063dc34b0aa14610289575b600080fd5b34801561005057600080fd5b506101146004803603604081101561006757600080fd5b81019080803590602001909291908035906020019064010000000081111561008e57600080fd5b8201836020820111156100a057600080fd5b803590602001918460018302840111640100000000831117156100c257600080fd5b91908080601f016020809104026020016040519081016040528093929190818152602001838380828437600081840152601f19601f8201169050808301925050505050505091929192905050506102b4565b005b34801561012257600080fd5b5061027d6004803603606081101561013957600080fd5b81019080803590602001909291908035906020019064010000000081111561016057600080fd5b82018360208201111561017257600080fd5b8035906020019184600183028401116401000000008311171561019457600080fd5b91908080601f016020809104026020016040519081016040528093929190818152602001838380828437600081840152601f19601f820116905080830192505050505050509192919290803590602001906401000000008111156101f757600080fd5b82018360208201111561020957600080fd5b8035906020019184600183028401116401000000008311171561022b57600080fd5b91908080601f016020809104026020016040519081016040528093929190818152602001838380828437600081840152601f19601f8201169050808301925050505050505091929192905050506102f7565b005b6102876103fd565b005b34801561029557600080fd5b5061029e61046a565b6040518082815260200191505060405180910390f35b6102f3828260006040519080825280601f01601f1916602001820160405280156102ed5781602001600182028038833980820191505090505b506102f7565b5050565b6102ff610470565b73ffffffffffffffffffffffffffffffffffffffff163373ffffffffffffffffffffffffffffffffffffffff161461033657600080fd5b60006064836040516020018082805190602001908083835b60208310610371578051825260208201915060208101905060208303925061034e565b6001836020036101000a0380198251168184511680821785525050505050509050019150506040516020818303038152906040528051906020012060001c816103b657fe5b069050806005819055507fc13d60fe9dffdb6908d2d446cd18134373a51db0738ee04f296eeb9128121cbc816040518082815260200191505060405180910390a150505050565b6000809050600062030d40905060006104188360018461078d565b90507f94f2559b5e2b297de3db1587daf2352e872ada3dad01dab9ee3733592fa22ed360405180806020018281038252603c81526020018061240c603c913960400191505060405180910390a1505050565b60055481565b60008073ffffffffffffffffffffffffffffffffffffffff16600160009054906101000a900473ffffffffffffffffffffffffffffffffffffffff1673ffffffffffffffffffffffffffffffffffffffff1614806104f8575060006104f6600160009054906101000a900473ffffffffffffffffffffffffffffffffffffffff16610d28565b145b15610509576105076000610d33565b505b600160009054906101000a900473ffffffffffffffffffffffffffffffffffffffff1673ffffffffffffffffffffffffffffffffffffffff166338cc48316040518163ffffffff1660e01b8152600401602060405180830381600087803b15801561057357600080fd5b505af1158015610587573d6000803e3d6000fd5b505050506040513d602081101561059d57600080fd5b810190808051906020019092919050505073ffffffffffffffffffffffffffffffffffffffff166000809054906101000a900473ffffffffffffffffffffffffffffffffffffffff1673ffffffffffffffffffffffffffffffffffffffff16146106e657600160009054906101000a900473ffffffffffffffffffffffffffffffffffffffff1673ffffffffffffffffffffffffffffffffffffffff166338cc48316040518163ffffffff1660e01b8152600401602060405180830381600087803b15801561066b57600080fd5b505af115801561067f573d6000803e3d6000fd5b505050506040513d602081101561069557600080fd5b81019080805190602001909291905050506000806101000a81548173ffffffffffffffffffffffffffffffffffffffff021916908373ffffffffffffffffffffffffffffffffffffffff1602179055505b6000809054906101000a900473ffffffffffffffffffffffffffffffffffffffff1673ffffffffffffffffffffffffffffffffffffffff1663c281d19e6040518163ffffffff1660e01b815260040160206040518083038186803b15801561074d57600080fd5b505afa158015610761573d6000803e3d6000fd5b505050506040513d602081101561077757600080fd5b8101908080519060200190929190505050905090565b6000808311801561079f575060208311155b6107a857600080fd5b600a84029350606060016040519080825280601f01601f1916602001820160405280156107e45781602001600182028038833980820191505090505b5090508360f81b816000815181106107f857fe5b60200101907effffffffffffffffffffffffffffffffffffffffffffffffffffffffffffff1916908160001a905350606060206040519080825280601f01601f19166020018201604052801561085d5781602001600182028038833980820191505090505b509050606060206040519080825280601f01601f1916602001820160405280156108965781602001600182028038833980820191505090505b50905060006108a3610d44565b905060208352424118600143034018602084015260208252806020830152606060206040519080825280601f01601f1916602001820160405280156108f75781602001600182028038833980820191505090505b509050886020820152606060086040519080825280601f01601f1916602001820160405280156109365781602001600182028038833980820191505090505b5090506109498260186008846000611061565b50610952612325565b604051806080016040528087815260200188815260200186815260200184815250905060006109b76040518060400160405280600681526020017f72616e646f6d0000000000000000000000000000000000000000000000000000815250838c6110c0565b9050606060086040519080825280601f01601f1916602001820160405280156109ef5781602001600182028038833980820191505090505b50905060208401517f0100000000000000000000000000000000000000000000000000000000000000810460278301537e01000000000000000000000000000000000000000000000000000000000000810460268301537d010000000000000000000000000000000000000000000000000000000000810460258301537c0100000000000000000000000000000000000000000000000000000000810460248301537b01000000000000000000000000000000000000000000000000000000810460238301537a010000000000000000000000000000000000000000000000000000810460228301537901000000000000000000000000000000000000000000000000008104602183015378010000000000000000000000000000000000000000000000008104602083015350610d15828285600160048110610b2e57fe5b6020020151600287600060048110610b4257fe5b60200201516040518082805190602001908083835b60208310610b7a5780518252602082019150602081019050602083039250610b57565b6001836020036101000a038019825116818451168082178552505050505050905001915050602060405180830381855afa158015610bbc573d6000803e3d6000fd5b5050506040513d6020811015610bd157600080fd5b810190808051906020019092919050505087600260048110610bef57fe5b60200201516040516020018085805190602001908083835b60208310610c2a5780518252602082019150602081019050602083039250610c07565b6001836020036101000a03801982511681845116808217855250505050505090500184805190602001908083835b60208310610c7b5780518252602082019150602081019050602083039250610c58565b6001836020036101000a03801982511681845116808217855250505050505090500183815260200182805190602001908083835b60208310610cd25780518252602082019150602081019050602083039250610caf565b6001836020036101000a0380198251168184511680821785525050505050509050019450505050506040516020818303038152906040528051906020012061142d565b8199505050505050505050509392505050565b6000813b9050919050565b6000610d3d611449565b9050919050565b60008073ffffffffffffffffffffffffffffffffffffffff16600160009054906101000a900473ffffffffffffffffffffffffffffffffffffffff1673ffffffffffffffffffffffffffffffffffffffff161480610dcc57506000610dca600160009054906101000a900473ffffffffffffffffffffffffffffffffffffffff16610d28565b145b15610ddd57610ddb6000610d33565b505b600160009054906101000a900473ffffffffffffffffffffffffffffffffffffffff1673ffffffffffffffffffffffffffffffffffffffff166338cc48316040518163ffffffff1660e01b8152600401602060405180830381600087803b158015610e4757600080fd5b505af1158015610e5b573d6000803e3d6000fd5b505050506040513d6020811015610e7157600080fd5b810190808051906020019092919050505073ffffffffffffffffffffffffffffffffffffffff166000809054906101000a900473ffffffffffffffffffffffffffffffffffffffff1673ffffffffffffffffffffffffffffffffffffffff1614610fba57600160009054906101000a900473ffffffffffffffffffffffffffffffffffffffff1673ffffffffffffffffffffffffffffffffffffffff166338cc48316040518163ffffffff1660e01b8152600401602060405180830381600087803b158015610f3f57600080fd5b505af1158015610f53573d6000803e3d6000fd5b505050506040513d6020811015610f6957600080fd5b81019080805190602001909291905050506000806101000a81548173ffffffffffffffffffffffffffffffffffffffff021916908373ffffffffffffffffffffffffffffffffffffffff1602179055505b6000809054906101000a900473ffffffffffffffffffffffffffffffffffffffff1673ffffffffffffffffffffffffffffffffffffffff1663abaa5f3e6040518163ffffffff1660e01b815260040160206040518083038186803b15801561102157600080fd5b505afa158015611035573d6000803e3d6000fd5b505050506040513d602081101561104b57600080fd5b8101908080519060200190929190505050905090565b606060008285019050808451101561107857600080fd5b600086602001905060008460200190505b8688602001018210156110b15781890151808288015250602082019150602081019050611089565b85935050505095945050505050565b60008073ffffffffffffffffffffffffffffffffffffffff16600160009054906101000a900473ffffffffffffffffffffffffffffffffffffffff1673ffffffffffffffffffffffffffffffffffffffff16148061114857506000611146600160009054906101000a900473ffffffffffffffffffffffffffffffffffffffff16610d28565b145b15611159576111576000610d33565b505b600160009054906101000a900473ffffffffffffffffffffffffffffffffffffffff1673ffffffffffffffffffffffffffffffffffffffff166338cc48316040518163ffffffff1660e01b8152600401602060405180830381600087803b1580156111c357600080fd5b505af11580156111d7573d6000803e3d6000fd5b505050506040513d60208110156111ed57600080fd5b810190808051906020019092919050505073ffffffffffffffffffffffffffffffffffffffff166000809054906101000a900473ffffffffffffffffffffffffffffffffffffffff1673ffffffffffffffffffffffffffffffffffffffff161461133657600160009054906101000a900473ffffffffffffffffffffffffffffffffffffffff1673ffffffffffffffffffffffffffffffffffffffff166338cc48316040518163ffffffff1660e01b8152600401602060405180830381600087803b1580156112bb57600080fd5b505af11580156112cf573d6000803e3d6000fd5b505050506040513d60208110156112e557600080fd5b81019080805190602001909291905050506000806101000a81548173ffffffffffffffffffffffffffffffffffffffff021916908373ffffffffffffffffffffffffffffffffffffffff1602179055505b6060600460405190808252806020026020018201604052801561136d57816020015b60608152602001906001900390816113585790505b5090508360006004811061137d57fe5b60200201518160008151811061138f57fe5b6020026020010181905250836001600481106113a757fe5b6020020151816001815181106113b957fe5b6020026020010181905250836002600481106113d157fe5b6020020151816002815181106113e357fe5b6020026020010181905250836003600481106113fb57fe5b60200201518160038151811061140d57fe5b60200260200101819052506114238582856119a0565b9150509392505050565b8060036000848152602001908152602001600020819055505050565b600080611469731d3b2638a7cc9f2cb3d298a3da7a90b67e5506ed610d28565b111561150b57731d3b2638a7cc9f2cb3d298a3da7a90b67e5506ed600160006101000a81548173ffffffffffffffffffffffffffffffffffffffff021916908373ffffffffffffffffffffffffffffffffffffffff1602179055506115026040518060400160405280600b81526020017f6574685f6d61696e6e6574000000000000000000000000000000000000000000815250611f02565b6001905061199d565b600061152a73c03a2615d5efaf5f49f60b7bb6583eaec212fdf1610d28565b11156115cc5773c03a2615d5efaf5f49f60b7bb6583eaec212fdf1600160006101000a81548173ffffffffffffffffffffffffffffffffffffffff021916908373ffffffffffffffffffffffffffffffffffffffff1602179055506115c36040518060400160405280600c81526020017f6574685f726f707374656e330000000000000000000000000000000000000000815250611f02565b6001905061199d565b60006115eb73b7a07bcf2ba2f2703b24c0691b5278999c59ac7e610d28565b111561168d5773b7a07bcf2ba2f2703b24c0691b5278999c59ac7e600160006101000a81548173ffffffffffffffffffffffffffffffffffffffff021916908373ffffffffffffffffffffffffffffffffffffffff1602179055506116846040518060400160405280600981526020017f6574685f6b6f76616e0000000000000000000000000000000000000000000000815250611f02565b6001905061199d565b60006116ac73146500cfd35b22e4a392fe0adc06de1a1368ed48610d28565b111561174e5773146500cfd35b22e4a392fe0adc06de1a1368ed48600160006101000a81548173ffffffffffffffffffffffffffffffffffffffff021916908373ffffffffffffffffffffffffffffffffffffffff1602179055506117456040518060400160405280600b81526020017f6574685f72696e6b656279000000000000000000000000000000000000000000815250611f02565b6001905061199d565b600061176d73a2998efd205fb9d4b4963afb70778d6354ad3a41610d28565b111561180f5773a2998efd205fb9d4b4963afb70778d6354ad3a41600160006101000a81548173ffffffffffffffffffffffffffffffffffffffff021916908373ffffffffffffffffffffffffffffffffffffffff1602179055506118066040518060400160405280600a81526020017f6574685f676f65726c6900000000000000000000000000000000000000000000815250611f02565b6001905061199d565b600061182e736f485c8bf6fc43ea212e93bbf8ce046c7f1cb475610d28565b111561189257736f485c8bf6fc43ea212e93bbf8ce046c7f1cb475600160006101000a81548173ffffffffffffffffffffffffffffffffffffffff021916908373ffffffffffffffffffffffffffffffffffffffff1602179055506001905061199d565b60006118b17320e12a1f859b3feae5fb2a0a32c18f5a65555bbf610d28565b1115611915577320e12a1f859b3feae5fb2a0a32c18f5a65555bbf600160006101000a81548173ffffffffffffffffffffffffffffffffffffffff021916908373ffffffffffffffffffffffffffffffffffffffff1602179055506001905061199d565b60006119347351efaf4c8b3c9afbd5ab9f4bbc82784ab6ef8faa610d28565b1115611998577351efaf4c8b3c9afbd5ab9f4bbc82784ab6ef8faa600160006101000a81548173ffffffffffffffffffffffffffffffffffffffff021916908373ffffffffffffffffffffffffffffffffffffffff1602179055506001905061199d565b600090505b90565b60008073ffffffffffffffffffffffffffffffffffffffff16600160009054906101000a900473ffffffffffffffffffffffffffffffffffffffff1673ffffffffffffffffffffffffffffffffffffffff161480611a2857506000611a26600160009054906101000a900473ffffffffffffffffffffffffffffffffffffffff16610d28565b145b15611a3957611a376000610d33565b505b600160009054906101000a900473ffffffffffffffffffffffffffffffffffffffff1673ffffffffffffffffffffffffffffffffffffffff166338cc48316040518163ffffffff1660e01b8152600401602060405180830381600087803b158015611aa357600080fd5b505af1158015611ab7573d6000803e3d6000fd5b505050506040513d6020811015611acd57600080fd5b810190808051906020019092919050505073ffffffffffffffffffffffffffffffffffffffff166000809054906101000a900473ffffffffffffffffffffffffffffffffffffffff1673ffffffffffffffffffffffffffffffffffffffff1614611c1657600160009054906101000a900473ffffffffffffffffffffffffffffffffffffffff1673ffffffffffffffffffffffffffffffffffffffff166338cc48316040518163ffffffff1660e01b8152600401602060405180830381600087803b158015611b9b57600080fd5b505af1158015611baf573d6000803e3d6000fd5b505050506040513d6020811015611bc557600080fd5b81019080805190602001909291905050506000806101000a81548173ffffffffffffffffffffffffffffffffffffffff021916908373ffffffffffffffffffffffffffffffffffffffff1602179055505b60008060009054906101000a900473ffffffffffffffffffffffffffffffffffffffff1673ffffffffffffffffffffffffffffffffffffffff16632ef3accc86856040518363ffffffff1660e01b81526004018080602001838152602001828103825284818151815260200191508051906020019080838360005b83811015611cac578082015181840152602081019050611c91565b50505050905090810190601f168015611cd95780820380516001836020036101000a031916815260200191505b509350505050602060405180830381600087803b158015611cf957600080fd5b505af1158015611d0d573d6000803e3d6000fd5b505050506040513d6020811015611d2357600080fd5b81019080805190602001909291905050509050823a02670de0b6b3a764000001811115611d56576000801b915050611efb565b6060611d6185611f1c565b90506000809054906101000a900473ffffffffffffffffffffffffffffffffffffffff1673ffffffffffffffffffffffffffffffffffffffff1663c55c1cb68360008985896040518663ffffffff1660e01b8152600401808581526020018060200180602001848152602001838103835286818151815260200191508051906020019080838360005b83811015611e05578082015181840152602081019050611dea565b50505050905090810190601f168015611e325780820380516001836020036101000a031916815260200191505b50838103825285818151815260200191508051906020019080838360005b83811015611e6b578082015181840152602081019050611e50565b50505050905090810190601f168015611e985780820380516001836020036101000a031916815260200191505b5096505050505050506020604051808303818588803b158015611eba57600080fd5b505af1158015611ece573d6000803e3d6000fd5b50505050506040513d6020811015611ee557600080fd5b8101908080519060200190929190505050925050505b9392505050565b8060029080519060200190611f1892919061234c565b5050565b6060611f26611f9c565b611f2e6123cc565b611f3a81610400611fa8565b611f4381611ff2565b60008090505b8351811015611f8557611f78848281518110611f6157fe5b60200260200101518361200090919063ffffffff16565b8080600101915050611f49565b50611f8f81612025565b8060000151915050919050565b60405180590338823950565b6000819050600060208281611fb957fe5b0614611fd25760208181611fc957fe5b06602003810190505b808360200181815250506040518084526000815281810160405250505050565b611ffd816004612033565b50565b61200d8260028351612054565b612020818361219490919063ffffffff16565b505050565b612030816007612033565b50565b612050601f60058360ff16901b178361223f90919063ffffffff16565b5050565b601781116120805761207b8160058460ff16901b60ff16178461223f90919063ffffffff16565b61218f565b60ff81116120c1576120a5601860058460ff16901b178461223f90919063ffffffff16565b6120bb8160018561227f9092919063ffffffff16565b5061218e565b61ffff8111612103576120e7601960058460ff16901b178461223f90919063ffffffff16565b6120fd8160028561227f9092919063ffffffff16565b5061218d565b63ffffffff81116121475761212b601a60058460ff16901b178461223f90919063ffffffff16565b6121418160048561227f9092919063ffffffff16565b5061218c565b67ffffffffffffffff811161218b57612173601b60058460ff16901b178461223f90919063ffffffff16565b6121898160088561227f9092919063ffffffff16565b505b5b5b5b5b505050565b61219c6123cc565b826020015183600001515183510111156121cc576121cb8360026121c5866020015186516122e6565b02612302565b5b60008060008451905085518051602081830101945086518101825260208701935050505b6020811061221357815183526020830192506020820191506020810390506121f0565b60006001826020036101000a039050801983511681855116818117865250508694505050505092915050565b8160200151600183600001515101111561226557612264826002846020015102612302565b5b815180516020818301018381536001820183525050505050565b6122876123cc565b8360200151846000015151830111156122b5576122b48460026122ae8760200151866122e6565b02612302565b5b60006001836101000a0390508451805184818301018684198251161781528582018352505050849150509392505050565b6000818311156122f8578290506122fc565b8190505b92915050565b6060826000015190506123158383611fa8565b61231f8382612194565b50505050565b60405180608001604052806004905b60608152602001906001900390816123345790505090565b828054600181600116156101000203166002900490600052602060002090601f016020900481019282601f1061238d57805160ff19168380011785556123bb565b828001600101855582156123bb579182015b828111156123ba57825182559160200191906001019061239f565b5b5090506123c891906123e6565b5090565b604051806040016040528060608152602001600081525090565b61240891905b808211156124045760008160009055506001016123ec565b5090565b9056fe517565727920666f722072616e646f6d206e756d62657220686173206265656e2073656e742e2057616974696e6720666f7220726573706f6e73652ea265627a7a72315820dbcb8c04d4cebc139a4100a2078306434ab0c13e9beccf197bd7d46bfd09d66064736f6c634300050c0032517565727920666f722072616e646f6d206e756d62657220686173206265656e2073656e742e2057616974696e6720666f7220726573706f6e73652e",
  "source": "import \"./provableAPI.sol\";\r\npragma solidity 0.5.12;\r\n\r\ncontract randomExample is usingProvable{\r\n\r\n  uint256 constant NUMBER_RANDOM_BYTES = 1;\r\n  uint256 public latestNumber;\r\n\r\n  event logNewProvableQuery(string description);\r\n  event generatedRandomNumber(uint256 randomNumber);\r\n\r\n  constructor() public{\r\n    update();\r\n  }\r\n\r\n  function __callback(bytes32 queryId, string memory _result, bytes memory _proof) public {\r\n    require(msg.sender == provable_cbAddress());\r\n\r\n    uint256 randomNumber = uint256(keccak256(abi.encodePacked(_result))) % 100;\r\n    latestNumber = randomNumber;\r\n    emit generatedRandomNumber(randomNumber);\r\n  }\r\n\r\n  function update() payable public{\r\n    uint256 EXECUTION_DELAY = 0;\r\n    uint256 CALLBACK_GAS_LIMIT = 200000;\r\n    bytes32 queryId = provable_newRandomDSQuery(EXECUTION_DELAY,NUMBER_RANDOM_BYTES,\r\n      CALLBACK_GAS_LIMIT);\r\n    emit logNewProvableQuery(\"Query for random number has been sent. Waiting for response.\");\r\n\r\n  }\r\n}\r\n",
  "sourcePath": "C:/Users/KPD-JIAN/Documents/GitHub/Blockchain/Ethereum/CoinFlip-Dapp/project/contracts/RandomExample.sol",
  "compiler": {
    "name": "solc",
    "version": "0.5.12+commit.7709ece9.Emscripten.clang"
  },
  "schemaVersion": "3.0.16",
  "updatedAt": "2020-11-27T18:01:09.079Z",
  "devdoc": {
    "methods": {
      "__callback(bytes32,string)": {
        "details": "The following `__callback` functions are just placeholders ideally     meant to be defined in child contract when proofs are used.     The function bodies simply silence compiler warnings."
      }
    }
  },
  "userdoc": {
    "methods": {}
  }
}